:020000040800F2
:100000004806002005010008732F0008032200089D
:10001000552C0008191000085D3A00080000000087
:100020000000000000000000000000008F32000807
:100030003D100008000000008D3200085535000812
:100040001F0100081F0100081F0100081F01000810
:100050001F0100081F0100081F0100081F01000800
:100060001F0100081F010008471000081F010008B9
:100070001F0100081F0100081F0100081F010008E0
:100080001F0100081F0100081F0100081F010008D0
:100090001F0100081F0100081F0100081F010008C0
:1000A0001F0100081F0100081F0100081F010008B0
:1000B000B93500081F0100081F0100081F010008D2
:1000C0001F0100081F0100081F0100081F01000890
:1000D0001F010008E13800081F010008ED38000882
:1000E0003F1000081F0100081F010008DFF810D0B2
:1000F00000F076FD0048004759490008AFF3008042
:10010000480600200648804706480047FEE7FEE70D
:10011000FEE7FEE7FEE7FEE7FEE7FEE7FEE7FEE7B7
:10012000B5350008ED000008202A04DB203A21FA4A
:1001300002F00021704721FA02F3D040C2F1200200
:100140009140084319467047D2B201E000F8012BF4
:10015000491EFBD270470022F6E710B513460A4647
:1001600004461946FFF7F0FF204610BD0FB400B556
:100170008DB010A909900B9000914FF0FF300A90BC
:1001800000200C9005480690054807906A4609A88B
:100190000F9900F023FB0DB05DF814FBF907000880
:1001A000170800082DE9FF5F1D464FF0FF3BD5E91A
:1001B000014691465F464FF00008A9697F1C0198EF
:1001C0008847296A824688470028F6D1BAF1FF3F5E
:1001D0000CD024F4C064002E19DD600614D5BAF1E9
:1001E0002B0F09D0BAF12D0F0ED103E0584604B001
:1001F000BDE8F09F44F48064A9697F1C019888479A
:10020000761E8246002E02DDBAF1300F03D0B9F11E
:10021000000F26D032E0A969761E44F400747F1CDA
:10022000019888478246002E05DDBAF1780F06D086
:10023000BAF1580F03D0B9F1000F10D01EE0B9F198
:10024000000F02D0B9F1100F18D1A969761E24F45D
:1002500000747F1C019888478246102002E0082025
:1002600000E00A20814609E008FB0908A969761E1A
:1002700044F400747F1C019888478246002E05DDF7
:100280004946504600F095FA0028EDDAE9690198F0
:100290008847A00502D46FF00100A8E7E00725D148
:1002A000600613D5600502D5C8F1000000E04046A5
:1002B00029680A1D2A600968220501D5087015E021
:1002C000220701D5088011E008600FE02868011DB1
:1002D00029600068210502D580F8008006E021072A
:1002E00002D5A0F8008001E0C0F8008038467EE723
:1002F000F0B480EA0102D40F4200B2EB410F02D207
:100300000246084611464A0042D0C30DDDB2C1F391
:10031000C752AD1A202D35DAC1F3160141F400029F
:1003200004B15242C5F1200602FA06F12A411044F6
:10033000B3EBD05F23D0C4B1012DA0EBC35009DCD7
:10034000F0BC4FF0004202EAC352DBB200F50000FD
:1003500000F07BBA400000F1807000EBC350A0F1C8
:10036000807040EAD170490009E0490841EAC07153
:10037000A0EBC35000F50000400800EBC350F0BCF8
:1003800000F05ABA6142012202EB4101001BF6E77C
:10039000F0BC704781F00041AAE780F00040A7E779
:1003A00080EA010210B502F00043400022D04A006A
:1003B0001FD0010E01EB1261C0F35600C2F35602CA
:1003C00040F4000042F40002A0FB022000047F3948
:1003D000140400D0401C50EA124001D44000491ED1
:1003E000C2B20C0604EBD010401C4008802A02D098
:1003F00003E0002010BD20F00100002900DA0020F9
:10040000184310BD30B480EA010202F0004530F01C
:10041000004221F0004013D090B1C30DD40DC2F3BF
:100420001601C0F31600E41A41F4000140F4000282
:100430007D34914201D3641C00E04900002C02DAB3
:1004400030BC002070474FF400000023914201D3DC
:10045000891A034340084FEA4101F7D151B1914253
:1004600002D14FF0004105E002D24FF0010101E05E
:100470006FF0010103EBC450284430BC00F0DCB93C
:10048000420005D0C0F3C7525242914201DC002025
:10049000704700EBC15070472DE9FE4F81EA03041D
:1004A00004F0004421F0004100944FF0000B23F0D1
:1004B000004350EA01045ED052EA03045BD0C3F368
:1004C0000A54C1F30A552C44A4F2F3340194A0FB5E
:1004D0000254C1F3130141F48011C3F3130343F435
:1004E000801301FB024400FB034E840A970A44EA8E
:1004F000815447EA8357A4FB076802958D0A05FBE0
:1005000007854FEA932C04FB0C542705029D4FEA04
:10051000065847EA1637B5EB08056EEB070C870E51
:10052000920E47EA811742EA8312A7FB0201B6EB5B
:100530000B0164EB00042B0D43EA0C335E1844EB13
:100540001C50DA465146E7FB0201C5F313044FEA9B
:100550000B3343EA14534FEA0432019C43EA060387
:10056000A4F10C040294009CCDE900B400F0AAF9B7
:1005700003B0BDE8F08F00200146F9E72DE9F04D0A
:1005800081EA030404F0004B21F0004514464FF0CB
:10059000000A23F0004150EA050220D054EA01028B
:1005A0001DD0C5F30A570246C5F31303C1F3130068
:1005B000C1F30A5640F4801543F48013A7EB0608F4
:1005C000101BD64608F2FD3873EB050002D308F184
:1005D000010801E092185B41B8F1000F03DA002036
:1005E0000146BDE8F08D00204FF480110646844698
:1005F0000EE0171B73EB050705D3121B63EB050316
:1006000006434CEA010C49084FEA300092185B415E
:1006100050EA0107EDD152EA030012D082EA040049
:1006200083EA0501084305D0101BAB4106D2012225
:10063000002306E000224FF0004302E06FF00102C9
:1006400053101AEB06004CEB085110EB0A0041EB7B
:100650000B01BDE8F04D00F026B9C10F80EAE07053
:100660000844CA079623002100F0EFB800F00042CA
:1006700020F00040C10DC0F3160040F400007F29B7
:1006800001DA00207047962903DCC1F19601C840C9
:1006900001E096398840002AF4D04042704720F0AB
:1006A0000040C10DC0F3160040F400007F2901DABC
:1006B00000207047962903DCC1F19601C8407047BD
:1006C00096398840704700F0004230F000400AD070
:1006D000C10D01F56071C0F3160042EA0151C20874
:1006E00040071143704700200146704701F0004366
:1006F00030B421F0004150EA010206D00A0DA2F503
:100700006072C1F31301002A02DC30BC0020704784
:10071000440F44EAC104C100E01830BC00EBC250F1
:1007200000F08AB830B50B46014600202022012493
:1007300009E021FA02F59D4205D303FA02F5491BAF
:1007400004FA02F52844151EA2F10102F1DC30BDC5
:100750002DE9F05F0546002092469B4688460646F6
:10076000814640241BE02846414647462246FFF783
:10077000DBFC53465A46C01A914110D31146184625
:10078000224600F03FFA2D1A67EB01084F46224639
:100790000120002100F036FA17EB00094E41201E1F
:1007A000A4F10104DFDC484631462A464346BDE851
:1007B000F09F3A2800D2303820F02002412A01D39D
:1007C000A2F13700884201D34FF0FF30704700009C
:1007D000026811441378016018467047D1600449DB
:1007E00051610449116200211161114600F030BAD3
:1007F000D1070008470C0008426842B1016811F8AF
:10080000013B23B1521EC0E9001218467047012176
:10081000C160881E704742685AB1C368016843B915
:1008200083688B4205D0491E521CC0E9001200208B
:1008300070474FF0FF3070470029A8BF7047401C39
:10084000490008BF20F00100704710B4B0FA80FCE6
:1008500000FA0CF050EA010404BF10BC704749B123
:10086000CCF1200421FA04F411FA0CF118BF012193
:1008700021430843A3EB0C01CB1D4FEA00614FEA73
:10088000102042BF002010BC704700EBC350104442
:100890000029A4BF10BC7047401C490008BF20F0CD
:1008A000010010BC704710B5141E73F1000408DA83
:1008B000401C41F1000192185B411A4301D120F024
:1008C000010010BD2DE9F04D92469B4611B1B1FAE1
:1008D00081F202E0B0FA80F22032904600F092F904
:1008E00004460F4640EA0A0041EA0B0153465A46C5
:1008F000084313D0114653EA010019D0C8F1400251
:100900005046FFF711FC05460E46504659464246F2
:1009100000F078F9084305D0012004E0204639466C
:10092000BDE8F08D0020054346EAE0762C433743CE
:100930000A986305E40AA0EB08000022FD0A44EAD5
:1009400047540A3002D500200146E9E70105101995
:100950006941DDE9084500196941BDE8F04DA2E7AC
:100960002DE9FE4F804681EA0300C00F0C4600903F
:1009700021F0004123F00045B8EB0200A94105D267
:100980004046214690461C460B46024623F0004056
:10099000104347D0270DC7F30A00C3F30A51029052
:1009A000401A019040286BDAC3F3130040F4801B17
:1009B0000098924620B10023D2EB030A63EB0B0BA5
:1009C00001985946C0F14002504600F01BF9064616
:1009D0000D4650465946019A00F023F910EB0800E5
:1009E0006141002487EA115284EAE7731A4340D038
:1009F000009A62B3019A012A4FEA075215DC001BE4
:100A000061EB02014FF0004202EA0752CDE90042D9
:100A1000001C41F5801132462B46FFF753FF03B00F
:100A2000BDE8F08F40462146F9E7001B61EB02016B
:100A3000001C41F5801300185B412018A2F5001737
:100A400047EB030140EAD570B6196D4111E06D081E
:100A50004FEA360645EAC0754FEA0752001B61EBC4
:100A60000201001C41F5801149084FEA30000019CD
:100A7000514132462B4603B0BDE8F04FFFF713BF9C
:100A80000098012240000023D0EB020263EBE073E8
:100A9000009821464FEAE074B8EB000061EB0401D6
:100AA000E9E783F000435BE781F0004158E72DE977
:100AB000F04D00231A461B1A8A4103DB0020014631
:100AC000BDE8F08DC1F30A52C1F3130141F4801562
:100AD0004FF0000BD10702D100186D41521E0027C4
:100AE000044640F2FF11384601EB620A3E4680465A
:100AF000024600204FF48011FFF716FBC219714126
:100B0000BB1846EB0100B4EB030C75EB000C04D3EF
:100B1000E41A65EB000517460E46241908F101009A
:100B20006D4180463428E3DDF91946EB0600091BC8
:100B3000A84103D24FF0FF32134601E000221346D2
:100B40001BEB070046EB0A51BDE8F04DFFF7ABBECB
:100B5000C1F30A52C1F3130140F2FF3341F4801193
:100B60009A4202DA00200146704740F233439A422B
:100B7000A2F2334202DC5242FFF7D6BA00F042B88A
:100B800030B5041E71F1000404DB4FF00044404214
:100B900064EB0101141E73F1000405DB1C464FF0E9
:100BA0000043524263EB04038B4208BF824230BDD4
:100BB00030B5041E71F1000404DB4FF000444042E4
:100BC00064EB0101141E73F1000405DB1C464FF0B9
:100BD0000043524263EB0403994208BF904230BD88
:100BE000064C074D06E0E06840F0010394E807007A
:100BF00098471034AC42F6D3FFF77CFAF85400085B
:100C000018550008202A04DB203A00FA02F10020DF
:100C100070479140C2F1200320FA03F3194390403A
:100C20007047202A06DBCB17203A41FA02F043EA4C
:100C3000E07306E041FA02F3D040C2F12002914095
:100C4000084319467047C0B24FF4F05100F0B0B9F4
:100C50002DE9F34F8BB04FF0000801F10C000C466A
:100C60004FF0010B46460DF1080A0190626901211F
:100C700001989047051E2DD0252D2CD0216A88473C
:100C8000C0B16269012101989047216A8847002814
:100C9000F7D1411E62690198904700E0761CA16976
:100CA0000B988847216A88470028F7D1E1690B989B
:100CB0008847DBE7A1690B9888470746A84201D11E
:100CC000761CD3E7E1690B9888477F1C02D1B8F105
:100CD000000F6FD047E1002762693D463946019811
:100CE00090472A2804D16269012101989047012583
:100CF000DFF888926269012101989047A0F13001E4
:100D00000A290AD24F45E5DC07EB870100EB4107D2
:100D1000303FDFD445F01005ECE7E90601D46FF071
:100D200000476C280AD04C2814D0682815D06A28AF
:100D30000DD074281CD07A281AD01DE062690121D8
:100D4000019890476C2802D045F0040514E045F066
:100D500002050DE045F020050AE0626901210198D5
:100D60009047682802D045F0080505E045F4006585
:100D70006269012101989047C4E9015765283DD077
:100D800019DC58287AD00CDC452837D004DC25281B
:100D900026D0412831D131E046282FD047282CD108
:100DA0002CE05B2877D0612828D063287CD0642889
:100DB00023D15AE0D1E06F2848D008DC66281DD046
:100DC00067281BD0692821D06E2816D127E070280B
:100DD00045D0732868D0752847D078280DD14DE0CC
:100DE000A1690B988847054625283FF469AFE1695A
:100DF0000B9888476D1C3FF46AAFB4E023466A46FF
:100E00006FF001000B99AFF300809FE045F04000C8
:100E10006060A80723464FF0000236D43EE0E807A2
:100E20007FF447AF2068011D21600068290501D5C6
:100E300006701BE7290701D5068017E7A90703D528
:100E4000F117C0E9006111E706600FE745F04000C7
:100E50006060A80723464FF0080216D41EE040F653
:100E60000E0125EA0100606016E045F04000606078
:100E7000A80723464FF00A0207D40FE045F04000D0
:100E80006060A80708D5234610226FF001000B9977
:100E9000AFF300805AE007E0234610226FF0010014
:100EA0000B99FFF77FF951E04FF000094F464B4691
:100EB000632802D05B2807D041E02079C00601D426
:100EC0000120A06001273AE0626901210198904762
:100ED0005E2805D14FF001096269494601989047A3
:100EE000216939B900210A46534643F82120491C9B
:100EF0000829FADBB0B3216969B9C11700EBD162E7
:100F000053110AEB830122F01F02821A01200B68A1
:100F1000904003430B6062690121019890475D286E
:100F2000E8D1B9F1000F09D00020514651F8202036
:100F3000D24341F82020401C0828F7DB02AB2246B0
:100F400000976FF001000B99AFF3008000280CDAD6
:100F5000401C08D1BBF1000F05D04FF0FF300DB0A1
:100F6000BDE8F08FFFE74046F9E7E90701D108F156
:100F7000010806444FF0000B78E60000CCCCCC0C06
:100F800070B521F0004303430CD0C1F30A5500248F
:100F9000D5EB040564EB0403D617AD1AB34102DBAD
:100FA0000020014670BD201841EB025170BD0000C9
:100FB0007F2801D9002208E0064A02EB5002C00750
:100FC000127800D1120902F00F020120904008406F
:100FD00070470000B85400086421484340F6FF7190
:100FE000B0FBF1F0642800D96420C0B27047000063
:100FF0000849086007482C38016841F00101016088
:101000000448343801688907FCD502481830006864
:1010100080B2704734240140FEE7000004480549CF
:101020000068B0FBF1F004494968B1FBF0F070478B
:101030000C00002040420F00001000E070474FF409
:10104000805000F0A7B8102000F0A4B872B6FEE7F8
:10105000074A127821F812000022104631F81030A9
:10106000401C1A440428F9DBC2F38F0070470000CB
:101070005400002010B590F821100022022905D05C
:101080000421816380F82020012010BD01680B68D5
:1010900023F00E030B6001680B6823F001030B6063
:1010A00090F84030012404FA03F1C36B596080F8D2
:1010B000214080F82020104610BD000010B590F8A7
:1010C00021100024022903D00421816301243DE082
:1010D00001680A6822F00E020A6001680A6822F0BC
:1010E00001020A601A4A0168914201D1012121E0FE
:1010F000174A1432914201D110211BE0144A2832C0
:10110000914201D1891515E0114A3C32914201D139
:1011100089140FE00E4A5032914202D14FF48031CF
:1011200008E00B4A6432914202D14FF4801101E091
:101130004FF08071064A083A5160012180F8211071
:10114000002180F82010416B01B18847204610BD76
:101150000800024070B5044600F020F90546601C06
:1011600002D004480078044400F018F9401BA04263
:10117000FAD370BD00000020054A4FF4005110283A
:1011800002D0B0F5805F02D1104600F0FAB8704787
:1011900000100140044910B50A68024202D00860FC
:1011A000FFF7EAFF10BD0000140401402DE9F84FDD
:1011B000DFF8A491002409F1040A0AF1040B234684
:1011C0004FF00F080BF1040EBEE00127A7403A4094
:1011D000BA4272D1DFF884C14D68A5EB0C066545B3
:1011E0002BD00DDC032D34D005DC35B3012D19D007
:1011F000022D2FD11BE0112D16D0122D2AD119E06E
:10120000B6F5881F19D006DCB6F5803F15D0B6F5C7
:10121000801F1FD111E0B6F5001F0ED0B6F5041FD8
:1012200018D10AE0CB6815E0CB681B1D12E0CB6833
:1012300008330FE0CB680C330CE08B682BB1012B2B
:101240004FF0080303D0476104E0042302E0076184
:1012500000E00023FF2A01D8064601E000F1040661
:101260004FEA840501D9A5F12005376808FA05FC85
:1012700027EA0C0703FA05F547EA050737604D68CA
:10128000ED0060D5364DAE6946F00106AE61AD6940
:1012900024F0030605F001050095324D7719BE686C
:1012A000A5072D0F08FA05FC26EA0C06DFF8B8C0E2
:1012B000604503D14FF0000C17E044E0DFF8ACC00C
:1012C000604502D14FF0010C0FE0DFF8A4C060458B
:1012D00002D14FF0020C08E0DFF898C0604502D15F
:1012E0004FF0030C01E04FF0040C0CFA05FC4CEA43
:1012F000060CC7F808C04D68D9F80060ED034D46EC
:1013000001D5164300E096432E604D68DAF8006080
:10131000AD03554601D5164300E096432E604D6857
:10132000DBF80060ED025D4601D5164300E0964310
:101330002E604D68DEF80060AD02754601D516439B
:1013400000E096432E60641C0A6832FA04F57FF4CC
:101350003CAFBDE8F88F0000000401400000111010
:10136000001002400000014000080140000C014054
:1013700000100140001401408068084000D00120A6
:101380007047C26821EA02030A4043EA0241016150
:1013900070470AB1016170470904FBE701488068A2
:1013A0007047000000000020024881680278114464
:1013B0008160704700000020074810B5016841F0C7
:1013C00010010160032000F075F80F2000F006F80E
:1013D00000F024F8002010BD0020024070B50D4D33
:1013E00004464FF47A712878B1FBF0F00A49096895
:1013F000B1FBF0F000F0EEFA48B9102C07D2002251
:101400002146501E00F036F800206C6070BD0120AF
:1014100070BD0000000000200C0000200C4808B542
:10142000816941F001018161816901F0010100914F
:10143000C16941F08051C161C069064900F0805026
:101440000090486820F0E06040F00070486008BDFF
:101450000010024000000140002809DB00F01F02DC
:10146000012191404009800000F1E020C0F8001106
:1014700070470000F0B40E4B1B68C3F30223C3F1A6
:101480000704042C00D904241D1D072D01D20023BC
:1014900000E0DB1E012606FA04F56D1E0D409D409E
:1014A0009E40761E164045EA0601F0BC02F070BB75
:1014B0000CED00E0064A00F0070110684FF6FF034C
:1014C000184040EA012003490843106070470000BB
:1014D0000CED00E00000FA052DE9F0470D46040090
:1014E00067D0DFF81881D8F8000000F00700A842A4
:1014F0000CD2D8F8001021F007012943C8F80010D9
:10150000D8F8000000F00700A84252D120683C4EF5
:10151000810712D5400703D5706840F4E060706021
:101520002078000703D5706840F4605070607068E0
:10153000A16820F0F000084370602078C00727D031
:101540006068012810D03168022810D0890700296E
:101550002FDA716821F0030101437160FFF71EFF6C
:10156000074641F288390CE031688903EFE78901C9
:10157000EDE7FFF713FFC11B494502D90320BDE882
:10158000F0877068616800F00C00B0EB810FF0D15B
:10159000D8F80010404601F00701A9420BD90168B4
:1015A00021F0070129430160006800F00700A8420C
:1015B00001D00120E3E72078400705D57068E16895
:1015C00020F4E060084370602078000706D570685A
:1015D000216920F4605040EAC100706000F038F8E2
:1015E0007168084AC1F30311515CC840064908609C
:1015F00006480068FFF7F2FE0020C0E70020024026
:1016000000100240E84B00080C00002004000020FD
:101610000448054900684968044AC1F30221515C45
:10162000C84070470C00002000100240F84B000832
:101630000448054900684968044AC1F3C221515C65
:10164000C84070470C00002000100240F84B000812
:1016500012A085B00FC88DE80F0014A0144B0068CD
:1016600004905968134801F00C02042A10D0082A8B
:101670000ED1C1F38342C9031DF802000AD559688F
:1016800004AAC1F34041515C0A4A5043B0FBF1F057
:1016900005B0704708494843FAE700000203040513
:1016A000060708090A0B0C0D0E0F101001020000AE
:1016B0000010024000127A0000093D002DE9F84FA9
:1016C00004006FD02078BE4DC00747D06868C0F3D3
:1016D0008100012807D06868C0F38100022809D181
:1016E0006868C00306D52868800337D5606800287D
:1016F000E7D033E06068B0F5803F0BD010B1B0F5B3
:10170000A02F11D0286820F480302860286820F4A9
:10171000802002E0286840F480302860606888B14A
:10172000FFF73CFE064609E0286840F48020286068
:10173000F0E7FFF733FE801B642873D82868800326
:10174000F7D50BE0FFF72AFE064604E0FFF726FE7A
:10175000801B6428F1D828688003F7D42078DFF84C
:10176000648280074FF0010A4FF0000939D568689C
:1017700010F00C0F07D06868C0F38100022809D16F
:101780006868C00306D42868800714D5206901283A
:1017900008D110E02069B0B1C8F800A0FFF7FEFD45
:1017A000064605E007E1FFF7F9FD801B0228C4D8D3
:1017B00028688007F7D52868616920F0F80040EABA
:1017C000C10028600DE0C8F80090FFF7E7FD06466D
:1017D00004E0FFF7E3FD801B022823D82868800778
:1017E000F7D4207800072CD57748A169D9B1C0F883
:1017F00000A0FFF7D3FD064604E0FFF7CFFD801BF6
:1018000002280FD8686A8007F7D570484FF4FA515C
:101810000068B0FBF1F0009000BF0098411E0091FD
:10182000FAD20EE07CE0C0F80090FFF7B7FD064664
:1018300004E0FFF7B3FD801B022871D8686A8007B7
:10184000F7D4207840075BD5E8690027C00008D4AA
:10185000E86940F08050E861E869012700F08050B5
:1018600000905B480168C90511D40168834641F4C2
:1018700080710160FFF792FD064604E0FFF78EFDE0
:10188000801B64284CD8DBF80000C005F6D5E06862
:1018900001280AD008B1052813D0286A20F00100D9
:1018A0002862286A20F0040002E0286A40F0010063
:1018B0002862E06841F2883B88B1FFF76FFD064679
:1018C00009E0286A40F004002862EEE7FFF766FDB1
:1018D000811B59455BD8286A8007F7D50BE0FFF7D5
:1018E0005DFD064604E0FFF759FD811B59454ED8C2
:1018F000286A8007F7D41FB1E86920F08050E861BA
:10190000E069A8B36968C1F38101022946D00228C1
:10191000484606D0C8F86000FFF740FD044639E0AD
:1019200035E04746C8F86000FFF738FD064604E09A
:10193000FFF734FD801B022829D828688001F7D4DE
:10194000206AB0F5803F05D16868A16820F40030B6
:1019500008436860D4E908010843696821F47411F8
:1019600008436860C7F860A0FFF718FD044605E06B
:1019700023E0FFF713FD001B022808D82868800128
:10198000F7D51AE0FFF70AFD001B022802D9032051
:10199000BDE8F88F28688001F4D40EE00128F7D064
:1019A0006868226A00F48031914204D1616A00F4CF
:1019B0007010884201D00120EAE70020E8E700002B
:1019C0000010024000004242800442420C0000200D
:1019D0000070004010B5401EB0F1807F01D301209F
:1019E00010BD4FF0E02460610F21601702F0D0F8C5
:1019F0000020A06107202061002010BD70477047C3
:101A000010B5040003D094F83D0010B107E00120A8
:101A100010BD002084F83C00204600F01FF8022092
:101A200084F83D00211D206801F0CCFD012084F8E0
:101A3000460084F83E0084F83F0084F8400084F8B3
:101A4000410084F8420084F8430084F8440084F89C
:101A5000450084F83D00002010BD000008B5006876
:101A6000B0F1804F12D10A48C16941F00101C16152
:101A7000C069002200F00100009011461C20FFF711
:101A8000F9FCBDE808401C20FFF7E6BC08BD0000DB
:101A90000010024090F83D10012901D0012070474C
:101AA000022180F83D100168CA6842F00102CA6054
:101AB00000680B49884208D0B0F1804F05D0094931
:101AC000884202D00849884204D1816801F00701A8
:101AD000062903D0016841F0010101600020704730
:101AE000002C0140000400400008004070B504468E
:101AF00090F83C00012817D0012584F83C500220C2
:101B000084F83D002068826822F0770222F47F4248
:101B100082600868502830D00DDC20284DD005DCCC
:101B200098B310283BD148E0022070BD302844D043
:101B3000402834D139E0602828D0702806D0B0F58C
:101B4000805F2CD0B0F5005F29D10AE0CB68D1E9E5
:101B50000121206801F06CFD2068816841F0770167
:101B600009E0CB68D1E90121206801F061FD20681E
:101B7000816841F48041816011E0CA684968206849
:101B800001F068FD5021206807E016E0CA68496846
:101B9000206801F070FD6021206801F053FD84F899
:101BA0003D50002084F83C0070BDCA684968206838
:101BB00001F050FD40212068EFE722680146104601
:101BC000EBE7704770B50446006801694FF0000507
:101BD000C943890715D4C168C943890711D4E91ECF
:101BE000016101202077206880698007204602D0AB
:101BF000FFF7E7FF04E000F098F8204600F096F8C1
:101C0000257720680169C943490717D4C168C943CA
:101C1000490713D46FF00401016102202077206886
:101C2000806910F4407F204602D0FFF7CAFF04E02D
:101C300000F07BF8204600F079F8257720680169EC
:101C4000C943090716D4C168C943090712D46FF004
:101C500008010161042020772068C06980072046C0
:101C600002D0FFF7AEFF04E000F05FF8204600F07E
:101C70005DF8257720680169C943C90617D4C16892
:101C8000C943C90613D46FF0100101610820207701
:101C90002068C06910F4407F204602D0FFF791FF12
:101CA00004E000F042F8204600F040F82577206874
:101CB0000169C943C90708D1C168C943C90704D12B
:101CC000891E0161204600F033F820680169C9438C
:101CD000090609D4C168C943090605D46FF080011B
:101CE00001612046FFF78AFE20680169C943490661
:101CF00009D4C168C943490605D46FF040010161A8
:101D0000204600F027F820680169C94389060BD4F2
:101D1000C168C943890607D46FF0200101612046DC
:101D2000BDE87040FFF76BBE70BD704770470000A4
:101D300010B50068B0F1804F08D1054801F020F8D7
:101D40000348BDE81040283001F01AB810BD00006B
:101D5000700100207047704770470000F8B50268B6
:101D600004461068D168536910F00F0F4FF000055A
:101D700053D003F0010601F4907737435FD0C207D8
:101D800005D0CA0503D5226C42F001022264420745
:101D900005D5DA0703D0226C42F0020222648207E2
:101DA00005D5DA0703D0226C42F004022264020750
:101DB00007D501F02002324303D0226C42F0080222
:101DC0002264226C002A34D0800604D5880602D50D
:101DD000204601F082FC20684069216CC0F380102D
:101DE000090700D430B3204601F05FFC2068416948
:101DF00049061BD5416921F040014161A06BA8B1A2
:101E000058494163A06BFFF759F9002811D0A06B26
:101E1000416B01B0BDE8F040084783060FD58B0643
:101E20000DD52046BDE8F84001F057BC2046FFF72D
:101E300093FFF8BD2046FFF78FFF2564F8BD266BA2
:101E40002023012E52D1C60650D5CE064ED510689D
:101E500050680090506940062AD5A16B0868406818
:101E60000004000CEAD0A68D8642E7D9E085886997
:101E7000202818D0D06820F48070D0602068416994
:101E800021F0010141612068416921F04001416177
:101E900084F83E3025632068C16821F01001C160DC
:101EA000A06BFFF7E7F8A08DE18D401A81B219E031
:101EB000A08DE18D401A81B2E08D0028BED00029AE
:101EC000BCD0D06820F49070D0602068426922F0C5
:101ED0000102426184F83E3025632068C26822F026
:101EE0001002C2602046FFF736FFF8BD05062BD56D
:101EF0000D0629D594F83D002128F6D1A068B0F54B
:101F0000805F01D12069B0B1206A411C2162216843
:101F100000784860E08C401E0004000CE084E4D1AE
:101F20002068C16821F08001C1602068C16841F06B
:101F30004001C160F8BD206A0088C0F3080050600D
:101F4000206A801C2062E5E74006F3D54806F1D5FB
:101F5000D168204621F04001D16084F83D3000F086
:101F60004FF9F8BD9B36000870B5040004D094F812
:101F70003D00002510B106E0012070BD84F83C5002
:101F8000204600F023F8242084F83D002068C16832
:101F900021F40051C160204601F0FAFB206801697C
:101FA00021F4904101612068416921F02A014161D9
:101FB0002068C16841F40051C1602564202084F884
:101FC0003D0084F83E00002070BD000070B586B072
:101FD0000024009401940294039401682B482A4E33
:101FE000022203230515B14221D1816941F48041C8
:101FF0008161816901F480410491816941F00401AA
:1020000081618069224E00F0040004901002CDE945
:102010000002694603933046FFF7C8F8CDE9005443
:10202000694630460294FFF7C1F806B070BD194EFC
:10203000B142FAD1C16941F48021C161C16901F4A1
:1020400080210491816941F0080181618069CDE9B5
:10205000005200F00800CDE903300F4D69462846D4
:10206000FFF7A4F8E914CDE90014012002906946B5
:102070002846FFF79BF8002211462720FFF7FAF9C0
:102080002720FFF7E9F9D0E70038014000100240AF
:102090000008014000480040000C014090F83E302C
:1020A000202B0ED159B152B190F83C30012B08D001
:1020B000012380F83C300023036301F0C5BB0120FD
:1020C000704702207047000010B500681C49884224
:1020D00034D11C4A0124D078517839B10023012928
:1020E00008D0022910D0032918D123E0AA2819D139
:1020F000547017E0552811D1022050701370402100
:102100001148FEF728F80DE00D2809D00E4C117883
:102110006054491CC8B210703F2803D3537001E0CB
:102120000320507007490122BDE81040C91C074830
:10213000FFF7B4BF0A28F1D19470EFE710BD00009B
:10214000004800404000002030010020EC0000204A
:102150002DE9F843044690F83D001F4615460E460B
:1021600020284BD1C6B1BDB194F83C00012845D020
:10217000012084F83C004FF00008C4F84080212082
:1021800084F83D00FFF70AF9A5848146E584A0683C
:10219000B0F5805F03D004E00120BDE8F88320693A
:1021A00020B13546002684F83C800EE00025FAE791
:1021B0008021204601F063FBA0B9ADB115F8010BF9
:1021C00021684860E08C401EE084E08C4B464FF074
:1021D000000200970028EBD14FF04001204601F0AB
:1021E0004EFB30B10320D8E736F8020BC0F30800ED
:1021F000E6E7202084F83D000020CEE70220CCE76F
:102200007047FEE708B50020009000BF401C00901A
:102210000A28FAD308BD00002DE9F0411E4E0746FA
:102220000024012280213046FFF7B3F80025600624
:10223000040E012240213046FFF7ABF8FFF7E2FF22
:1022400080213046FFF798F808B144F001040022DD
:1022500040213046FFF79DF8FFF7D4FF6D1CEDB22B
:10226000082DE4D30FB1002200E001228021304686
:10227000FFF78FF8FFF7C6FF012240213046FFF736
:1022800088F8FFF7BFFF002240213046FFF781F8B2
:102290002046BDE8F0810000000C014070B51D4EE5
:1022A00005460024280601D5012200E000228021F5
:1022B0003046FFF76EF8FFF7A5FF012240213046B8
:1022C000FFF767F8FFF79EFF002240213046FFF737
:1022D00060F86806641C050EE4B2082CE2D3012203
:1022E00080213046FFF755F8FFF78CFF012240218F
:1022F0003046FFF74EF8FFF785FF80213046FFF7A5
:102300003BF80446002240213046FFF742F82046C1
:1023100070BD0000000C014010B50E4C0122802160
:102320002046FFF736F8012240212046FFF731F81A
:10233000FFF768FF002280212046FFF72AF8FFF709
:1023400061FF002240212046FFF723F8BDE810403E
:10235000FFF758BF000C014010B50B4C0022802144
:102360002046FFF716F8012240212046FFF711F81A
:10237000FFF748FF012280212046FFF70AF8BDE859
:102380001040FFF73FBF0000000C01402DE9F04175
:1023900001220C4DD40321462846FEF7FAFF012204
:1023A000094F160331463846FEF7F3FF0022314647
:1023B0003846FEF7EEFF21462846BDE8F0410022F0
:1023C000FEF7E7BF00080140000C014070B5012294
:1023D000D1030948FEF7DDFF084D4FF48054002279
:1023E00021462846FEF7D5FF21462846BDE8704025
:1023F0000122FEF7CEBF000000080140000C0140A2
:1024000070B50122064DD40321462846FEF7C1FFD0
:1024100021462846BDE870400022FEF7BABF000002
:102420000008014080210148FEF7A6BF00080140D6
:102430002DE9F04105460C460420FEF7D9FD06467D
:102440000520FEF7D5FD07463046FEF7C5FD28807E
:102450003846FEF7C1FD208028880949FEF7F8FDBF
:102460000749288020880831FEF7F2FD20800448C3
:10247000801E0178491C01F003010170BDE8F08164
:102480005600002010B500F0C9FB0122064907489C
:10249000FFF704FEFEF782FF0349C91E0861BDE88D
:1024A000104003A001F03CBB43000020EC000020E2
:1024B0004B323330CAD3BEF5C4A3BFE9B3F5CABCAF
:1024C000BBAFCDEAB3C90D0A0000000070B5094CDE
:1024D0000025A07818B1084800F058FEA570FEF756
:1024E0005DFF2169401AB0F5FA7F01D903480570F4
:1024F00070BD00004000002030010020920000204C
:1025000070B5FEF74BFF164A0124117941B1002343
:10251000022501290AD0022910D003291DD114E077
:102520001178002901D11471906070BD9168401A32
:102530001428FAD3107880B9157170BD117801296B
:10254000FBD103211171D06070BDD168401A1428ED
:10255000FAD310780128EFD15471137170BD0000C7
:102560008C0000202DE9FC5F0446B0F90000FEF766
:1025700074F86FF00D052946FDF782FF0746B4F9A0
:102580000200FEF76AF82946FDF77AFF8146B4F9A2
:102590000400FEF762F82946FDF772FF8046B4F9A1
:1025A0000600FEF75AF85F4D2946FDF72BFF019014
:1025B000B4F90800FEF751F82946FDF723FF8346DA
:1025C000B4F90A00FEF749F82946FDF71BFF41461A
:1025D00000900846FDF7E4FE054639460846FDF73B
:1025E000DFFE2946FDF784FEFEF76DF802F0A0FA43
:1025F00005460E464846FEF766F82A46334602F080
:10260000A9F8DFF8249100224B46FDF745FF4FF073
:10261000C042464BFDF7B2FFFEF768F882464046DF
:10262000FEF751F805460E4687F00040FEF74BF8DE
:102630002A46334602F08EF800224B46FDF72CFF67
:102640004FF0C042394BFDF799FFFEF74FF8384F76
:10265000814639465846FDF7A3FE364D2968FDF7F9
:1026600047FE064639460198FDF79AFE6968FDF770
:102670003FFE804639460098FDF792FEA968FDF7B7
:1026800037FEDFF8B4B00746A86059465046FDF75C
:1026900087FEDFF8A8A0009051463046FDF780FE87
:1026A0000099FDF725FE0646286059464846FDF785
:1026B00077FE814651464046FDF772FE4946FDF7DA
:1026C00017FE1F4968608E4202DC1E498E4200D907
:1026D0002960DFF87480DFF87490404503DD4946D7
:1026E000FDF758FE68601A4EB04203D94946FDF71F
:1026F000FFFD6860474501DCA86804E049463846AC
:10270000FDF748FEA860B04203D94946FDF7F0FD49
:10271000A8602868206168686061A868A061BDE859
:10272000FC9F00000000034300806640FB2109403D
:10273000CDCCCC3D6800002000D7A33C48E17A3FD7
:102740000000B4420000B4C2000034430000B443AF
:10275000000034C310B5044686B00069FDF7B3FF2E
:1027600002460B461CA1684601F0EAF9002110233D
:102770006A46084600F0E8FC6069FDF7A4FF0246DF
:102780000B461AA1684601F0DBF910236A460221C4
:10279000002000F0D9FCA069FDF795FF02460B462A
:1027A00017A1684601F0CCF910236A4604210020E5
:1027B00000F0CAFCE068FDF786FF02460B4615A153
:1027C000684601F0BDF910236A460621002000F09A
:1027D000BBFC06B010BD000050697463683A252B3D
:1027E000372E31662020202020200000526F6C6C94
:1027F000203A252B372E3166202020202020000073
:1028000059617720203A252B372E31662020202051
:102810002020000054656D70203A25362E31662048
:10282000432020202020000030B5234885B000241C
:10283000816941F0080181618069204D00F0080044
:102840000490C020009011200190012002900320EC
:10285000039069462846FEF7A9FC0122402128463C
:10286000FEF797FD012280212846FEF792FD6420A5
:10287000FEF770FC80216B2000F099F86420FEF7D1
:1028800069FC00216B2000F092F800211B2000F071
:102890008EF800211C2000F08AF803211A2000F095
:1028A00086F8074804604460846005B005A0BDE870
:1028B000304001F035B9000000100240000C01402A
:1028C000680000204D505536303530CDD3C2DDD2B2
:1028D000C7B3F5CABCBBAFCDEAB3C90D0A0000004F
:1028E0001FB504460E2269463B2000F033F810B1B4
:1028F000012004B010BDBDF8000040BA2080BDF832
:10290000020040BA6080BDF8040040BAA080BDF863
:10291000060040BA00B2FDF7A0FE0C49FDF772FDBB
:102920000B49FDF7E5FCE060BDF8080040BAE08027
:10293000BDF80A0040BA2081BDF80C0040BA6081A1
:102940002046FFF70FFE0020D3E700000000AA4357
:10295000B81E12422DE9F04115460F460446FFF716
:10296000DBFCD020FFF79AFC48B92046FFF796FC25
:1029700028B9FFF7D1FCD120FFF790FC20B1FFF779
:10298000EBFC0120BDE8F08100246E1E09E0B4429A
:1029900001DA012000E00020FFF73EFC3855641CFE
:1029A000E4B2AC42F3D3FFF7D7FC0020EAE770B5FE
:1029B0000C460546FFF7B0FCD020FFF76FFC38B996
:1029C0002846FFF76BFC18B92046FFF767FC18B1E3
:1029D000FFF7C2FC012070BDFFF7BEFC002070BDF8
:1029E000F0B5214C85B0A06940F40070A061A069E9
:1029F00000F400700490A06940F00400A061A06998
:102A0000002500F004000295CDE90350302000902D
:102A10000320164F019069463846FEF7C7FB802019
:102A200001268DE8610069463846FEF7BFFBE06885
:102A300040F40070E060E06820F40070E0600C4852
:102A40000560041D26600120FEF784FB206840F02D
:102A50000400206020684007FCD405490F200C3199
:102A6000086005B0F0BD0000001002400008014001
:102A7000042401402DE9F04786B000243D4800942D
:102A8000019402940394816941F01001816181698C
:102A900001F010010491816941F020018161816997
:102AA00001F020010491816941F00801816181698F
:102AB00001F008010491816941F00401816180699C
:102AC000DFF8B48000F004004FF4005504900022B9
:102AD00029464046FEF75DFC0122DFF8A0A0160360
:102AE00031465046FEF755FC0122DFF89490D7039B
:102AF00039464846FEF74DFC00950125CDE90154C5
:102B00000224694640460394FEF750FBCDE9006578
:102B1000CDE9025469465046FEF748FB1948009635
:102B2000CDE9010569464846FEF740FBCDE9007551
:102B3000CDE9025469464846FEF738FB1020009064
:102B40001148CDE9010469465046FEF72FFB0022EB
:102B500011460A20FEF78EFC0A20FEF77DFC0022BB
:102B600011462820FEF786FC2820FEF775FC06B0EB
:102B7000BDE8F0870010024000100140000C014049
:102B80000008014000002110000011101FB50020B6
:102B900013490090019002904FF0804203900A6028
:102BA0004722C1E901203122C1E90320886108469A
:102BB000FEF726FF08B172B6FEE74FF48050009092
:102BC00069460748FEF792FF08B172B6FEE7002299
:102BD00002211C20FEF74EFC1C20FEF73DFC1FBD11
:102BE000FC0100200C4810B50A4901604FF4E131A6
:102BF0004160002181600C22C160C0E90412816142
:102C0000C161FFF7B1F9002803D0BDE81040FEF71D
:102C10001DBA10BD00380140A80000200C4810B5B6
:102C20000A4901604FF4E1314160002181600C22CA
:102C3000C160C0E904128161C161FFF795F9002804
:102C400003D0BDE81040FEF701BA10BD00480040B7
:102C5000EC000020FEE70022016002718260C26089
:102C6000026141F6583342610383438382830262E7
:102C700080F82420084600F0FBB890F8241019B919
:102C8000008BB0F5FA5F01D2012070470020704739
:102C90002DE9F0411546044690F8242019480E46C7
:102CA000414262B1277900220223AF4216D084F854
:102CB00024204FF4FA506083A383BDE8F08105B16E
:102CC0000846FDF7CAFC1049FDF79CFB01462B4660
:102CD00032462046BDE8F04100F018B84FF4FA77CC
:102CE000BE4200D83E466683278BB74202D96FF0BA
:102CF000010202E001D2A38300E0A28305B10846ED
:102D0000A060DAE73F420F0000409C4670B51546D0
:102D10000A4604461E4619491046FDF741FBFDF7D9
:102D2000A5FCE1680144A1604FF4FA718D4200D81E
:102D30000D466583228B0021AA4202D96FF0010261
:102D400002E003D24FF00202A28300E0A1834FF021
:102D50000105002801DD217103E001DA257100E0A1
:102D600026712179206800F0D7F8206800F080F8FB
:102D7000FEF754F9606184F8245070BD00409C4611
:102D800070B50446FEF74AF9216A0022411A4FF451
:102D9000FA53B1F57A7F1CD32062B4F91C100029D4
:102DA00017D0258B294489B22183658B02DAA94289
:102DB00002D904E0A94202D3A9B22183A28389B235
:102DC0004FF4FA75A94201D2258302E0994200D955
:102DD000238394F8241031B1A168E36800290ADB49
:102DE0008B420ADA0CE0208B984202D20220A083A8
:102DF00070BDA28370BD8B4202DC84F8242070BDBC
:102E00006169421A218B01EB8101B2EB410F00DDB8
:102E100060616169401AF2D4206800F08EF8207970
:102E2000E16840B14FF0FF300844E060218B6069F9
:102E30000844606170BD0120F6E7000010B5084845
:102E400000F016F8074800F013F80749002081F851
:102E50002400283181F8240004494870887010BD8E
:102E60001000002028000020700100208C000020AD
:102E7000818A00690022FEF78CBA000010B586B086
:102E80000446002000900190029003901F4A2068A1
:102E90001F49904207D1886940F004008861886921
:102EA00000F0040009E01B4A904207D1886940F015
:102EB00008008861886900F00800049001200190F2
:102EC00003200390A088009069462068FEF76EF901
:102ED000A08900906946A068FEF768F9A08A009072
:102EE00069462069FEF762F9A18A00222069FEF78F
:102EF00050FAA18800222068FEF74BFAA18900222F
:102F0000A068FEF746FA06B010BD000000080140B8
:102F100000100240000C014008B509B1012200E098
:102F2000002281898068FEF734FA0020009000BFFB
:102F3000401C00908C28FAD308BD38B5044681881F
:102F400000680122FEF725FA0025009500BF0098D1
:102F5000401C00908C28F9D3A18800222068FEF73D
:102F600018FA009500BF0098401C00904628F9D33D
:102F700038BDFEE770B50025002105F1B00000F076
:102F8000FEF80021084600F0FAF80021102000F0B9
:102F9000F6F800240121002000F0F1F8641CE4B2EE
:102FA000802CF7D36D1CEDB2082DE5D370BD10B5A4
:102FB0004FF44870FEF7CEF80021AE2000F0DFF8A5
:102FC0000021084600F0DBF80021102000F0D7F8BF
:102FD0000021402000F0D3F80021B02000F0CFF80D
:102FE0000021812000F0CBF80021FF2000F0C7F87D
:102FF0000021A12000F0C3F80021A62000F0BFF8B6
:103000000021A82000F0BBF800213F2000F0B7F815
:103010000021C82000F0B3F80021D32000F0AFF861
:103020000021084600F0ABF80021D52000F0A7F8F9
:103030000021802000F0A3F80021D82000F09FF8A4
:103040000021052000F09BF80021D92000F097F81E
:103050000021F12000F093F80021DA2000F08FF831
:103060000021122000F08BF80021DB2000F087F80F
:103070000021302000F083F800218D2000F07FF83F
:103080000021142000F07BF80021BDE81040AF20A3
:1030900000F075B810B50A460446002102F1B000F0
:1030A00000F06DF8102040EA1410002100F067F8DD
:1030B00004F00F00BDE81040002100F060B80000EF
:1030C0002DE9F041203A00240F468046D5B27F28F2
:1030D00003D900208F1C8046FFB2102B394610D038
:1030E000FFF7D8FF164905EB450001EB400501212C
:1030F000285D00F044F8641CE4B2062CF7D3BDE868
:10310000F081FFF7C7FF0F4E04EB05100121305C83
:1031100000F035F8641CE4B2082CF5D37F1CF9B23A
:103120004046FFF7B7FF002404EB051030440121AF
:10313000007A00F024F8641CE4B2082CF4D3DEE733
:10314000004C0008284E00082DE9F041984617462B
:103150000E46044600250DE0434631462046FFF763
:10316000AFFF0834E4B2782C02D90024B61CF6B2C2
:103170006D1CEDB27A5D002AEED1BDE8F081C0B2DF
:1031800009B100F0B6BC00F09DBC000010B5214BA9
:1031900086B09A1E0446911E881E8DE80F0005AB6E
:1031A00004AA1DA12046FCF7E1FF062805D0214610
:1031B0001FA000F0B5FC06B010BD164CBDF8100005
:1031C0000A3C2149A081BDF81400E081012008706B
:1031D000FEF7E4F82061B4F90410481C0BD1B4F9EF
:1031E0000600401C07D1B4F90800401C03D1B4F913
:1031F0000A00401C0AD0B4F90A000090B4F9083063
:10320000B4F9062011A000F08BFCD4E719A000F05F
:1032100087FCD0E74A0000202568642C2568642CD0
:103220002568642C2568642C2568642C2568640056
:103230004B323330CAFDBEDDBDE2CEF6CAA7B0DCEC
:103240003A2025730D0A0000920000204B323330E3
:10325000CAB6B1F0B5BDC4BFB1EA3A20583D256445
:1032600020593D256420573D256420483D25640DA7
:103270000A0000004B323330A3BACEB4BCECB2E249
:10328000B5BDC4BFB1EA0D0A000000007047704729
:1032900010B5054C002020706070E0602061FEF7E2
:1032A0007DF8A06010BD0000740000202DE9FE4FE5
:1032B000FEF774F89B4EB168401A0A287BD3FEF7DC
:1032C0006DF8B0609848008832380FFA80F8974857
:1032D00008F10F0B0088323807B2BBF11E0F03D87C
:1032E00007F10F001E2801D9012300E000239048B8
:1032F000DFF840C2DFF840E2007898B1BCF9000086
:10330000401C0DD1BEF90000401C09D18B48B0F91A
:103310000000401C04D18A48B0F90000401C01D0D4
:10332000012200E000228748002487494FF0640909
:103330004FF0010A5025EBB3022282838A83317851
:1033400041B107F1080110290AD880F824403470EF
:10335000758014E007F10F001E2810D986F800A030
:10336000384601F0C5FAB0FBF9F201467280002F31
:1033700001DD012200E000227248FFF789FC70782D
:1033800038B108F10800102808D86F4880F82440A8
:10339000C4E0BBF11E0F7ED986F801A0404601F0C3
:1033A000A7FA0146B0FBF9F0B080B8F1000F03DDD9
:1033B000012202E007E06EE0002203B06248BDE8AF
:1033C000F04FFFF765BC002A7ED0604AB2F90030AA
:1033D000F3B35F4AB2F90020D2B35A480327878378
:1033E0005948878303EBD3704010009002EBD270F2
:1033F0004FEA600BBCF800100098081ABEF80010E5
:1034000007B2A1EB0B0000B202904FF07D51F068C3
:10341000FCF7C6FF80463846FDF71FF96FF001073D
:103420003946FDF72DF84146FCF762FF8046F06013
:103430004FF07D513069FCF7B3FF01900298FDF722
:103440000CF93946FDF71CF80199FCF751FF00E033
:103450001BE0074630614046FDF708F90FFA80F897
:103460003846FDF703F907B208F1080010281BD908
:103470004046009901F082FB0146B0FBF9F0B080B4
:10348000B8F1000F09DC012208E080F8244081F83F
:10349000244034707470BDE8FE8F00222A48FFF784
:1034A000F7FB86F801A006E0707820B1264880F886
:1034B00024407470B58007F10800102814D95946CB
:1034C000384601F05BFB00E017E00146B0FBF9F085
:1034D0007080002F01DD012200E000221948FFF773
:1034E000D7FB86F800A0D6E730780028D3D015485F
:1034F00080F8244034707580CDE7327812B990F8A6
:1035000024201AB180F8244034707580707818B97E
:1035100091F824000028BED081F824407470B58052
:10352000B9E7000074000020880000208A00002015
:1035300092000020440000204600002048000020A7
:103540004A00002070010020980100204C0000205B
:103550004E000020FDF728BF30B58FB02821684607
:10356000FCF7F9FD14210AA8FCF7F5FD0120010480
:1035700000248DE8130004904FF4E010CDE908100A
:10358000022507956846FEF799F808B172B6FEE77E
:103590000F20CDE90A054FF48060CDE90C400221EF
:1035A0000AA80E94FDF798FF002801D072B6FEE736
:1035B0000FB030BD704700000148FEF703BB0000AC
:1035C000FC010020F0B50268164C174D174E4FF065
:1035D0008047A04205D0B84203D0A84201D0B042F3
:1035E00003D122F070034A681A43A04205D0B842C2
:1035F00003D0A84201D0B04203D122F44073CA687C
:103600001A434B6922F080021A4302608A68C26240
:103610000A688262A04201D1096901630121416106
:10362000F0BD0000002C01400004004000080040F4
:1036300010B5846842EA032224F47F440A432243FB
:10364000826010BD826822F070020A4342F00701D6
:103650008160704710B5046A036A23F001030362B6
:10366000836923F0F00343EA021324F00A020A43B9
:103670008361026210BD10B5036A23F01003036278
:103680008469036A24F4704444EA023223F0A003FC
:1036900043EA01118261016210BD10B5406A002148
:1036A000C185C184FEF758FB10BD0168CA6822F4C9
:1036B0009072CA6001684A6922F001024A61016B96
:1036C000012904D10168CA6822F01002CA602021D1
:1036D00080F83E1000210163704708B590F83E1055
:1036E000222901D0022008BD81684FF480539942FD
:1036F00001D1026922B1826A99421BD049B10AE024
:103700000268816A5268C2F308020A80816A891CD1
:1037100008E0016971B10168496801F07F01117029
:10372000816A491C8162C18D491E0904090CC18549
:1037300003D019E001684968F1E70168CA6822F01E
:103740002002CA600168CA6822F48072CA600168F7
:103750004A6922F001024A61202180F83E10016B83
:10376000012903D0FEF7B0FC002008BD0021016351
:103770000168CA6822F01002CA6001680A68D206AD
:1037800002D50A6849680091818DFEF7E4FAEBE7FB
:1037900070B5044600680169E26821F440511143A4
:1037A0000161A16820690143606901432068C26822
:1037B00041F20C639A430A43C26020684169A269DE
:1037C00021F44071114341611E492068884202D1B1
:1037D000FDF72EFF01E0FDF71BFF00EBC00101EB41
:1037E0000011606864228000B1FBF0F3B3FBF2F3D8
:1037F0006FF018067343B1FBF0F5B1FBF0F605EB83
:103800008305322303EB0515B5FBF2F5B6FBF2F6A3
:1038100005F0F00505EB0615B1FBF0F6B1FBF0F095
:10382000B0FBF2F06FF01801484306EB800003EBA9
:103830000010B0FBF2F0216800F00F00284488600F
:1038400070BD00000038014081628285C285002180
:103850000164222280F83E2080F83C100168CA688A
:1038600042F48072CA6001684A6942F001024A610A
:103870000068C16841F02001C160002070472DE957
:10388000F0411E46174688460446069D1CE0681C0B
:103890001AD025B1FDF782FD801BA84214D92068FB
:1038A000C16821F4D071C1602068416921F0010133
:1038B0004161202084F83D0084F83E00002084F817
:1038C0003C000320BDE8F0812068016838EA01006F
:1038D00004D00020B842DAD00020F3E70120F9E755
:1038E0000148FEF73BBA0000A80000200148FEF79F
:1038F00035BA0000EC00002010B5304CE07820B163
:10390000BDE810402E48FEF725BF2078002847D09C
:103910002CA12B48203800F013F9294A002110234C
:10392000203A0846FFF710FCA07900283AD02A4830
:103930002BA1B0F900302948B0F9002020482038E8
:1039400000F0FEF81E4A1023203A02210020FFF763
:10395000FBFBA07900282BD0254827A1B0F9003027
:103960002448B0F900201648203800F0E9F8144A3D
:103970001023203A04210020FFF7E6FB224824A16F
:103980000388224802880E48203800F0D9F80C4AF3
:103990001023203A0621BDE810400020FFF7D4BBD9
:1039A0001FA1B6E7064823A1203800F0C9F8C9E7EF
:1039B000034825A1203800F0C3F8D8E78C00002088
:1039C000E00100204A6F79204B65793A2052656CFE
:1039D000656173652000000046000020440000205F
:1039E000583A252D346420593A252D3464000000BE
:1039F0004A00002048000020573A252D3464204812
:103A00003A252D3464000000780000207600002064
:103A100044313A252D33642044323A252D33640055
:103A20004A6F79204B65793A2050726573736564EB
:103A300020000000583A2D2D2D2D2020593A2D2DF3
:103A40002D2D202020000000573A2D2D2D2D202037
:103A5000483A2D2D2D2D202020000000FEE70000EB
:103A60002DE9F047154F04464FF400460022314639
:103A70003846FDF78EFCDFF8489000254FF480585B
:103A800004F08000802816D0002241464846FDF709
:103A900080FC6006040E012231463846FDF779FCB1
:103AA000002231463846FDF774FC6D1CEDB2082D3E
:103AB000E6D3BDE8F0870122E7E7000000080140F7
:103AC000000C014010B50446FEF760FC7820FFF7BB
:103AD000C7FFFEF795FC0020FFF7C2FFFEF790FC42
:103AE0002046FFF7BDFFFEF78BFCBDE81040FEF758
:103AF0006DBC10B50446FEF749FC7820FFF7B0FF17
:103B0000FEF77EFC4020FFF7ABFFFEF779FC204676
:103B1000FFF7A6FFFEF774FCBDE81040FEF756BCA9
:103B20000FB4054B10B503A9044A029800F07AF9C6
:103B300010BC5DF814FB000041490008A000002003
:103B40000FB4084B10B504A902AA039800F06AF953
:103B5000044602A9002000F0E8FC204610BC5DF8F5
:103B600014FB00002B450008490050EAC12018BF93
:103B700004204A0D18BF40F0010040F2FF72B2EB82
:103B8000515F08BF40F00200012808BF05207047C0
:103B90000907090E002804DB00F1E02080F800147A
:103BA000704700F00F0000F1E02080F8141D70470E
:103BB0002DE9F0414F1E00EBC7010446D1E9000199
:103BC00015461E4637F006020DD02A463346FCF74E
:103BD00063FC7F1E04EBC703D3E90023FCF7C0FEA0
:103BE00037F00602F1D1022F25D0042F13D0062F73
:103BF00018BFBDE8F0812A463346FCF74DFCD4E9F6
:103C00000A23FCF7ADFE2A463346FCF745FCD4E90F
:103C10000823FCF7A5FE2A463346FCF73DFCD4E911
:103C20000623FCF79DFE2A463346FCF735FCD4E913
:103C30000423FCF795FE2A463346FCF72DFCD4E915
:103C40000223FCF78DFE2A463346FCF725FCD4E917
:103C50000023BDE8F041FCF783BE0122FDF790B9D7
:103C6000FCF77EBE024A00201107FDF789B900006B
:103C700001FDFFFF02E008C8121F08C1002AFAD1A7
:103C800070477047002001E001C1121F002AFBD1DC
:103C9000704700000149086070470000A400002040
:103CA0002DE9FF5F82B00021DDE90430020DDDF86F
:103CB00040B0034318D044F61050A2F2FF32424302
:103CC0001514119801281FD0A5EB0B00401C5FEACA
:103CD000000A4FF000064E4FDFF83891B0465046CC
:103CE00015D5CAF1000413E0119801244AA3012854
:103CF00001D16FEA0B010298119AC0E90031C0E9C5
:103D0000024206B0BDE8F09FCBF10000DFE70446B9
:103D10000021404A491842EB0450CDE9001012E05E
:103D2000E00707D032463B4640464946FCF7B4FB25
:103D30008046894632463B4610461946FCF7ACFBA6
:103D400006460F466410002CEAD1DDE90401DDE9E6
:103D50000023BAF1000F06DAFCF79EFB42464B4601
:103D6000FCF79AFB05E0FCF709FC42464B46FCF7E2
:103D700005FC04460E460022284BFCF719FF03D829
:103D80004FF0FF30014607E00022254B2046314628
:103D9000FCF7E6FDFCF7DCFE102409E0002C0ADB52
:103DA0000A220023FCF7D4FC039B30321A55641E10
:103DB00050EA0102F2D1641C039AC4F111031444C5
:103DC000119A012A03D0012208430DD10AE00843C9
:103DD00004D000204FF0110B119072E7A3EB0B05FC
:103DE0006D1E0DE05B4504DD4FF0000205F101059D
:103DF00004E003DA4FF00002A5F10105002AECD03F
:103E000002981199C0E90231C0E9004579E7000044
:103E1000000014400000F03F300000000000F043BC
:103E20000000E03F2DE9FF4F95B09A4688460646D0
:103E30000025EEE1252877D100242746F94A012103
:103E4000039400E0044316F8013F203B01FA03F01D
:103E50001042F7D130782A2811D06FF02F03307834
:103E6000A0F13002092A16D8039A44F0020402EBAA
:103E7000820203EB42021044761C0390EFE758F8ED
:103E8000042B0392002A03DA504244F400540390B6
:103E900044F00204761C30782E2816D116F8010F53
:103EA00044F004042A280DD06FF02F023078A0F1DE
:103EB0003003092B09D807EB870302EB4303C7182C
:103EC000761CF3E758F8047B761C30786C280FD00A
:103ED00006DC4C2817D068280DD06A2814D104E0DD
:103EE000742810D07A280FD10DE044F400140AE0B1
:103EF00044F4801401E044F440147278824202D108
:103F000004F58014761C761C307866280BD013DC00
:103F1000582877D009DC002875D04528F6D04628E7
:103F2000F4D047281AD193E118E0632835D06428EB
:103F300079D0652812D18BE1702873D008DC67280E
:103F4000F1D069286FD06E280DD06F2806D1ACE073
:103F500073282CD0752874D0782853D052461799DE
:103F600090476D1C54E1C4F30250022809D0032885
:103F70000DD0D8F8001004280DD00D6008F1040809
:103F800046E1D8F80010EA17C1E90052F6E7D8F880
:103F900000100D80F2E70D70F0E718F8041B8DF8A3
:103FA000001000208DF80100EB46012003E058F8D6
:103FB00004BB4FF0FF3061074FF0000102D40DE069
:103FC00009F101018946B9420FDA8145F8DB1BF896
:103FD00009100029F4D108E009F101018946814264
:103FE000FADB1BF809100029F6D103985346A0EB21
:103FF000090721463846179A00F080FA284400EB5A
:10400000090507E044E008E10DE01BF8010B52460A
:1040100017999047B9F10109F7D25346214638461E
:10402000179AF2E039E00A21C4F302524FF0000B74
:104030000091022A06D058F8040BC117032A09D0B0
:104040000AE023E008F1070020F00702F2E802018D
:10405000904605E000B2C117042A01D140B2C11751
:10406000002906DA0A460021404261EB02012D22B6
:1040700002E0220504D52B228DF80420012203E062
:10408000E20701D02022F7E7914657E00A2100E03D
:1040900010214FF0000B00910BE010214FF0000BAE
:1040A00044F004040827009103E008204FF0000BBF
:1040B0000090C4F30252022A05D058F8040B0021E4
:1040C000032A08D008E008F1070020F00702F2E810
:1040D0000201904603E080B2042A00D1C0B24FF042
:1040E000000922072AD53278702A07D0DDF800C0EF
:1040F0008CF0100C5CEA0B0C05D00EE040228DF821
:104100000420012208E050EA010306D030238DF894
:1041100004308DF8052002229146009B83F00803AD
:1041200053EA0B030AD150EA010201D1620705D517
:1041300030228DF804204FF001097F1E3278582A72
:1041400004D039A20C920CAA02920BE03BA2F9E730
:104150005B46009AFCF7FCFA0C9B9B5C029A521E91
:104160000292137050EA0102F2D1029804A9081ACF
:1041700000F1200B600702D524F4803400E0012711
:104180005F4502DDA7EB0B0000E0002000EB0B0118
:10419000009003984944401A0390E00306D4534624
:1041A0002146179A039800F0A9F90544002706E074
:1041B00001A85246C05D179990476D1C7F1C4F4562
:1041C000F6DBE0030CD553462146179A039800F01E
:1041D00095F9054404E030205246179990476D1C2C
:1041E0000099481E00900029F5DC08E00298029929
:1041F00052460078491C0291179990476D1CBBF1FB
:104200000001ABF1010BF1DC5BE100F065F9054465
:10421000761C307800287FF40DAE19B02846BDE832
:10422000F08F000009280100303132333435363741
:1042300038396162636465660000000030313233F2
:104240003435363738394142434445460000000092
:10425000600700D4062708F1070020F00700F0E807
:104260000223804603F0004C5FEA0C0001D097A0C7
:1042700009E0200501D596A005E0E00701D095A052
:1042800001E0AFF24C001390307823F00043652832
:104290000CD006DC452809D046281DD047287FD100
:1042A0003BE0662818D067287AD136E00021112F2C
:1042B00001DB112000E0781CCDE9000104A90CA865
:1042C000FFF7EEFCDDE90D010C9A4FF0000B07F152
:1042D0000109109200914EE04FF000400097CDE9A7
:1042E000011004A90CA8FFF7DBFCDDE90D020C9B13
:1042F0000F994FF0000B91461093009211B9791C61
:1043000000EB0109B7EB090003D4C0F1FF3B07F153
:104310000109A9EB0700019042E0012F00DA012713
:104320000021112F01DD112000E03846CDE9000108
:1043300004A90CA8FFF7B4FCDDE90D010C9A00916B
:104340004FF0000BB946109221070FD4009A4A454E
:1043500003DA914601E0A9F10109B9F1010F05DD88
:10436000109AA9F10101515C3029F4D0B84202DA67
:1043700010F1040F03DA0121CDE9011010E000284B
:1043800003DC8344A9EB000102E0411C494500DD48
:104390008946A0EB0B00401C01904FF000400290BA
:1043A000200705D40198484502DB4FF0FF3001900B
:1043B00000208DF84B0002980DF14B07B0F1004F33
:1043C00025D002200C902B200D90029800280CDAAA
:1043D000404202902D200D9007E00A210298FCF740
:1043E000A1F93031029007F8011D0C99481E0C907C
:1043F0000029F2DC02980028EFD1791E0D98087090
:10440000307800F0200040F0450007F8020D11A8B8
:10441000C01BC01D02901398007800B1012000EB72
:104420000901019801EBE071029801440398401AD8
:10443000401E0390E00306D453462146179A039882
:1044400000F05CF805441398007818B152461799AB
:1044500090476D1CE00323D553462146179A0398D5
:1044600000F04CF805441BE0BBF1000F07DB00989F
:10447000584504DD1098179910F80B0001E01799C2
:1044800030205246904701980BF1010B401E05F178
:104490000105019004D12E205246179990476D1CBA
:1044A000B9F10001A9F10109DEDC05E017F8010B03
:1044B0005246179990476D1C0299481E0290002998
:1044C000F4DC53462146179A03989EE62D0000001F
:1044D0002B000000200000002DE9F04104460025DB
:1044E0001E461746880404D405E039462020B0470C
:1044F0006D1C641EF9D52846BDE8F0812DE9F04118
:10450000044600251E469046C80301D5302700E02A
:104510002027880404D505E041463846B0476D1C85
:10452000641EF9D52846BDE8F0810A68531C0B606B
:10453000107070472DE9F84F04460D4621F00040F9
:1045400000917349814211DC7249884201DC06D135
:104550002CB120462946BDE8F84FFFF77EBB6E48D8
:10456000002DCCBF6D496E49BDE8F88F6D49814281
:1045700011DD6D498142D8BF4FF0FF366DDD204619
:104580002946FFF7F1FA042808BFFFF76BFB204626
:104590002946BDE8F88F6549654F25F00045814201
:1045A00033DD6449814219DD002632464FF08043F5
:1045B00020462946FCF7D4F980468A460122204647
:1045C0002946FCF7DDFC00223B46FCF76AFA42462E
:1045D0005346FBF7D3FF04460D463EE0012600227A
:1045E000BA463B4620462946FCF7BAF980460F46B4
:1045F0000022534620462946FCF753FA42463B46E2
:10460000FBF7BCFF04460D4627E04B4981421BDD0A
:10461000DFF828A102260022534620462946FBF750
:104620003BFF00223B46FCF79BF980460F460022E9
:10463000534620462946FCF734FA42463B46FBF7F0
:104640009DFF04460D4608E0032622462B46002027
:104650003B49FBF793FF04460D4622462B46104686
:104660001946FBF719FF8B46824602460B46FBF7BD
:1046700013FF07460246334888460B460621784416
:10468000FFF796FA52465B46FBF706FF82462E4836
:104690008B463A46434605217844FFF789FA3A4665
:1046A0004346FBF7F9FE02460B46002E504659469C
:1046B0000CDAFCF755F922462B46FBF7EDFE01B06C
:1046C00022462B46BDE8F04FFCF7EEB9FCF748F95F
:1046D00022462B46FBF7E0FE1C4A7A4402EBC60357
:1046E000D3E90023FCF7DDF922462B46FCF7D9F984
:1046F000174A7A4402EBC603D3E90023FCF7D4F946
:10470000009A002AB8BF81F00041BDE8F88F000090
:10471000000010440000F07F182D4454FB21F93FA5
:10472000FB21F9BF0000DC3F0000203E0000F33F0A
:104730000000F03F0000E63F008003400000F83F2B
:104740000000F0BFFE0D0000BC0D00005A0D00007F
:10475000220D00002DE9F04D9446CCF1000423F029
:1047600000464CEA0404594F46EAD4749A468846F7
:1047700021F00042BC4206D8454240EA050442EA24
:10478000D474BC4204D9BDE8F04D6246FFF768BA64
:10479000AAF14055A5F17F6555EA0C040BD002241F
:1047A00004EAAA744A4DDFF82CE144EAD87452EACC
:1047B000000B04D00CE0BDE8F04DFFF7BBBE002CB1
:1047C00014BF012CBDE8F08D022C30D0032C32D068
:1047D00056EA0C0B0AD0BE4220D1BA4209D126F0CB
:1047E000804622F080423346114617E000291ADB4A
:1047F00025E0DFF8E4B0FB44002C04BFDBE9000156
:10480000BDE8F08D012C02BFDBE9000181F0004121
:10481000BDE8F08D022C0AD0032C0CD0BA4212D184
:10482000B8F1000F0BDA2A482C49BDE8F08D284674
:104830002B49BDE8F08D28467146BDE8F08D24482F
:104840002849BDE8F08D921B12153C2AC4BF204FA9
:10485000244E10DCBAF1000FBEBF12F13C0F00274E
:104860003E4608DB6246FBF789FE21F00041FFF778
:1048700061FE07460E4694B1012C08BF86F0004643
:104880000DD0194A194B022C3846314615D0FCF789
:1048900008F92A46BDE8F04D114BFCF702B9002299
:1048A000134638463146FCF76BF904BF0220FFF788
:1048B000F1F938463146BDE8F08DFCF7F2F82A46AA
:1048C000BDE8F04D064BFCF7EFB800000000F07FAC
:1048D000182D4454FB2109C0B60C0000FB21F9BF80
:1048E000FB210940FB21F93F075C143326A6A13CBC
:1048F000002800DA404280B21421142807D24FF475
:10490000FA625043B0FBF1F0C0F5FA5015E02828E8
:1049100009D240F6C4121438504390FBF1F041F232
:104920007071081A09E040F6B831283848430A2166
:1049300090FBF1F0A0F6AC50404280B2704700000E
:1049400013B54FF6FF73012269460248FDF700FCDC
:1049500000981CBDA8000020FCF72EFD59480168F6
:1049600041F080710160DFF860810024C8F80440E4
:10497000D8F8001041F00101C8F80010FEF7ECFD76
:10498000FEF778F8FEF72EF9FEF700F9FEF728F8A3
:10499000FDF778FDFDF748FFFEF709FBFEF7EAFAA1
:1049A0004A48FEF76BFA4A48FEF768FA4749494811
:1049B000FEF751F946494848FEF74DF9FEF768FC05
:1049C000FEF73CFA0021102344A20846FEF7BCFB88
:1049D000102346A202210020FEF7B6FB102347A2B7
:1049E00004210020FEF7B0FB40F2DC50FCF7B2FBE4
:1049F000FEF7C0FA4548FDF74DF800252F464CF26A
:104A0000503BDFF80C91DFF80CA1FCF7C7FCC11B91
:104A1000594510D372B6D8F80410C8F804402D4890
:104A20004269521A42612C484269511A416162B688
:104A3000FCF7B4FC074638493848FDF7F9FCFDF7A8
:104A4000F1FC37490870FDF75BFD99F800004E4610
:104A500038B134480121027891430170FEF78AFA97
:104A60003470FCF79BFCDAF800105646401A6428B4
:104A700005D32D48FDF734FFFCF790FC3060FEF7BE
:104A800015FCFDF723FDFCF789FC401BC82804D367
:104A9000FEF732FFFCF782FC05460E48FEF7EDF804
:104AA00018B90D48FEF7E9F828B14FF400511F4836
:104AB000FCF767FCA9E700224FF400511B48FCF704
:104AC00068FCA2E7FCED00E0001000E01000002010
:104AD0002800002070010020980100205379737491
:104AE000656D2052656164792E2E2E00436C6963DA
:104AF0006B20746F207377697463680064697370E6
:104B00006C6179207061676500000000FC01002085
:104B1000910000209C0000208A00002088000020D6
:104B20008C0000208F000020E001002000100140D8
:104B30002DE9F04106460F46FBF7B9FF041E0D466E
:104B400018BF0120284320F00040C0F17F6000F131
:104B5000E040C00F0ED0301C18BF0120384320F0B9
:104B60000040C0F17F6000F1E040C00F04BF0120B1
:104B7000FFF790F820462946BDE8F08170B504465D
:104B80000846FBF76AFD0546002C00DA6442204621
:104B9000FBF763FD2946FBF735FC01464FF07E50DD
:104BA000814200DD0146FBF7F5FB04462146FBF799
:104BB000F7FB2146FBF7F4FB0949FBF7F1FB094939
:104BC000FBF796FBFBF76BFD80B24FF4FA7188425E
:104BD00003D341F27C51884200D9084670BD0000E1
:104BE00000409C450000FA43000000000000000067
:104BF0000102030406070809000000000102030483
:104C00000000000000000000002F0000000007006E
:104C1000070000147F147F1400242A7F2A120062E8
:104C20006408132300364955225000000503000094
:104C300000001C224100000041221C000014083E1C
:104C400008140008083E0808000000A060000008E2
:104C50000808080800006060000000201008040236
:104C6000003E5149453E0000427F400000426151F4
:104C70004946002141454B31001814127F1000278E
:104C800045454539003C4A49493000017109050351
:104C900000364949493600064949291E0000363682
:104CA00000000000563600000008142241000014E5
:104CB00014141414000041221408000201510906C2
:104CC00000324959513E007C1211127C007F494943
:104CD0004936003E41414122007F4141221C007F74
:104CE00049494941007F09090901003E4149497A82
:104CF000007F0808087F0000417F410000204041FC
:104D00003F01007F08142241007F40404040007F67
:104D1000020C027F007F0408107F003E4141413EAB
:104D2000007F09090906003E4151215E007F0919F3
:104D300029460046494949310001017F0101003FF0
:104D40004040403F001F2040201F003F4038403F70
:104D500000631408146300070870080700615149D4
:104D6000454300007F41410000552A552A55000067
:104D700041417F00000402010204004040404040E5
:104D8000000001020400002054545478007F48447D
:104D9000443800384444442000384444487F0038B4
:104DA0005454541800087E0901020018A4A4A47CDD
:104DB000007F080404780000447D400000408084A7
:104DC0007D00007F102844000000417F4000007CEF
:104DD00004180478007C08040478003844444438FB
:104DE00000FC242424180018242418FC007C080447
:104DF000040800485454542000043F444020003C20
:104E00004040207C001C2040201C003C4030403CA6
:104E1000004428102844001CA0A0A07C0044645436
:104E20004C4414141414141400000000000000007A
:104E30000000000000000000000000F8000000007A
:104E4000000000333000000000100C06100C0600BB
:104E5000000000000000000040C07840C078400022
:104E6000043F04043F040400007088FC0830000084
:104E7000001820FF211E0000F008F000E0180000DC
:104E800000211C031E211E0000F008887000000095
:104E90001E2123241927211010160E0000000000E7
:104EA0000000000000000000000000E01804020004
:104EB000000000071820400000020418E000000075
:104EC0000040201807000000404080F08040400073
:104ED0000202010F01020200000000F000000000C9
:104EE0000101011F0101010000000000000000009D
:104EF00080B0700000000000000000000000000012
:104F0000000101010101010100000000000000009A
:104F10000030300000000000000000008060180435
:104F2000006018060100000000E010080810E00012
:104F3000000F102020100F00001010F800000000DB
:104F40000020203F20200000007008080888700022
:104F500000302824222130000030088888483000A2
:104F60000018202020110E000000C02010F80000C2
:104F700000070424243F240000F80888880808005B
:104F80000019212020110E0000E010888818000070
:104F9000000F112020110E0000380808C838080042
:104FA0000000003F000000000070880808887000C2
:104FB000001C222121221C0000E010080810E00043
:104FC0000000312222110F00000000C0C0000000CC
:104FD00000000030300000000000008000000000F1
:104FE00000008060000000000000804020100800E9
:104FF00000010204081020004040404040404000B2
:10500000040404040404040000081020408000008C
:105010000020100804020100007048080808F00091
:105020000000003036010000C030C828E810E00061
:105030000718272423140B000000C038E0000000EC
:10504000203C23020227382008F888888870000056
:10505000203F202020110E00C0300808080838002A
:10506000071820202010080008F808080810E000A1
:10507000203F202020100F0008F88888E808100042
:10508000203F20202320180008F88888E808100016
:10509000203F200003000000C0300808083800004E
:1050A00007182020221E020008F808000008F8084F
:1050B000203F210101213F20000808F808080000D6
:1050C0000020203F2020000000000808F808080009
:1050D000C08080807F00000008F888C02818080081
:1050E000203F20012638200008F8080000000000BA
:1050F000203F20202020300008F8F800F8F80800B1
:10510000203F003F003F200008F830C00008F808AA
:10511000203F200007183F00E01008080810E000BA
:105120000F10202020100F0008F808080808F000D1
:10513000203F210101010000E01008080810E000F4
:105140000F18242438504F0008F888888888700089
:10515000203F2000030C3020007088080808380029
:105160000038202121221C00180808F8080818001F
:105170000000203F2000000008F808000008F808A0
:10518000001F202020201F000878880000C8380851
:10519000000007380E010000F80800F80008F800C9
:1051A000033C0700073C0300081868808068180863
:1051B00020302C03032C30200838C800C8380800E1
:1051C0000000203F2000000010080808C838080030
:1051D0002038262120201800000000FE02020200D4
:1051E0000000007F40404000000C30C00000000084
:1051F000000000010638C00000020202FE000000AC
:10520000004040407F000000000004020202040051
:10521000000000000000000000000000000000008E
:105220008080808080808080000202040000000076
:10523000000000000000000000008080808000006E
:105240000019242222223F2008F80080800000005C
:10525000003F112020110E0000000080808000001F
:10526000000E112020201100000000808088F8002E
:10527000000E112020103F20000080808080000060
:10528000001F222222221300008080F088888818C4
:105290000020203F202000000000808080808000CF
:1052A000006B94949493600008F800808080000064
:1052B000203F210000203F2000809898000000003F
:1052C0000020203F2020000000000080989800006F
:1052D00000C08080807F000008F80000808080008F
:1052E000203F24022D302000000808F800000000B4
:1052F0000020203F2020000080808080808080006F
:10530000203F20003F20003F808000808080000000
:10531000203F210000203F2000008080808000008E
:10532000001F202020201F008080008080000000BF
:1053300080FFA12020110E000000008080808000EE
:10534000000E112020A0FF808080800080808000DF
:1053500020203F212000010000008080808080000C
:105360000033242424241900008080E08080000081
:105370000000001F202000008080000000808000CE
:10538000001F202020103F2080808000008080802F
:1053900000010E30080601008080008000808080BF
:1053A0000F300C030C300F000080800080808000E4
:1053B0000020312E0E31200080808000008080800F
:1053C00080818E70180601000080808080808000BF
:1053D0000021302C2221300000000000807C0202DD
:1053E00000000000003F404000000000FF000000FF
:1053F00000000000FF0000000002027C80000000AE
:105400000040403F000000000006010102020404C9
:1054100000000000000000004FBB610567ACDD3FED
:10542000182D4454FB21E93F9BF681D20B73EF3FCB
:10543000182D4454FB21F93FE2652F227F2B7A3C43
:10544000075C143326A6813CBDCBF07A8807703CFC
:10545000075C143326A6913CC4EB98999999C9BF6F
:10546000711623FEC671BCBF6D9A74AFF2B0B3BFA4
:105470009AFDDE522DDEADBF2F6C6A2C44B4A2BF64
:105480000D5555555555D53FFF8300922449C23FD0
:105490006E204CC5CD45B73F513DD0A0660DB13F04
:1054A000EB0D76244B7BA93F11DA22E33AAD903F16
:1054B0000000000000000000DDDDDDDDDCBBBBDD49
:1054C000DDDDDDDDDDDDDDDD9888888888888888A4
:1054D00077777777778888888555555666666666C4
:1054E00066666666666888888333333222222222A3
:1054F000222222222228888D185500080000002030
:10550000A8000000743C0008C0550008A800002056
:10551000A0050000843C000801000000100000000D
:10552000000000000024F400000801400100000019
:1055300000080140020000000008014004000000D3
:10554000000C014001000000000C014002000000BE
:10555000000801400800000000000000FFFFFFFFFE
:10556000FFFFFFFF0000000000000000000032000D
:1055700032003200320032003200320032000000CD
:1055800000000000000000000000000000005000CB
:1055900050000000000000000000000000000000BB
:1055A0003200320001000000000000000000000096
:1055B00000000000000000000000000000000000EB
:04000005080000ED02
:00000001FF
