:020000040800F2
:100000001805002005010008FD2800083F1E000813
:10001000D1270008E50F0008B92E000800000000F5
:10002000000000000000000000000000032C000899
:10003000E70F000800000000012C0008052C000854
:100040001F0100081F0100081F0100081F01000810
:100050001F0100081F0100081F0100081F01000800
:100060001F0100081F010008F10F00081F01000810
:100070001F0100081F0100081F0100081F010008E0
:100080001F0100081F0100081F0100081F010008D0
:100090001F0100081F0100081F0100081F010008C0
:1000A0001F0100081F0100081F0100081F010008B0
:1000B0001F0100081F0100081F0100081F010008A0
:1000C0001F0100081F0100081F0100081F01000890
:1000D0001F0100081F0100081F010008AD2E0008C5
:1000E000E90F00081F0100081F010008DFF810D009
:1000F00000F05CFD00480047653D0008AFF300805C
:10010000180500200648804706480047FEE7FEE73E
:10011000FEE7FEE7FEE7FEE7FEE7FEE7FEE7FEE7B7
:10012000652C0008ED000008202A04DB203A21FAA3
:1001300002F00021704721FA02F3D040C2F1200200
:100140009140084319467047D2B201E000F8012BF4
:10015000491EFBD270470022F6E710B513460A4647
:1001600004461946FFF7F0FF204610BD0FB400B556
:100170008DB010A909900B9000914FF0FF300A90BC
:1001800000200C9005480690054807906A4609A88B
:100190000F9900F009FB0DB05DF814FBC5070008CE
:1001A000E30700082DE9FF5F1D464FF0FF3BD5E94F
:1001B000014691465F464FF00008A9697F1C0198EF
:1001C0008847296A824688470028F6D1BAF1FF3F5E
:1001D0000CD024F4C064002E19DD600614D5BAF1E9
:1001E0002B0F09D0BAF12D0F0ED103E0584604B001
:1001F000BDE8F09F44F48064A9697F1C019888479A
:10020000761E8246002E02DDBAF1300F03D0B9F11E
:10021000000F26D032E0A969761E44F400747F1CDA
:10022000019888478246002E05DDBAF1780F06D086
:10023000BAF1580F03D0B9F1000F10D01EE0B9F198
:10024000000F02D0B9F1100F18D1A969761E24F45D
:1002500000747F1C019888478246102002E0082025
:1002600000E00A20814609E008FB0908A969761E1A
:1002700044F400747F1C019888478246002E05DDF7
:100280004946504600F07CFA0028EDDAE969019809
:100290008847A00502D46FF00100A8E7E00725D148
:1002A000600613D5600502D5C8F1000000E04046A5
:1002B00029680A1D2A600968220501D5087015E021
:1002C000220701D5088011E008600FE02868011DB1
:1002D00029600068210502D580F8008006E021072A
:1002E00002D5A0F8008001E0C0F8008038467EE723
:1002F000F0B480EA0102D40F4200B2EB410F02D207
:100300000246084611464A0042D0C30DDDB2C1F391
:10031000C752AD1A202D35DAC1F3160141F400029F
:1003200004B15242C5F1200602FA06F12A411044F6
:10033000B3EBD05F23D0C4B1012DA0EBC35009DCD7
:10034000F0BC4FF0004202EAC352DBB200F50000FD
:1003500000F061BA400000F1807000EBC350A0F1E2
:10036000807040EAD170490009E0490841EAC07153
:10037000A0EBC35000F50000400800EBC350F0BCF8
:1003800000F040BA6142012202EB4101001BF6E796
:10039000F0BC704781F00041AAE780F00040A7E779
:1003A00080EA010210B502F00043400022D04A006A
:1003B0001FD0010E01EB1261C0F35600C2F35602CA
:1003C00040F4000042F40002A0FB022000047F3948
:1003D000140400D0401C50EA124001D44000491ED1
:1003E000C2B20C0604EBD010401C4008802A02D098
:1003F00003E0002010BD20F00100002900DA0020F9
:10040000184310BD30B480EA010202F0004530F01C
:10041000004221F0004013D090B1C30DD40DC2F3BF
:100420001601C0F31600E41A41F4000140F4000282
:100430007D34914201D3641C00E04900002C02DAB3
:1004400030BC002070474FF400000023914201D3DC
:10045000891A034340084FEA4101F7D151B1914253
:1004600002D14FF0004105E002D24FF0010101E05E
:100470006FF0010103EBC450284430BC00F0C2B956
:10048000420005D0C0F3C7525242914201DC002025
:10049000704700EBC15070472DE9FE4F81EA03041D
:1004A00004F0004421F0004100944FF0000B23F0D1
:1004B000004350EA01045ED052EA03045BD0C3F368
:1004C0000A54C1F30A552C44A4F2F3340194A0FB5E
:1004D0000254C1F3130141F48011C3F3130343F435
:1004E000801301FB024400FB034E840A970A44EA8E
:1004F000815447EA8357A4FB076802958D0A05FBE0
:1005000007854FEA932C04FB0C542705029D4FEA04
:10051000065847EA1637B5EB08056EEB070C870E51
:10052000920E47EA811742EA8312A7FB0201B6EB5B
:100530000B0164EB00042B0D43EA0C335E1844EB13
:100540001C50DA465146E7FB0201C5F313044FEA9B
:100550000B3343EA14534FEA0432019C43EA060387
:10056000A4F10C040294009CCDE900B400F090F9D1
:1005700003B0BDE8F08F00200146F9E72DE9F04D0A
:1005800081EA030404F0004B21F0004514464FF0CB
:10059000000A23F0004150EA050220D054EA01028B
:1005A0001DD0C5F30A570246C5F31303C1F3130068
:1005B000C1F30A5640F4801543F48013A7EB0608F4
:1005C000101BD64608F2FD3873EB050002D308F184
:1005D000010801E092185B41B8F1000F03DA002036
:1005E0000146BDE8F08D00204FF480110646844698
:1005F0000EE0171B73EB050705D3121B63EB050316
:1006000006434CEA010C49084FEA300092185B415E
:1006100050EA0107EDD152EA030012D082EA040049
:1006200083EA0501084305D0101BAB4106D2012225
:10063000002306E000224FF0004302E06FF00102C9
:1006400053101AEB06004CEB085110EB0A0041EB7B
:100650000B01BDE8F04D00F00CB9C10F80EAE0706D
:100660000844CA079623002100F0D5B820F00040C6
:10067000C10DC0F3160040F400007F2901DA00200C
:100680007047962903DCC1F19601C840704796393E
:100690008840704700F0004230F000400AD0C10DA1
:1006A00001F56071C0F3160042EA0151C20840072B
:1006B0001143704700200146704701F0004330B4F9
:1006C00021F0004150EA010206D00A0DA2F5607245
:1006D000C1F31301002A02DC30BC00207047440F34
:1006E00044EAC104C100E01830BC00EBC25000F085
:1006F00089B830B50B46014600202022012409E0CC
:1007000021FA02F59D4205D303FA02F5491B04FACA
:1007100002F52844151EA2F10102F1DC30BD2DE9DD
:10072000F05F0546002092469B4688460646814675
:1007300040241BE02846414647462246FFF7F4FC8A
:1007400053465A46C01A914110D3114618462246C4
:1007500000F03EFA2D1A67EB01084F4622460120B1
:10076000002100F035FA17EB00094E41201EA4F1DC
:100770000104DFDC484631462A464346BDE8F09F87
:100780003A2800D2303820F02002412A01D3A2F1C9
:100790003700884201D34FF0FF30704702681144A0
:1007A0001378016018467047D160044951610449CB
:1007B000116200211161114600F030BA9D07000856
:1007C000130C0008426842B1016811F8013B23B1E3
:1007D000521EC0E90012184670470121C160881EF0
:1007E000704742685AB1C368016843B983688B4255
:1007F00005D0491E521CC0E90012002070474FF07E
:10080000FF3070470029A8BF7047401C490008BF4F
:1008100020F00100704710B4B0FA80FC00FA0CF030
:1008200050EA010404BF10BC704749B1CCF1200468
:1008300021FA04F411FA0CF118BF012121430843F5
:10084000A3EB0C01CB1D4FEA00614FEA102042BF21
:10085000002010BC704700EBC35010440029A4BF17
:1008600010BC7047401C490008BF20F0010010BCBC
:10087000704710B5141E73F1000408DA401C41F1F2
:10088000000192185B411A4301D120F0010010BD14
:100890002DE9F04D92469B4611B1B1FA81F202E08A
:1008A000B0FA80F22032904600F092F904460F46EA
:1008B00040EA0A0041EA0B0153465A46084313D066
:1008C000114653EA010019D0C8F140025046FFF723
:1008D0002BFC05460E4650465946424600F078F934
:1008E000084305D0012004E020463946BDE8F08DDC
:1008F0000020054346EAE0762C4337430A98630517
:10090000E40AA0EB08000022FD0A44EA47540A303A
:1009100002D500200146E9E7010510196941DDE92A
:10092000084500196941BDE8F04DA2E72DE9FE4FE9
:10093000804681EA0300C00F0C46009021F0004180
:1009400023F00045B8EB0200A94105D240462146FC
:1009500090461C460B46024623F00040104347D009
:10096000270DC7F30A00C3F30A510290401A019001
:1009700040286BDAC3F3130040F4801B00989246C2
:1009800020B10023D2EB030A63EB0B0B019859460D
:10099000C0F14002504600F01BF906460D46504695
:1009A0005946019A00F023F910EB08006141002438
:1009B00087EA115284EAE7731A4340D0009A62B37F
:1009C000019A012A4FEA075215DC001B61EB020174
:1009D0004FF0004202EA0752CDE90042001C41F507
:1009E000801132462B46FFF753FF03B0BDE8F08F6E
:1009F00040462146F9E7001B61EB0201001C41F56E
:100A0000801300185B412018A2F5001747EB030183
:100A100040EAD570B6196D4111E06D084FEA36060F
:100A200045EAC0754FEA0752001B61EB0201001C4A
:100A300041F5801149084FEA300000195141324612
:100A40002B4603B0BDE8F04FFFF713BF009801221B
:100A500040000023D0EB020263EBE07300982146D4
:100A60004FEAE074B8EB000061EB0401E9E783F0C2
:100A700000435BE781F0004158E72DE9F04D00238A
:100A80001A461B1A8A4103DB00200146BDE8F08D9F
:100A9000C1F30A52C1F3130141F480154FF0000B6A
:100AA000D10702D100186D41521E0027044640F2C2
:100AB000FF11384601EB620A3E468046024600209E
:100AC0004FF48011FFF730FBC2197141BB1846EBA0
:100AD0000100B4EB030C75EB000C04D3E41A65EBD6
:100AE000000517460E46241908F101006D418046A5
:100AF0003428E3DDF91946EB0600091BA84103D2AF
:100B00004FF0FF32134601E0002213461BEB0700B3
:100B100046EB0A51BDE8F04DFFF7ABBEC1F30A52F8
:100B2000C1F3130140F2FF3341F480119A4202DA1B
:100B300000200146704740F233439A42A2F233420A
:100B400002DC5242FFF7F0BA00F042B830B5041EA2
:100B500071F1000404DB4FF00044404264EB0101FA
:100B6000141E73F1000405DB1C464FF00043524293
:100B700063EB04038B4208BF824230BD30B5041ED4
:100B800071F1000404DB4FF00044404264EB0101CA
:100B9000141E73F1000405DB1C464FF00043524263
:100BA00063EB0403994208BF904230BD064C074DE9
:100BB00006E0E06840F0010394E80700984710342D
:100BC000AC42F6D3FFF796FA084900082849000816
:100BD000202A04DB203A00FA02F1002070479140FD
:100BE000C2F1200320FA03F3194390407047202AF2
:100BF00006DBCB17203A41FA02F043EAE07306E045
:100C000041FA02F3D040C2F1200291400843194654
:100C10007047C0B24FF4F05100F0B0B92DE9F34F76
:100C20008BB04FF0000801F10C000C464FF0010BA7
:100C300046460DF1080A019062690121019890472A
:100C4000051E2DD0252D2CD0216A8847C0B16269A0
:100C5000012101989047216A88470028F7D1411E59
:100C600062690198904700E0761CA1690B9888475B
:100C7000216A88470028F7D1E1690B988847DBE7AC
:100C8000A1690B9888470746A84201D1761CD3E793
:100C9000E1690B9888477F1C02D1B8F1000F6FD033
:100CA00047E1002762693D463946019890472A2866
:100CB00004D162690121019890470125DFF88892EB
:100CC0006269012101989047A0F130010A290AD2F6
:100CD0004F45E5DC07EB870100EB4107303FDFD4F0
:100CE00045F01005ECE7E90601D46FF000476C28E9
:100CF0000AD04C2814D0682815D06A280DD0742842
:100D00001CD07A281AD01DE0626901210198904711
:100D10006C2802D045F0040514E045F002050DE012
:100D200045F020050AE06269012101989047682892
:100D300002D045F0080505E045F40065626901212F
:100D400001989047C4E9015765283DD019DC58281F
:100D50007AD00CDC452837D004DC252826D0412861
:100D600031D131E046282FD047282CD12CE05B2808
:100D700077D0612828D063287CD0642823D15AE01A
:100D8000D1E06F2848D008DC66281DD067281BD02A
:100D9000692821D06E2816D127E0702845D0732805
:100DA00068D0752847D078280DD14DE0A1690B98FF
:100DB0008847054625283FF469AFE1690B988847C5
:100DC0006D1C3FF46AAFB4E023466A466FF0010041
:100DD0000B99AFF300809FE045F040006060A807EA
:100DE00023464FF0000236D43EE0E8077FF447AFD9
:100DF0002068011D21600068290501D506701BE7E8
:100E0000290701D5068017E7A90703D5F117C0E91F
:100E1000006111E706600FE745F040006060A80739
:100E200023464FF0080216D41EE040F60E0125EAD4
:100E30000100606016E045F040006060A8072346AE
:100E40004FF00A0207D40FE045F040006060A807A9
:100E500008D5234610226FF001000B99AFF30080F4
:100E60005AE007E0234610226FF001000B99FFF7CC
:100E700099F951E04FF000094F464B46632802D0E4
:100E80005B2807D041E02079C00601D40120A06092
:100E900001273AE062690121019890475E2805D157
:100EA0004FF001096269494601989047216939B9B3
:100EB00000210A46534643F82120491C0829FADB41
:100EC000B0B3216969B9C11700EBD16253110AEBC4
:100ED000830122F01F02821A01200B689040034315
:100EE0000B6062690121019890475D28E8D1B9F152
:100EF000000F09D00020514651F82020D24341F87C
:100F00002020401C0828F7DB02AB224600976FF038
:100F100001000B99AFF3008000280CDA401C08D1C7
:100F2000BBF1000F05D04FF0FF300DB0BDE8F08FE2
:100F3000FFE74046F9E7E90701D108F10108064457
:100F40004FF0000B78E60000CCCCCC0C70B521F053
:100F5000004303430CD0C1F30A550024D5EB04052C
:100F600064EB0403D617AD1AB34102DB002001463F
:100F700070BD201841EB025170BD00007F2801D9DF
:100F8000002208E0064A02EB5002C007127800D1A6
:100F9000120902F00F020120904008407047000043
:100FA000C84800086421484340F6FF71B0FBF1F0E7
:100FB000642800D96420C0B2704700000849086066
:100FC00007482C38016841F00101016004483438B9
:100FD00001688907FCD502481830006880B2704764
:100FE00034240140FEE770474FF4805000F0A8B869
:100FF000102000F0A5B872B6FEE70000074A12788C
:1010000021F812000022104631F81030401C1A441A
:101010000428F9DBC2F38F007047000010000020A5
:1010200010B590F821100022022905D00421816317
:1010300080F82020012010BD01680B6823F00E030A
:101040000B6001680B6823F001030B6090F84030DF
:10105000012404FA03F1C36B596080F8214080F841
:101060002020104610BD000010B590F8211000247B
:10107000022903D00421816301243DE001680A684C
:1010800022F00E020A6001680A6822F001020A607A
:101090001A4A0168914201D1012121E0174A143214
:1010A000914201D110211BE0144A2832914201D112
:1010B000891515E0114A3C32914201D189140FE0A3
:1010C0000E4A5032914202D14FF4803108E00B4A6F
:1010D0006432914202D14FF4801101E04FF08071EF
:1010E000064A083A5160012180F82110002180F859
:1010F0002010416B01B18847204610BD0800024016
:1011000070B5044600F020F90546601C02D0044882
:101110000078044400F018F9401BA042FAD370BDD7
:1011200000000020054A4FF40051102802D0B0F50D
:10113000805F02D1104600F0FAB8704700100140FD
:10114000044910B50A68024202D00860FFF7EAFFBE
:1011500010BD0000140401402DE9F84FDFF8A49100
:10116000002409F1040A0AF1040B23464FF00F088A
:101170000BF1040EBEE00127A7403A40BA4272D1FB
:10118000DFF884C14D68A5EB0C0665452BD00DDC5E
:10119000032D34D005DC35B3012D19D0022D2FD10C
:1011A0001BE0112D16D0122D2AD119E0B6F5881F9B
:1011B00019D006DCB6F5803F15D0B6F5801F1FD1DB
:1011C00011E0B6F5001F0ED0B6F5041F18D10AE0E5
:1011D000CB6815E0CB681B1D12E0CB6808330FE02D
:1011E000CB680C330CE08B682BB1012B4FF008035C
:1011F00003D0476104E0042302E0076100E000231C
:10120000FF2A01D8064601E000F104064FEA8405F2
:1012100001D9A5F12005376808FA05FC27EA0C0773
:1012200003FA05F547EA050737604D68ED0060D51C
:10123000364DAE6946F00106AE61AD6924F0030695
:1012400005F001050095324D7719BE68A5072D0FF1
:1012500008FA05FC26EA0C06DFF8B8C0604503D1A1
:101260004FF0000C17E044E0DFF8ACC0604502D15D
:101270004FF0010C0FE0DFF8A4C0604502D14FF041
:10128000020C08E0DFF898C0604502D14FF0030C73
:1012900001E04FF0040C0CFA05FC4CEA060CC7F810
:1012A00008C04D68D9F80060ED034D4601D51643DE
:1012B00000E096432E604D68DAF80060AD035546B5
:1012C00001D5164300E096432E604D68DBF80060C0
:1012D000ED025D4601D5164300E096432E604D6851
:1012E000DEF80060AD02754601D5164300E0964376
:1012F0002E60641C0A6832FA04F57FF43CAFBDE846
:10130000F88F00000004014000001110001002409E
:101310000000014000080140000C014000100140A5
:10132000001401408068084000D001207047C26866
:1013300021EA02030A4043EA0241016170470AB10F
:10134000016170470904FBE70148806870470000AD
:1013500000000020024881680278114481607047D3
:1013600000000020074810B5016841F0100101603D
:10137000032000F075F80F2000F006F800F024F8C4
:10138000002010BD0020024070B50D4D04464FF402
:101390007A712878B1FBF0F00A490968B1FBF0F0E6
:1013A00000F0EEFA48B9102C07D200222146501E58
:1013B00000F036F800206C6070BD012070BD0000A8
:1013C000000000200C0000200C4808B5816941F0A5
:1013D00001018161816901F001010091C16941F060
:1013E0008051C161C069064900F080500090486892
:1013F00020F0E06040F00070486008BD001002403E
:1014000000000140002809DB00F01F02012191408B
:101410004009800000F1E020C0F800117047000092
:10142000F0B40E4B1B68C3F30223C3F10704042C72
:1014300000D904241D1D072D01D2002300E0DB1E6E
:10144000012606FA04F56D1E0D409D409E40761E55
:10145000164045EA0601F0BC01F0C8BD0CED00E005
:10146000064A00F0070110684FF6FF03184040EAF3
:101470000120034908431060704700000CED00E0B4
:101480000000FA052DE9F0470D46040067D0DFF8AB
:101490001881D8F8000000F00700A8420CD2D8F854
:1014A000001021F007012943C8F80010D8F8000007
:1014B00000F00700A84252D120683C4E810712D5A7
:1014C000400703D5706840F4E06070602078000742
:1014D00003D5706840F4605070607068A16820F0B7
:1014E000F000084370602078C00727D060680128AA
:1014F00010D03168022810D0890700292FDA7168CE
:1015000021F0030101437160FFF71EFF074641F21E
:1015100088390CE031688903EFE78901EDE7FFF7CF
:1015200013FFC11B494502D90320BDE8F08770684D
:10153000616800F00C00B0EB810FF0D1D8F800101A
:10154000404601F00701A9420BD9016821F00701CB
:1015500029430160006800F00700A84201D0012083
:10156000E3E72078400705D57068E16820F4E06083
:10157000084370602078000706D57068216920F460
:10158000605040EAC100706000F038F87168084AA5
:10159000C1F30311515CC840064908600648006861
:1015A000FFF7F2FE0020C0E70020024000100240DA
:1015B000F43F00080C000020040000200448054906
:1015C00000684968044AC1F30221515CC840704771
:1015D0000C000020001002400440000804480549A7
:1015E00000684968044AC1F3C221515CC840704791
:1015F0000C000020001002400440000812A085B03A
:101600000FC88DE80F0014A0144B006804905968AF
:10161000134801F00C02042A10D0082A0ED1C1F39D
:101620008342C9031DF802000AD5596804AAC1F310
:101630004041515C0A4A5043B0FBF1F005B070479D
:1016400008494843FAE700000203040506070809B1
:101650000A0B0C0D0E0F10100102000000100240CA
:1016600000127A0000093D002DE9F84F04006FD008
:101670002078BE4DC00747D06868C0F381000128BC
:1016800007D06868C0F38100022809D16868C003E8
:1016900006D52868800337D560680028E7D033E096
:1016A0006068B0F5803F0BD010B1B0F5A02F11D01D
:1016B000286820F480302860286820F4802002E028
:1016C000286840F480302860606888B1FFF73CFEED
:1016D000064609E0286840F480202860F0E7FFF71C
:1016E00033FE801B642873D828688003F7D50BE08D
:1016F000FFF72AFE064604E0FFF726FE801B64285B
:10170000F1D828688003F7D42078DFF86482800756
:101710004FF0010A4FF0000939D5686810F00C0F3E
:1017200007D06868C0F38100022809D16868C00347
:1017300006D42868800714D52069012808D110E054
:101740002069B0B1C8F800A0FFF7FEFD064605E02D
:1017500007E1FFF7F9FD801B0228C4D8286880073D
:10176000F7D52868616920F0F80040EAC1002860D8
:101770000DE0C8F80090FFF7E7FD064604E0FFF72C
:10178000E3FD801B022823D828688007F7D420783F
:1017900000072CD57748A169D9B1C0F800A0FFF7A0
:1017A000D3FD064604E0FFF7CFFD801B02280FD8CB
:1017B000686A8007F7D570484FF4FA510068B0FBAB
:1017C000F1F0009000BF0098411E0091FAD20EE0A7
:1017D0007CE0C0F80090FFF7B7FD064604E0FFF795
:1017E000B3FD801B022871D8686A8007F7D420787F
:1017F00040075BD5E8690027C00008D4E86940F0DD
:101800008050E861E869012700F0805000905B4853
:101810000168C90511D40168834641F480710160F3
:10182000FFF792FD064604E0FFF78EFD801B64285B
:101830004CD8DBF80000C005F6D5E06801280AD0D6
:1018400008B1052813D0286A20F001002862286A10
:1018500020F0040002E0286A40F001002862E068FD
:1018600041F2883B88B1FFF76FFD064609E0286A20
:1018700040F004002862EEE7FFF766FD811B594542
:101880005BD8286A8007F7D50BE0FFF75DFD0646B9
:1018900004E0FFF759FD811B59454ED8286A80079F
:1018A000F7D41FB1E86920F08050E861E069A8B37F
:1018B0006968C1F38101022946D00228484606D052
:1018C000C8F86000FFF740FD044639E035E04746C0
:1018D000C8F86000FFF738FD064604E0FFF734FD66
:1018E000801B022829D828688001F7D4206AB0F527
:1018F000803F05D16868A16820F400300843686023
:10190000D4E908010843696821F474110843686048
:10191000C7F860A0FFF718FD044605E023E0FFF7D5
:1019200013FD001B022808D828688001F7D51AE0AB
:10193000FFF70AFD001B022802D90320BDE8F88F3B
:1019400028688001F4D40EE00128F7D06868226A84
:1019500000F48031914204D1616A00F47010884231
:1019600001D00120EAE70020E8E700000010024073
:1019700000004242800442420C00002000700040FF
:1019800010B5401EB0F1807F01D3012010BD4FF093
:10199000E02460610F21601701F028FB0020A061A6
:1019A00007202061002010BD70477047F8B502681D
:1019B00004461068D168536910F00F0F4FF000050E
:1019C00053D003F0010601F4907737435FD0C2078C
:1019D00005D0CA0503D5226C42F0010222644207F9
:1019E00005D5DA0703D0226C42F002022264820796
:1019F00005D5DA0703D0226C42F004022264020704
:101A000007D501F02002324303D0226C42F00802D5
:101A10002264226C002A34D0800604D5880602D5C0
:101A2000204601F040F920684069216CC0F3801025
:101A3000090700D430B3204601F01DF92068416940
:101A400049061BD5416921F040014161A06BA8B155
:101A500058494163A06BFFF707FB002811D0A06B2A
:101A6000416B01B0BDE8F040084783060FD58B06F7
:101A70000DD52046BDE8F84001F015B92046FFF726
:101A800094FFF8BD2046FFF790FF2564F8BD266B54
:101A90002023012E52D1C60650D5CE064ED5106851
:101AA00050680090506940062AD5A16B08684068CC
:101AB0000004000CEAD0A68D8642E7D9E08588694B
:101AC000202818D0D06820F48070D0602068416948
:101AD00021F0010141612068416921F0400141612B
:101AE00084F83E3025632068C16821F01001C16090
:101AF000A06BFFF795FAA08DE18D401A81B219E035
:101B0000A08DE18D401A81B2E08D0028BED0002961
:101B1000BCD0D06820F49070D0602068426922F078
:101B20000102426184F83E3025632068C26822F0D9
:101B30001002C2602046FFF737FFF8BD05062BD51F
:101B40000D0629D594F83D002128F6D1A068B0F5FE
:101B5000805F01D12069B0B1206A411C21622168F7
:101B600000784860E08C401E0004000CE084E4D162
:101B70002068C16821F08001C1602068C16841F01F
:101B80004001C160F8BD206A0088C0F308005060C1
:101B9000206A801C2062E5E74006F3D54806F1D5AF
:101BA000D168204621F04001D16084F83D3000F03A
:101BB00045F9F8BD672C000870B5040004D094F80E
:101BC0003D00002510B106E0012070BD84F83C50B6
:101BD000204600F023F8242084F83D002068C168E6
:101BE00021F40051C160204601F0B8F82068016975
:101BF00021F4904101612068416921F02A0141618D
:101C00002068C16841F40051C1602564202084F837
:101C10003D0084F83E00002070BD000070B586B025
:101C20000024009401940294039401682648254EF0
:101C3000022203230515B1421ED1816941F480417E
:101C40008161816901F480410491816941F004015D
:101C5000816180691D4E00F0040004901002CDE9FE
:101C60000002694603933046FFF776FACDE9005447
:101C700069463046029421E0154EB14220D1C16937
:101C800041F48021C161C16901F48021049181691D
:101C900041F0080181618069CDE9005200F008003F
:101CA000CDE903300B4D69462846FFF755FAE91494
:101CB000CDE900140120029069462846FFF74CFA4E
:101CC00006B070BD0038014000100240000801401D
:101CD00000480040000C014090F83E30202B0ED10F
:101CE00059B152B190F83C30012B08D0012380F853
:101CF0003C300023036301F08DB8012070470220BF
:101D00007047000010B500681C49884234D11C4A55
:101D100001241079517839B10023012908D0022912
:101D200010D0032918D123E0AA2819D1547017E044
:101D3000552811D102205070137040211148FEF730
:101D40000AFA0DE00D2809D00E4C11786054491C98
:101D5000C8B210703F2803D3537001E003205070C5
:101D600007490122BDE81040091D0748FFF7B4BF2D
:101D70000A28F1D19470EFE710BD00000048004040
:101D800030000020D8000020940000202DE9F84306
:101D9000044690F83D001F4615460E4620284BD1BC
:101DA000C6B1BDB194F83C00012845D0012084F8AB
:101DB0003C004FF00008C4F84080212084F83D002A
:101DC000FFF7C2FAA5848146E584A068B0F5805F7C
:101DD00003D004E00120BDE8F883206920B1354636
:101DE000002684F83C800EE00025FAE7802120469A
:101DF00001F02BF8A0B9ADB115F8010B21684860CE
:101E0000E08C401EE084E08C4B464FF000020097CF
:101E10000028EBD14FF04001204601F016F830B118
:101E20000320D8E736F8020BC0F30800E6E72020CD
:101E300084F83D000020CEE70220CCE77047FEE7A3
:101E400008B50020009000BF401C00900A28FAD37B
:101E500008BD00002DE9F0411E4E07460024012276
:101E600080213046FFF76BFA00256006040E012240
:101E700040213046FFF763FAFFF7E2FF802130464A
:101E8000FFF750FA08B144F0010400224021304627
:101E9000FFF755FAFFF7D4FF6D1CEDB2082DE4D320
:101EA0000FB1002200E0012280213046FFF747FAFF
:101EB000FFF7C6FF012240213046FFF740FAFFF747
:101EC000BFFF002240213046FFF739FA2046BDE827
:101ED000F0810000000C014070B51D4E0546002445
:101EE000280601D5012200E0002280213046FFF7BC
:101EF00026FAFFF7A5FF012240213046FFF71FFA1F
:101F0000FFF79EFF002240213046FFF718FA6806CF
:101F1000641C050EE4B2082CE2D301228021304675
:101F2000FFF70DFAFFF78CFF012240213046FFF743
:101F300006FAFFF785FF80213046FFF7F3F90446E4
:101F4000002240213046FFF7FAF9204670BD00001C
:101F5000000C014010B50E4C012280212046FFF7F5
:101F6000EEF9012240212046FFF7E9F9FFF768FF6B
:101F7000002280212046FFF7E2F9FFF761FF0022EF
:101F800040212046FFF7DBF9BDE81040FFF758BFBE
:101F9000000C014010B50B4C002280212046FFF7B9
:101FA000CEF9012240212046FFF7C9F9FFF748FF8B
:101FB000012280212046FFF7C2F9BDE81040FFF75B
:101FC0003FBF0000000C01402DE9F04101220C4D03
:101FD000D40321462846FFF7B2F90122094F160320
:101FE00031463846FFF7ABF9002231463846FFF755
:101FF000A6F921462846BDE8F0410022FFF79FB927
:1020000000080140000C014070B50122D1030948CD
:10201000FFF795F9084D4FF48054002221462846D9
:10202000FFF78DF921462846BDE870400122FFF7F1
:1020300086B9000000080140000C014070B5012283
:10204000064DD40321462846FFF779F92146284654
:10205000BDE870400022FFF772B90000000801409F
:1020600080210148FFF75EB9000801402DE9F041E9
:1020700005460C460420FEF7A1FF06460520FEF7A4
:102080009DFF07463046FEF78DFF28803846FEF755
:1020900089FF208028880949FEF7B0FF074928807A
:1020A00020880831FEF7AAFF20800448801E0178AE
:1020B000491C01F003010170BDE8F081120000200D
:1020C00010B500F063FB012206490748FFF704FE44
:1020D000FFF73AF90349091F4861BDE8104003A022
:1020E00000F04CBF34000020940000204B3233300D
:1020F000CAD3BEF5C4A3BFE9B3F5CABCBBAFCDEA32
:10210000B3C90D0A0000000070B5084C0025A07886
:1021100018B1074800F0FEFCA570FFF715F96169DA
:10212000401AB0F5FA7F00D9E57070BD300000208C
:10213000D80000202DE9FC5F0446B0F90000FEF74E
:102140008CFA6FF00D052946FEF79AF90746B4F9A7
:102150000200FEF782FA2946FEF792F98146B4F9A9
:102160000400FEF77AFA2946FEF78AF98046B4F9A8
:102170000600FEF772FA5F4D2946FEF743F901901B
:10218000B4F90800FEF769FA2946FEF73BF98346E1
:10219000B4F90A00FEF761FA2946FEF733F9414621
:1021A00000900846FEF7FCF8054639460846FEF75B
:1021B000F7F82946FEF79CF8FEF76CFA01F0F4FEFA
:1021C00005460E464846FEF765FA2A46334601F0B4
:1021D000EFFCDFF8249100224B46FEF75DF94FF04B
:1021E000C042464BFEF7CAF9FEF767FA8246404600
:1021F000FEF750FA05460E4687F00040FEF74AFA11
:102200002A46334601F0D4FC00224B46FEF744F93F
:102210004FF0C042394BFEF7B1F9FEF74EFA384F96
:10222000814639465846FEF7BBF8364D2968FEF719
:102230005FF8064639460198FEF7B2F86968FEF77E
:1022400057F8804639460098FEF7AAF8A968FEF7C5
:102250004FF8DFF8B4B00746A86059465046FEF77D
:102260009FF8DFF8A8A0009051463046FEF798F896
:102270000099FEF73DF80646286059464846FEF7A5
:102280008FF8814651464046FEF78AF84946FEF7E8
:102290002FF81F4968608E4202DC1E498E4200D929
:1022A0002960DFF87480DFF87490404503DD49460B
:1022B000FEF770F868601A4EB04203D94946FEF73F
:1022C00017F86860474501DCA86804E049463846CD
:1022D000FEF760F8A860B04203D94946FEF708F857
:1022E000A8602868206168686061A868A061BDE88E
:1022F000FC9F00000000034300806640FB21094072
:10230000CDCCCC3D2400002000D7A33C48E17A3F4F
:102310000000B4420000B4C2000034430000B443E3
:10232000000034C310B5044686B00069FEF7B2F968
:1023300002460B461CA1684600F030FE0021102327
:102340006A46084600F0C4FB6069FEF7A3F902463E
:102350000B461AA1684600F021FE10236A460221AE
:10236000002000F0B5FBA069FEF794F902460B4689
:1023700017A1684600F012FE10236A4604210020CF
:1023800000F0A6FBE068FEF785F902460B4615A1B2
:10239000684600F003FE10236A460621002000F084
:1023A00097FB06B010BD000050697463683A252B96
:1023B000372E31662020202020200000526F6C6CC8
:1023C000203A252B372E31662020202020200000A7
:1023D00059617720203A252B372E31662020202086
:1023E0002020000054656D70203A25362E3166207D
:1023F000432020202020000030B5234885B0002451
:10240000816941F0080181618069204D00F0080078
:102410000490C02000901120019001200290032020
:10242000039069462846FEF797FE01224021284680
:10243000FEF785FF012280212846FEF780FF6420F9
:10244000FEF75EFE80216B2000F095F86420FEF719
:1024500057FE00216B2000F08EF800211B2000F0B9
:102460008AF800211C2000F086F803211A2000F0D1
:1024700082F8074804604460846005B005A0BDE8A8
:10248000304000F07BBD000000100240000C014015
:10249000240000204D505536303530B3F5CABCBB52
:1024A000AFCDEAB3C90D0A001FB504460E22694636
:1024B0003B2000F033F810B1012004B010BDBDF88E
:1024C000000040BA2080BDF8020040BA6080BDF82C
:1024D000040040BAA080BDF8060040BA00B2FEF782
:1024E000BCF80C49FDF78EFF0B49FDF701FFE060DA
:1024F000BDF8080040BAE080BDF80A0040BA20816B
:10250000BDF80C0040BA60812046FFF713FE0020A2
:10251000D3E700000000AA43B81E12422DE9F041A3
:1025200015460F460446FFF715FDD020FFF7D4FCF3
:1025300048B92046FFF7D0FC28B9FFF70BFDD120A2
:10254000FFF7CAFC20B1FFF725FD0120BDE8F081AF
:1025500000246E1E09E0B44201DA012000E00020F0
:10256000FFF778FC3855641CE4B2AC42F3D3FFF7B4
:1025700011FD0020EAE770B50C460546FFF7EAFCBE
:10258000D020FFF7A9FC38B92846FFF7A5FC18B9F9
:102590002046FFF7A1FC18B1FFF7FCFC012070BD3D
:1025A000FFF7F8FC002070BDF0B5214C85B0A069A4
:1025B00040F40070A061A06900F400700490A0696C
:1025C00040F00400A061A069002500F0040002951D
:1025D000CDE90350302000900320164F019069464A
:1025E0003846FEF7B9FD802001268DE86100694676
:1025F0003846FEF7B1FDE06840F40070E060E06846
:1026000020F40070E0600C480560041D2660012085
:10261000FEF776FD206840F0040020602068400747
:10262000FCD405490F200C31086005B0F0BD000056
:102630000010024000080140042401402DE9F04749
:1026400086B000243D48009401940294039481696B
:1026500041F010018161816901F0100104918169EB
:1026600041F020018161816901F0200104918169BB
:1026700041F008018161816901F0080104918169DB
:1026800041F0040181618069DFF8B48000F004004A
:102690004FF400550490002229464046FEF74FFEB5
:1026A0000122DFF8A0A0160331465046FEF747FE90
:1026B0000122DFF89490D70339464846FEF73FFEE3
:1026C00000950125CDE90154022469464046039452
:1026D000FEF742FDCDE90065CDE90254694650465A
:1026E000FEF73AFD19480096CDE9010569464846CE
:1026F000FEF732FDCDE90075CDE902546946484642
:10270000FEF72AFD102000901148CDE9010469462A
:102710005046FEF721FD002211460A20FEF780FEFA
:102720000A20FEF76FFE002211462820FEF778FEF1
:102730002820FEF767FE06B0BDE8F08700100240D3
:1027400000100140000C0140000801400000211071
:10275000000011100C4810B50A4901604FF4E13136
:102760004160002181600C22C160C0E904128161D6
:10277000C161FFF721FA002803D0BDE81040FEF741
:102780003ABC10BD00380140500000200F4810B581
:102790000D4901604FF4E1314160002181600C225C
:1027A000C160C0E904128161C161FFF705FA08B197
:1027B000FEF721FC2720FEF725FE00220521BDE8BB
:1027C00010402720FEF72CBE004800409400002057
:1027D000FEE7000030B585B0002002901648816900
:1027E00041F004018161816901F004010491816972
:1027F00041F0080181618069104D00F008000490EB
:10280000012001900F20032400900394694628467C
:10281000FEF7A2FC69460A480094FEF79DFC0022E0
:1028200004212846FEF78BFD002208212846FEF7EA
:1028300086FD05B030BD00000010024000080140D8
:10284000000C01402DE9F84F14460A46054698460B
:1028500027491046FDF7A4FD4FF07C51FDF748FDD8
:10286000FDF704FF060041D0DFF88890DFF888A06C
:10287000012D22464FF002010CD05046FEF75FFDBD
:102880000027009700BF0098401C00900A28F9DB41
:10289000002429E04846F1E74FF00102012D1146DE
:1028A00018D05046FEF74BFD009700BF0098401C23
:1028B00000900A28F9DB012D4FF000024FF00101D2
:1028C0000AD05046FEF73BFD08EB48008000394631
:1028D000009706E04846E5E74846F3E700BF491C95
:1028E00000918142FAD3641CB442D5D3BDE8F88F7D
:1028F00000409C4600080140000C0140FEE770B516
:102900000025002105F1B00000F0FDF80021084687
:1029100000F0F9F80021102000F0F5F80024012162
:10292000002000F0F0F8641CE4B2802CF7D36D1C9A
:10293000EDB2082DE5D370BD10B54FF44870FEF729
:10294000DFFB0021AE2000F0DEF80021084600F099
:10295000DAF80021102000F0D6F80021402000F025
:10296000D2F80021B02000F0CEF80021812000F044
:10297000CAF80021FF2000F0C6F80021A12000F0D5
:10298000C2F80021A62000F0BEF80021A82000F027
:10299000BAF800213F2000F0B6F80021C82000F06E
:1029A000B2F80021D32000F0AEF80021084600F074
:1029B000AAF80021D52000F0A6F80021802000F020
:1029C000A2F80021D82000F09EF80021052000F098
:1029D0009AF80021D92000F096F80021F12000F0AB
:1029E00092F80021DA2000F08EF80021122000F089
:1029F0008AF80021DB2000F086F80021302000F06A
:102A000082F800218D2000F07EF80021142000F0D3
:102A10007AF80021BDE81040AF2000F074B810B57E
:102A20000A460446002102F1B00000F06CF81020C4
:102A300040EA1410002100F066F804F00F00BDE831
:102A40001040002100F05FB82DE9F041203A002449
:102A50000F468046D5B27F2803D900208F1C8046C0
:102A6000FFB2102B394610D0FFF7D9FF164905EBFE
:102A7000450001EB40050121285D00F044F8641C8D
:102A8000E4B2062CF7D3BDE8F081FFF7C8FF0F4E84
:102A900004EB05100121305C00F035F8641CE4B251
:102AA000082CF5D37F1CF9B24046FFF7B8FF00248D
:102AB00004EB051030440121007A00F024F8641C76
:102AC000E4B2082CF4D3DEE70C40000834420008DE
:102AD0002DE9F041984617460E46044600250DE0C4
:102AE000434631462046FFF7AFFF0834E4B2782C66
:102AF00002D90024B61CF6B26D1CEDB27A5D002A34
:102B0000EED1BDE8F081C0B209B100F020BA00F00A
:102B100007BA000010B51D4B86B09A1E0446911EE0
:102B2000881E8DE80F0005AB04AA19A12046FDF709
:102B30001DFB062805D021461BA000F01FFA06B099
:102B400010BD124CBDF810000C3CE081BDF8140023
:102B500020820120E070FEF7F7FB6061B4F90610F7
:102B6000481C03D1B4F90800401C0AD0B4F90C0089
:102B70000090B4F90A30B4F9082011A000F0FEF971
:102B8000DDE719A000F0FAF9D9E700003C000020C9
:102B90002568642C2568642C2568642C2568642CC1
:102BA0002568642C256864004B323330CAFDBEDDD5
:102BB000BDE2CEF6CAA7B0DC3A2025730D0A0000AC
:102BC0004B323330CAB6B1F0B5BDC4BFB1EA3A201A
:102BD000583D256420593D256420573D25642048F3
:102BE0003D25640D0A0000004B323330A3BACEB449
:102BF000BCECB2E2B5BDC4BFB1EA0D0A00000000F2
:102C000070477047FEF7A6BB30B58FB028216846E5
:102C1000FDF7A1FA14210AA8FDF79DFA012001048D
:102C200000248DE8130004904FF4E010CDE9081063
:102C3000022507956846FEF717FD08B172B6FEE754
:102C40000F20CDE90A054FF48060CDE90C40022148
:102C50000AA80E94FEF716FC002801D072B6FEE713
:102C60000FB030BD704710B5406A0021C185C184E6
:102C7000FEF79BFE10BD0168CA6822F49072CA601C
:102C800001684A6922F001024A61016B012904D1FD
:102C90000168CA6822F01002CA60202180F83E1044
:102CA00000210163704708B590F83E10222901D039
:102CB000022008BD81684FF48053994201D1026916
:102CC00022B1826A99421BD049B10AE00268816A46
:102CD0005268C2F308020A80816A891C08E001690F
:102CE00071B10168496801F07F011170816A491C66
:102CF0008162C18D491E0904090CC18503D019E008
:102D000001684968F1E70168CA6822F02002CA60D8
:102D10000168CA6822F48072CA6001684A6922F0B8
:102D200001024A61202180F83E10016B012903D085
:102D3000FEF7E8FF002008BD002101630168CA68B2
:102D400022F01002CA6001680A68D20602D50A6839
:102D500049680091818DFEF727FEEBE770B50446C8
:102D600000680169E26821F4405111430161A168E2
:102D700020690143606901432068C26841F20C6325
:102D80009A430A43C26020684169A26921F44071F4
:102D9000114341611E492068884202D1FEF71EFCA2
:102DA00001E0FEF70BFC00EBC00101EB00116068D5
:102DB00064228000B1FBF0F3B3FBF2F36FF018066E
:102DC0007343B1FBF0F5B1FBF0F605EB830532235D
:102DD00003EB0515B5FBF2F5B6FBF2F605F0F005D1
:102DE00005EB0615B1FBF0F6B1FBF0F0B0FBF2F02D
:102DF0006FF01801484306EB800003EB0010B0FBB6
:102E0000F2F0216800F00F002844886070BD0000D7
:102E10000038014081628285C2850021016422223E
:102E200080F83E2080F83C100168CA6842F4807245
:102E3000CA6001684A6942F001024A610068C168DB
:102E400041F02001C160002070472DE9F0411E468D
:102E5000174688460446069D1CE0681C1AD025B11A
:102E6000FEF772FA801BA84214D92068C16821F4C9
:102E7000D071C1602068416921F0010141612020C9
:102E800084F83D0084F83E00002084F83C000320D4
:102E9000BDE8F0812068016838EA010004D0002014
:102EA000B842DAD00020F3E70120F9E70148FEF745
:102EB0007DBD000094000020FEE700002DE9F047F2
:102EC000154F04464FF40046002231463846FEF7BF
:102ED00036FADFF8489000254FF4805804F080005F
:102EE000802816D0002241464846FEF728FA6006A0
:102EF000040E012231463846FEF721FA00223146FF
:102F00003846FEF71CFA6D1CEDB2082DE6D3BDE87D
:102F1000F0870122E7E7000000080140000C0140B3
:102F200010B50446FFF750F87820FFF7C7FFFFF70A
:102F300085F80020FFF7C2FFFFF780F82046FFF773
:102F4000BDFFFFF77BF8BDE81040FFF75DB810B597
:102F50000446FFF739F87820FFF7B0FFFFF76EF867
:102F60004020FFF7ABFFFFF769F82046FFF7A6FF09
:102F7000FFF764F8BDE81040FFF746B80FB4054B03
:102F800010B503A9044A029800F07AF910BC5DF864
:102F900014FB00004D3D0008480000200FB4084B12
:102FA00010B504A902AA039800F06AF9044602A920
:102FB000002000F0E8FC204610BC5DF814FB000087
:102FC00087390008490050EAC12018BF04204A0D83
:102FD00018BF40F0010040F2FF72B2EB515F08BF32
:102FE00040F00200012808BF052070470907090EBC
:102FF000002804DB00F1E02080F80014704700F0A6
:103000000F0000F1E02080F8141D70472DE9F04119
:103010004F1E00EBC7010446D1E9000115461E46CC
:1030200037F006020DD02A463346FDF735FA7F1EEB
:1030300004EBC703D3E90023FDF778FC37F0060261
:10304000F1D1022F25D0042F13D0062F18BFBDE8D1
:10305000F0812A463346FDF71FFAD4E90A23FDF72B
:1030600065FC2A463346FDF717FAD4E90823FDF735
:103070005DFC2A463346FDF70FFAD4E90623FDF737
:1030800055FC2A463346FDF707FAD4E90423FDF739
:103090004DFC2A463346FDF7FFF9D4E90223FDF73C
:1030A00045FC2A463346FDF7F7F9D4E90023BDE88D
:1030B000F041FDF73BBC0122FDF748BFFDF736BCF0
:1030C000024A00201107FDF741BF000001FDFFFF8C
:1030D00002E008C8121F08C1002AFAD170477047E1
:1030E000002001E001C1121F002AFBD1704700003F
:1030F00001490860704700004C0000202DE9FF5F87
:1031000082B00021DDE90430020DDDF840B0034358
:1031100018D044F61050A2F2FF3242431514119811
:1031200001281FD0A5EB0B00401C5FEA000A4FF0FE
:1031300000064E4FDFF83891B046504615D5CAF11B
:10314000000413E0119801244AA3012801D16FEA79
:103150000B010298119AC0E90031C0E9024206B0A1
:10316000BDE8F09FCBF10000DFE704460021404AB4
:10317000491842EB0450CDE9001012E0E00707D0F7
:1031800032463B4640464946FDF786F98046894629
:1031900032463B4610461946FDF77EF906460F4675
:1031A0006410002CEAD1DDE90401DDE90023BAF165
:1031B000000F06DAFDF770F942464B46FDF76CF951
:1031C00005E0FDF7DBF942464B46FDF7D7F904462B
:1031D0000E460022284BFDF7D1FC03D84FF0FF30FC
:1031E000014607E00022254B20463146FDF79EFBB5
:1031F000FDF794FC102409E0002C0ADB0A220023CE
:10320000FDF78DFA039B30321A55641E50EA010215
:10321000F2D1641C039AC4F111031444119A012AD7
:1032200003D0012208430DD10AE0084304D0002056
:103230004FF0110B119072E7A3EB0B056D1E0DE023
:103240005B4504DD4FF0000205F1010504E003DAFF
:103250004FF00002A5F10105002AECD00298119967
:10326000C0E90231C0E9004579E7000000001440E0
:103270000000F03F300000000000F0430000E03F9D
:103280002DE9FF4F95B09A46884606460025EEE1A7
:10329000252877D100242746F94A0121039400E02C
:1032A000044316F8013F203B01FA03F01042F7D126
:1032B00030782A2811D06FF02F033078A0F1300237
:1032C000092A16D8039A44F0020402EB820203EBA7
:1032D00042021044761C0390EFE758F8042B039247
:1032E000002A03DA504244F40054039044F00204EC
:1032F000761C30782E2816D116F8010F44F00404FD
:103300002A280DD06FF02F023078A0F13003092B5E
:1033100009D807EB870302EB4303C718761CF3E7D2
:1033200058F8047B761C30786C280FD006DC4C28CB
:1033300017D068280DD06A2814D104E0742810D062
:103340007A280FD10DE044F400140AE044F480140C
:1033500001E044F440147278824202D104F58014F2
:10336000761C761C307866280BD013DC582877D072
:1033700009DC002875D04528F6D04628F4D0472827
:103380001AD193E118E0632835D0642879D06528F4
:1033900012D18BE1702873D008DC6728F1D069283E
:1033A0006FD06E280DD06F2806D1ACE073282CD0DA
:1033B000752874D0782853D05246179990476D1CC1
:1033C00054E1C4F30250022809D003280DD0D8F8E4
:1033D000001004280DD00D6008F1040846E1D8F86B
:1033E0000010EA17C1E90052F6E7D8F800100D8086
:1033F000F2E70D70F0E718F8041B8DF800100020BC
:103400008DF80100EB46012003E058F804BB4FF0B3
:10341000FF3061074FF0000102D40DE009F1010116
:103420008946B9420FDA8145F8DB1BF809100029FB
:10343000F4D108E009F1010189468142FADB1BF869
:1034400009100029F6D103985346A0EB090721463D
:103450003846179A00F080FA284400EB090507E087
:1034600044E008E10DE01BF8010B52461799904724
:10347000B9F10109F7D2534621463846179AF2E0CE
:1034800039E00A21C4F302524FF0000B0091022AE6
:1034900006D058F8040BC117032A09D00AE023E02C
:1034A00008F1070020F00702F2E80201904605E06B
:1034B00000B2C117042A01D140B2C117002906DAAF
:1034C0000A460021404261EB02012D2202E0220562
:1034D00004D52B228DF80420012203E0E20701D05D
:1034E0002022F7E7914657E00A2100E010214FF033
:1034F000000B00910BE010214FF0000B44F004048E
:103500000827009103E008204FF0000B0090C4F35F
:103510000252022A05D058F8040B0021032A08D0D1
:1035200008E008F1070020F00702F2E802019046E7
:1035300003E080B2042A00D1C0B24FF00009220794
:103540002AD53278702A07D0DDF800C08CF0100C34
:103550005CEA0B0C05D00EE040228DF8042001221D
:1035600008E050EA010306D030238DF804308DF8CE
:10357000052002229146009B83F0080353EA0B03C7
:103580000AD150EA010201D1620705D530228DF837
:1035900004204FF001097F1E3278582A04D039A246
:1035A0000C920CAA02920BE03BA2F9E75B46009A50
:1035B000FDF7B5F80C9B9B5C029A521E02921370A9
:1035C00050EA0102F2D1029804A9081A00F1200B76
:1035D000600702D524F4803400E001275F4502DD56
:1035E000A7EB0B0000E0002000EB0B01009003981C
:1035F0004944401A0390E00306D453462146179AE3
:10360000039800F0A9F90544002706E001A85246F6
:10361000C05D179990476D1C7F1C4F45F6DBE0039A
:103620000CD553462146179A039800F095F90544A6
:1036300004E030205246179990476D1C0099481EAF
:1036400000900029F5DC08E00298029952460078C3
:10365000491C0291179990476D1CBBF10001ABF119
:10366000010BF1DC5BE100F065F90544761C307874
:1036700000287FF40DAE19B02846BDE8F08F000099
:103680000928010030313233343536373839616238
:1036900063646566000000003031323334353637FC
:1036A000383941424344454600000000600700D4D9
:1036B000062708F1070020F00700F0E80223804603
:1036C00003F0004C5FEA0C0001D097A009E0200550
:1036D00001D596A005E0E00701D095A001E0AFF28A
:1036E0004C001390307823F0004365280CD006DCA2
:1036F000452809D046281DD047287FD13BE06628C1
:1037000018D067287AD136E00021112F01DB112073
:1037100000E0781CCDE9000104A90CA8FFF7EEFC3D
:10372000DDE90D010C9A4FF0000B07F10109109231
:1037300000914EE04FF000400097CDE9011004A940
:103740000CA8FFF7DBFCDDE90D020C9B0F994FF095
:10375000000B91461093009211B9791C00EB0109FE
:10376000B7EB090003D4C0F1FF3B07F10109A9EB56
:103770000700019042E0012F00DA01270021112FFC
:1037800001DD112000E03846CDE9000104A90CA8B4
:10379000FFF7B4FCDDE90D010C9A00914FF0000B2E
:1037A000B946109221070FD4009A4A4503DA914690
:1037B00001E0A9F10109B9F1010F05DD109AA9F1A4
:1037C0000101515C3029F4D0B84202DA10F1040F43
:1037D00003DA0121CDE9011010E0002803DC834465
:1037E000A9EB000102E0411C494500DD8946A0EB40
:1037F0000B00401C01904FF000400290200705D4C0
:103800000198484502DB4FF0FF30019000208DF811
:103810004B0002980DF14B07B0F1004F25D002206C
:103820000C902B200D90029800280CDA4042029058
:103830002D200D9007E00A210298FCF75AFF303145
:10384000029007F8011D0C99481E0C900029F2DC2B
:1038500002980028EFD1791E0D980870307800F09A
:10386000200040F0450007F8020D11A8C01BC01D44
:1038700002901398007800B1012000EB0901019833
:1038800001EBE071029801440398401A401E039036
:10389000E00306D453462146179A039800F05CF8DB
:1038A00005441398007818B15246179990476D1C3B
:1038B000E00323D553462146179A039800F04CF8AD
:1038C00005441BE0BBF1000F07DB0098584504DD01
:1038D0001098179910F80B0001E017993020524604
:1038E000904701980BF1010B401E05F10105019075
:1038F00004D12E205246179990476D1CB9F1000152
:10390000A9F10109DEDC05E017F8010B5246179911
:1039100090476D1C0299481E02900029F4DC534622
:103920002146179A03989EE62D0000002B00000008
:10393000200000002DE9F041044600251E461746F0
:10394000880404D405E039462020B0476D1C641E6D
:10395000F9D52846BDE8F0812DE9F041044600255F
:103960001E469046C80301D5302700E02027880472
:1039700004D505E041463846B0476D1C641EF9D5B4
:103980002846BDE8F0810A68531C0B601070704730
:103990002DE9F84F04460D4621F00040009173498F
:1039A000814211DC7249884201DC06D12CB12046EB
:1039B0002946BDE8F84FFFF77EBB6E48002DCCBF0F
:1039C0006D496E49BDE8F88F6D49814211DD6D4941
:1039D0008142D8BF4FF0FF366DDD20462946FFF704
:1039E000F1FA042808BFFFF76BFB20462946BDE823
:1039F000F88F6549654F25F00045814233DD644904
:103A0000814219DD002632464FF080432046294688
:103A1000FCF78CFF80468A46012220462946FDF7A6
:103A200095FA00223B46FDF722F842465346FCF742
:103A3000A5FD04460D463EE001260022BA463B465F
:103A400020462946FCF772FF80460F460022534667
:103A500020462946FDF70BF842463B46FCF78EFD13
:103A600004460D4627E04B4981421BDDDFF828A1C3
:103A700002260022534620462946FCF70DFD00226F
:103A80003B46FCF753FF80460F4600225346204634
:103A90002946FCF7ECFF42463B46FCF76FFD044627
:103AA0000D4608E0032622462B4600203B49FCF742
:103AB00065FD04460D4622462B4610461946FCF786
:103AC000EBFC8B46824602460B46FCF7E5FC0746BC
:103AD0000246334888460B4606217844FFF796FA9B
:103AE00052465B46FCF7D8FC82462E488B463A4647
:103AF000434605217844FFF789FA3A464346FCF7E6
:103B0000CBFC02460B46002E504659460CDAFCF719
:103B10000DFF22462B46FCF7BFFC01B022462B4688
:103B2000BDE8F04FFCF7A6BFFCF700FF22462B468E
:103B3000FCF7B2FC1C4A7A4402EBC603D3E900232B
:103B4000FCF795FF22462B46FCF791FF174A7A4473
:103B500002EBC603D3E90023FCF78CFF009A002A8E
:103B6000B8BF81F00041BDE8F88F000000001044AC
:103B70000000F07F182D4454FB21F93FFB21F9BFD1
:103B80000000DC3F0000203E0000F33F0000F03F5B
:103B90000000E63F008003400000F83F0000F0BF57
:103BA000B20D0000700D00000E0D0000D60C0000DC
:103BB0002DE9F04D9446CCF1000423F000464CEA88
:103BC0000404594F46EAD4749A46884621F00042CC
:103BD000BC4206D8454240EA050442EAD474BC42DD
:103BE00004D9BDE8F04D6246FFF768BAAAF1405526
:103BF000A5F17F6555EA0C040BD0022404EAAA74EF
:103C00004A4DDFF82CE144EAD87452EA000B04D0A4
:103C10000CE0BDE8F04DFFF7BBBE002C14BF012C3B
:103C2000BDE8F08D022C30D0032C32D056EA0C0BBC
:103C30000AD0BE4220D1BA4209D126F0804622F0F5
:103C400080423346114617E000291ADB25E0DFF8F1
:103C5000E4B0FB44002C04BFDBE90001BDE8F08DBB
:103C6000012C02BFDBE9000181F00041BDE8F08DCD
:103C7000022C0AD0032C0CD0BA4212D1B8F1000F9A
:103C80000BDA2A482C49BDE8F08D28462B49BDE8BF
:103C9000F08D28467146BDE8F08D24482849BDE8DE
:103CA000F08D921B12153C2AC4BF204F244E10DC0D
:103CB000BAF1000FBEBF12F13C0F00273E4608DBF1
:103CC0006246FCF75BFC21F00041FFF761FE07460E
:103CD0000E4694B1012C08BF86F000460DD0194A5B
:103CE000194B022C3846314615D0FCF7C0FE2A4647
:103CF000BDE8F04D114BFCF7BABE00221346384622
:103D00003146FCF723FF04BF0220FFF7F1F93846E4
:103D10003146BDE8F08DFCF7AAFE2A46BDE8F04D1D
:103D2000064BFCF7A7BE00000000F07F182D44549E
:103D3000FB2109C06A0C0000FB21F9BFFB210940EF
:103D4000FB21F93F075C143326A6A13C13B54FF6BF
:103D5000FF73012269460248FEF718F800981CBD5F
:103D60005000002090B0FDF7FDFAFEF74DFFFEF782
:103D700065FCFEF7EFFCFEF7DFFDFEF7C0FDFEF78A
:103D800013FCFEF727FDFEF737FBFEF799F9002439
:103D900026464FF4FA77DFF84C81FEF7B5F90FA904
:103DA0000EA8FEF763F9FEF75BF9050013D1FDF7E6
:103DB000CBFA801BC8280ED9FEF752F90028FBD099
:103DC0000320641CB4FBF0F100FB1144FEF797FDE7
:103DD000FDF7BAFA064624B1012C40D0022C47D098
:103DE0007BE00021102340A20846FEF771FE0DB1D2
:103DF00041A000E041A00090BDF83C30BDF8382063
:103E00003FA101A8FFF7CAF8102301AA0221002050
:103E1000FEF75EFE10233FA204210020FEF758FEAD
:103E2000BDF83800462802D93B46002203E01E2890
:103E300005D23B46012241460120FEF703FDBDF8B5
:103E40003C00462802D93B46002203E01E2844D20B
:103E50003B46012241460220FEF7F4FC3DE007A864
:103E6000FEF722FB07A8FEF75DFA10232CA230E034
:103E70003048007808B130A100E034A101A8FFF774
:103E80008DF80021102301AA0846FEF721FE3548CF
:103E900036A1B0F900303448B0F9002001A8FFF78E
:103EA0007DF8102301AA02210020FEF711FE3348FD
:103EB00034A1B0F900303248B0F9002001A8FFF772
:103EC0006DF8102301AA04210020FEF701FE102343
:103ED00030A206210020FEF7FBFD3220FDF710F98D
:103EE0005BE700000AD7233C4A6F79737469636B00
:103EF000204D6F746F7200004F4646004F4E000019
:103F0000583A25326420593A253264204B3A2573B9
:103F100000000000506167653A312F330000000057
:103F2000506167653A322F332020204D505536308E
:103F300035300000330000205374617475733A20EB
:103F40004B3233302056616C6964000053746174E5
:103F500075733A204B323330204E6F2044617461C8
:103F6000000000003800002036000020583A2534B8
:103F7000642020593A253464000000003C000020F1
:103F80003A000020573A2534642020483A2534640A
:103F900000000000506167653A332F332020202055
:103FA000204B3233300000002DE9F04106460F4629
:103FB000FCF763FD041E0D4618BF0120284320F0C6
:103FC0000040C0F17F6000F1E040C00F0ED0301C17
:103FD00018BF0120384320F00040C0F17F6000F19D
:103FE000E040C00F04BF0120FFF782F820462946B9
:103FF000BDE8F081000000000000000001020304A1
:104000000607080900000000010203040000000088
:1040100000000000002F000000000700070000144F
:104020007F147F1400242A7F2A120062640813235D
:1040300000364955225000000503000000001C22F4
:104040004100000041221C000014083E0814000832
:10405000083E0808000000A06000000808080808E2
:10406000000060600000002010080402003E51497A
:10407000453E0000427F4000004261514946002118
:1040800041454B31001814127F1000274545453932
:10409000003C4A494930000171090503003649498D
:1040A000493600064949291E000036360000000046
:1040B0005636000000081422410000141414141491
:1040C000000041221408000201510906003249593A
:1040D000513E007C1211127C007F49494936003E56
:1040E00041414122007F4141221C007F4949494111
:1040F000007F09090901003E4149497A007F08080B
:10410000087F0000417F4100002040413F01007FC7
:1041100008142241007F40404040007F020C027F93
:10412000007F0408107F003E4141413E007F0909A5
:104130000906003E4151215E007F091929460046CB
:10414000494949310001017F0101003F4040403FA2
:10415000001F2040201F003F4038403F00631408EC
:1041600014630007087008070061514945430000C7
:104170007F41410000552A552A55000041417F00EA
:1041800000040201020400404040404000000102DF
:104190000400002054545478007F484444380038C8
:1041A0004444442000384444487F00385454541850
:1041B00000087E0901020018A4A4A47C007F080462
:1041C00004780000447D4000004080847D00007F32
:1041D000102844000000417F4000007C041804784F
:1041E000007C0804047800384444443800FC24244B
:1041F00024180018242418FC007C08040408004833
:104200005454542000043F444020003C4040207C53
:10421000001C2040201C003C4030403C0044281042
:104220002844001CA0A0A07C004464544C441414F6
:10423000141414140000000000000000000000002E
:1042400000000000000000F8000000000000003343
:104250003000000000100C06100C060000000000EA
:104260000000000040C07840C0784000043F0404D3
:104270003F040400007088FC08300000001820FF94
:10428000211E0000F008F000E018000000211C03CF
:104290001E211E0000F00888700000001E2123244B
:1042A0001927211010160E00000000000000000069
:1042B00000000000000000E01804020000000007F9
:1042C0001820400000020418E00000000040201800
:1042D00007000000404080F0804040000202010FD3
:1042E00001020200000000F0000000000101011FB7
:1042F00001010100000000000000000080B070001B
:1043000000000000000000000000000000010101AA
:104310000101010100000000000000000030300039
:104320000000000000000000806018040060180613
:104330000100000000E010080810E000000F10204D
:1043400020100F00001010F8000000000020203F97
:104350002020000000700808088870000030282421
:1043600022213000003008888848300000182020C2
:1043700020110E000000C02010F8000000070424E7
:10438000243F240000F8088888080800001921202C
:1043900020110E0000E0108888180000000F112086
:1043A00020110E0000380808C83808000000003F3F
:1043B000000000000070880808887000001C22219E
:1043C00021221C0000E010080810E000000031224B
:1043D00022110F00000000C0C000000000000030EB
:1043E000300000000000008000000000000080603D
:1043F00000000000000080402010080000010204BE
:1044000008102000404040404040400004040404A4
:104410000404040000081020408000000020100860
:1044200004020100007048080808F0000000003095
:1044300036010000C030C828E810E0000718272423
:1044400023140B000000C038E0000000203C2302D1
:104450000227382008F8888888700000203F202034
:1044600020110E00C0300808080838000718202066
:104470002010080008F808080810E000203F20205D
:1044800020100F0008F88888E8081000203F20203E
:104490002320180008F88888E8081000203F200032
:1044A00003000000C030080808380000071820206A
:1044B000221E020008F808000008F808203F210129
:1044C00001213F20000808F8080800000020203FD4
:1044D0002020000000000808F8080800C080808044
:1044E0007F00000008F888C028180800203F20013D
:1044F0002638200008F8080000000000203F202097
:104500002020300008F8F800F8F80800203F003FAD
:10451000003F200008F830C00008F808203F2000C5
:1045200007183F00E01008080810E0000F102020D6
:1045300020100F0008F808080808F000203F2101AB
:1045400001010000E01008080810E0000F18242402
:1045500038504F0008F8888888887000203F200075
:10456000030C30200070880808083800003820212B
:1045700021221C00180808F8080818000000203F35
:104580002000000008F808000008F808001F20209C
:1045900020201F000878880000C83808000007386D
:1045A0000E010000F80800F80008F800033C0700BE
:1045B000073C0300081868808068180820302C0326
:1045C000032C30200838C800C83808000000203FFD
:1045D0002000000010080808C838080020382621EC
:1045E00020201800000000FE020202000000007FF0
:1045F00040404000000C30C00000000000000001FE
:104600000638C00000020202FE00000000404040E8
:104610007F0000000000040202020400000000000D
:10462000000000000000000000000000808080808A
:104630008080808000020204000000000000000072
:10464000000000000000808080800000001924220B
:1046500022223F2008F8008080000000003F112047
:1046600020110E000000008080800000000E11204C
:1046700020201100000000808088F800000E11202A
:1046800020103F200000808080800000001F222238
:1046900022221300008080F0888888180020203FA4
:1046A000202000000000808080808000006B9494B7
:1046B0009493600008F8008080800000203F210073
:1046C00000203F2000809898000000000020203F3C
:1046D00020200000000000809898000000C080802A
:1046E000807F000008F8000080808000203F2402C6
:1046F0002D302000000808F8000000000020203FB6
:10470000202000008080808080808000203F20006A
:104710003F20003F8080008080800000203F2100FB
:1047200000203F200000808080800000001F2020AB
:1047300020201F00808000808000000080FFA120DA
:1047400020110E000000008080808000000E1120EB
:1047500020A0FF80808080008080800020203F217A
:10476000200001000000808080808000003324242D
:1047700024241900008080E0808000000000001FD9
:10478000202000008080000000808000001F20208A
:1047900020103F20808080000080808000010E304B
:1047A0000806010080800080008080800F300C03AC
:1047B0000C300F0000808000808080000020312EAF
:1047C0000E312000808080000080808080818E708B
:1047D0001806010000808080808080000021302C3D
:1047E0002221300000000000807C02020000000056
:1047F000003F404000000000FF00000000000000FB
:10480000FF0000000002027C800000000040403FEA
:104810000000000000060101020204040000000084
:1048200000000000000000004FBB610567ACDD3FE9
:10483000182D4454FB21E93F9BF681D20B73EF3FC7
:10484000182D4454FB21F93FE2652F227F2B7A3C3F
:10485000075C143326A6813CBDCBF07A8807703CF8
:10486000075C143326A6913CC4EB98999999C9BF6B
:10487000711623FEC671BCBF6D9A74AFF2B0B3BFA0
:104880009AFDDE522DDEADBF2F6C6A2C44B4A2BF60
:104890000D5555555555D53FFF8300922449C23FCC
:1048A0006E204CC5CD45B73F513DD0A0660DB13F00
:1048B000EB0D76244B7BA93F11DA22E33AAD903F12
:1048C0000000000000000000DDDDDDDDDCBBBBDD45
:1048D000DDDDDDDDDDDDDDDD9888888888888888A0
:1048E00077777777778888888555555666666666C0
:1048F000666666666668888883333332222222229F
:10490000222222222228888D284900080000002027
:1049100050000000D0300008784900085000002006
:10492000C8040000E0300008010000001000000092
:10493000000000000024F4000000320032003200C9
:10494000320032003200320032000000000000006D
:104950000000000000000000000000000000FFFF59
:10496000FFFFFFFFFFFF000000000000000000004D
:0849700000000000000000003F
:04000005080000ED02
:00000001FF
