:020000040800F2
:100000006804002005010008E90E0008950B0008AF
:10001000750E0008DD0100081D1200080000000038
:1000200000000000000000000000000001110008B6
:10003000DF01000800000000FF10000803110008A5
:100040001F0100081F0100081F0100081F01000810
:100050001F0100081F0100081F0100081F01000800
:100060001F0100081F010008E90100081F01000826
:100070001F0100081F0100081F0100081F010008E0
:100080001F0100081F0100081F0100081F010008D0
:100090001F0100081F0100081F0100081F010008C0
:1000A0001F0100081F0100081F0100081F010008B0
:1000B0001F0100081F0100081F0100081F010008A0
:1000C0001F0100081F0100081F0100081F01000890
:1000D0001F0100081F0100081F0100081F01000880
:1000E000E10100081F0100081F010008DFF810D01F
:1000F00000F042F80048004795160008AFF3008072
:10010000680400200648804706480047FEE7FEE7EF
:10011000FEE7FEE7FEE7FEE7FEE7FEE7FEE7FEE7B7
:1001200063110008ED000008D2B201E000F8012BD5
:10013000491EFBD270470022F6E710B513460A4667
:1001400004461946FFF7F0FF204610BD30B50B46B8
:10015000014600202022012409E021FA02F59D42F7
:1001600005D303FA02F5491B04FA02F52844151ECB
:10017000A2F10102F1DC30BD064C074D06E0E0685B
:1001800040F0010394E8070098471034AC42F6D3DE
:10019000FFF7B0FFEC1F00080C2000086421484363
:1001A00040F6FF71B0FBF1F0642800D96420C0B2C2
:1001B000704700000849086007482C38016841F082
:1001C000010101600448343801688907FCD5024800
:1001D0001830006880B2704734240140FEE7704751
:1001E0004FF4805000F038B8102000F035B872B6E7
:1001F000FEE70000074A127821F81200002210469C
:1002000031F81030401C1A440428F9DBC2F38F0087
:10021000704700001000002070B5044600F020F97F
:100220000546601C02D004480078044400F018F928
:10023000401BA042FAD370BD00000020054A4FF4D5
:100240000051102802D0B0F5805F02D1104600F0B6
:10025000FAB8704700100140044910B50A6802421C
:1002600002D00860FFF7EAFF10BD0000140401404F
:100270002DE9F84FDFF8A491002409F1040A0AF1EE
:10028000040B23464FF00F080BF1040EBEE00127CC
:10029000A7403A40BA4272D1DFF884C14D68A5EB5D
:1002A0000C0665452BD00DDC032D34D005DC35B3B1
:1002B000012D19D0022D2FD11BE0112D16D0122D9A
:1002C0002AD119E0B6F5881F19D006DCB6F5803FB3
:1002D00015D0B6F5801F1FD111E0B6F5001F0ED066
:1002E000B6F5041F18D10AE0CB6815E0CB681B1DDA
:1002F00012E0CB6808330FE0CB680C330CE08B685E
:100300002BB1012B4FF0080303D0476104E0042315
:1003100002E0076100E00023FF2A01D8064601E061
:1003200000F104064FEA840501D9A5F120053768DC
:1003300008FA05FC27EA0C0703FA05F547EA050762
:1003400037604D68ED0060D5364DAE6946F0010668
:10035000AE61AD6924F0030605F001050095324D4C
:100360007719BE68A5072D0F08FA05FC26EA0C06CA
:10037000DFF8B8C0604503D14FF0000C17E044E04F
:10038000DFF8ACC0604502D14FF0010C0FE0DFF8A0
:10039000A4C0604502D14FF0020C08E0DFF898C01D
:1003A000604502D14FF0030C01E04FF0040C0CFA51
:1003B00005FC4CEA060CC7F808C04D68D9F8006087
:1003C000ED034D4601D5164300E096432E604D687F
:1003D000DAF80060AD03554601D5164300E09643B8
:1003E0002E604D68DBF80060ED025D4601D51643D6
:1003F00000E096432E604D68DEF80060AD02754661
:1004000001D5164300E096432E60641C0A6832FA58
:1004100004F57FF43CAFBDE8F88F00000004014014
:1004200000001110001002400000014000080140CF
:10043000000C014000100140001401408068084099
:1004400000D001207047C26821EA02030A4043EA53
:100450000241016170470AB1016170470904FBE77D
:100460000148806870470000000000200248816851
:10047000027811448160704700000020074810B5E1
:10048000016841F010010160032000F075F80F20B1
:1004900000F006F800F024F8002010BD0020024013
:1004A00070B50D4D04464FF47A712878B1FBF0F029
:1004B0000A490968B1FBF0F000F0EEFA48B9102CD7
:1004C00007D200222146501E00F036F800206C6052
:1004D00070BD012070BD0000000000200C00002055
:1004E0000C4808B5816941F001018161816901F021
:1004F00001010091C16941F08051C161C0690649A3
:1005000000F080500090486820F0E06040F00070FB
:10051000486008BD0010024000000140002809DBCF
:1005200000F01F02012191404009800000F1E0200D
:10053000C0F8001170470000F0B40E4B1B68C3F305
:100540000223C3F10704042C00D904241D1D072D28
:1005500001D2002300E0DB1E012606FA04F56D1E21
:100560000D409D409E40761E164045EA0601F0BCB7
:1005700000F0CABE0CED00E0064A00F0070110686A
:100580004FF6FF03184040EA01200349084310607A
:10059000704700000CED00E00000FA052DE9F0477F
:1005A0000D46040067D0DFF81881D8F8000000F08D
:1005B0000700A8420CD2D8F8001021F00701294307
:1005C000C8F80010D8F8000000F00700A84252D187
:1005D00020683C4E810712D5400703D5706840F46F
:1005E000E06070602078000703D5706840F46050C8
:1005F00070607068A16820F0F00008437060207897
:10060000C00727D06068012810D03168022810D0B8
:10061000890700292FDA716821F003010143716015
:10062000FFF71EFF074641F288390CE03168890365
:10063000EFE78901EDE7FFF713FFC11B494502D939
:100640000320BDE8F0877068616800F00C00B0EB33
:10065000810FF0D1D8F80010404601F00701A942FF
:100660000BD9016821F0070129430160006800F0FF
:100670000700A84201D00120E3E72078400705D514
:100680007068E16820F4E06008437060207800073B
:1006900006D57068216920F4605040EAC10070609E
:1006A00000F038F87168084AC1F30311515CC84082
:1006B0000649086006480068FFF7F2FE0020C0E720
:1006C0000020024000100240BC1700080C0000206F
:1006D000040000200448054900684968044AC1F341
:1006E0000221515CC84070470C00002000100240FD
:1006F000CC1700080448054900684968044AC1F35A
:10070000C221515CC84070470C000020001002401C
:10071000CC17000812A085B00FC88DE80F0014A0F8
:10072000144B006804905968134801F00C02042A25
:1007300010D0082A0ED1C1F38342C9031DF802006C
:100740000AD5596804AAC1F34041515C0A4A504392
:10075000B0FBF1F005B0704708494843FAE70000E4
:1007600002030405060708090A0B0C0D0E0F1010F2
:10077000010200000010024000127A0000093D0052
:100780002DE9F84F04006FD02078BE4DC00747D048
:100790006868C0F38100012807D06868C0F3810051
:1007A000022809D16868C00306D52868800337D5B8
:1007B00060680028E7D033E06068B0F5803F0BD078
:1007C00010B1B0F5A02F11D0286820F48030286037
:1007D000286820F4802002E0286840F480302860F7
:1007E000606888B1FFF73CFE064609E0286840F4DF
:1007F00080202860F0E7FFF733FE801B642873D861
:1008000028688003F7D50BE0FFF72AFE064604E0D0
:10081000FFF726FE801B6428F1D828688003F7D4F0
:100820002078DFF8648280074FF0010A4FF000095A
:1008300039D5686810F00C0F07D06868C0F38100E4
:10084000022809D16868C00306D42868800714D537
:100850002069012808D110E02069B0B1C8F800A0D3
:10086000FFF7FEFD064605E007E1FFF7F9FD801BF7
:100870000228C4D828688007F7D52868616920F065
:10088000F80040EAC10028600DE0C8F80090FFF7CA
:10089000E7FD064604E0FFF7E3FD801B022823D8AE
:1008A00028688007F7D4207800072CD57748A169FD
:1008B000D9B1C0F800A0FFF7D3FD064604E0FFF76A
:1008C000CFFD801B02280FD8686A8007F7D57048D3
:1008D0004FF4FA510068B0FBF1F0009000BF0098AF
:1008E000411E0091FAD20EE07CE0C0F80090FFF7C4
:1008F000B7FD064604E0FFF7B3FD801B022871D860
:10090000686A8007F7D4207840075BD5E86900273C
:10091000C00008D4E86940F08050E861E869012728
:1009200000F0805000905B480168C90511D401684F
:10093000834641F480710160FFF792FD064604E0B2
:10094000FFF78EFD801B64284CD8DBF80000C00543
:10095000F6D5E06801280AD008B1052813D0286A26
:1009600020F001002862286A20F0040002E0286AD2
:1009700040F001002862E06841F2883B88B1FFF74F
:100980006FFD064609E0286A40F004002862EEE7A1
:10099000FFF766FD811B59455BD8286A8007F7D5AC
:1009A0000BE0FFF75DFD064604E0FFF759FD811BF4
:1009B00059454ED8286A8007F7D41FB1E86920F05E
:1009C0008050E861E069A8B36968C1F38101022938
:1009D00046D00228484606D0C8F86000FFF740FD20
:1009E000044639E035E04746C8F86000FFF738FDB7
:1009F000064604E0FFF734FD801B022829D828684A
:100A00008001F7D4206AB0F5803F05D16868A168FD
:100A100020F4003008436860D4E90801084369689D
:100A200021F4741108436860C7F860A0FFF718FD4F
:100A3000044605E023E0FFF713FD001B022808D859
:100A400028688001F7D51AE0FFF70AFD001B02288D
:100A500002D90320BDE8F88F28688001F4D40EE0A5
:100A60000128F7D06868226A00F48031914204D1ED
:100A7000616A00F47010884201D00120EAE700208A
:100A8000E8E70000001002400000424280044242B9
:100A90000C0000200070004010B5401EB0F1807FB7
:100AA00001D3012010BD4FF0E02460610F216017D9
:100AB00000F02AFC0020A06107202061002010BD6A
:100AC00070B5040004D094F83D00002510B106E094
:100AD000012070BD84F83C50204600F023F824200B
:100AE00084F83D002068C16821F40051C1602046AF
:100AF00000F038FB2068016921F490410161206811
:100B0000416921F02A0141612068C16841F4005126
:100B1000C1602564202084F83D0084F83E00002058
:100B200070BD000030B585B000240094019402949B
:100B3000039400681449884224D11448816941F41F
:100B400080418161816901F480410491816941F0B2
:100B50000401816180690E4D00F0040004904FF49F
:100B600000700090022001900320039069462846FF
:100B7000FFF77EFB2815CDE900046946284602945C
:100B8000FFF776FB05B030BD003801400010024091
:100B900000080140FEE700002DE9F04101220C4D64
:100BA000D40321462846FFF756FC0122094F1603BD
:100BB00031463846FFF74FFC002231463846FFF7F2
:100BC0004AFC21462846BDE8F0410022FFF743BC1D
:100BD00000080140000C014070B50122D103094812
:100BE000FFF739FC084D4FF4805400222146284677
:100BF000FFF731FC21462846BDE870400122FFF78F
:100C00002ABC000000080140000C014070B5012220
:100C1000064DD40321462846FFF71DFC21462846F1
:100C2000BDE870400022FFF716BC0000000801403C
:100C300080210148FFF702BC000801402DE9F04186
:100C400005460C460420FFF7B5FA06460520FFF7D7
:100C5000B1FA07463046FFF7A1FA28803846FFF779
:100C60009DFA208028880949FFF7C4FA074928809F
:100C700020880831FFF7BEFA20800448801E0178E2
:100C8000491C01F003010170BDE8F0811200002051
:100C9000F0B5214C85B0A06940F40070A061A06956
:100CA00000F400700490A06940F00400A061A06905
:100CB000002500F004000295CDE90350302000909B
:100CC0000320164F019069463846FFF7D1FA80207D
:100CD00001268DE8610069463846FFF7C9FAE068E9
:100CE00040F40070E060E06820F40070E0600C48C0
:100CF0000560041D26600120FFF78EFA206840F091
:100D00000400206020684007FCD405490F200C3106
:100D1000086005B0F0BD000000100240000801406E
:100D2000042401402DE9F04786B000243D4800949A
:100D3000019402940394816941F0100181618169F9
:100D400001F010010491816941F020018161816904
:100D500001F020010491816941F0080181618169FC
:100D600001F008010491816941F004018161806909
:100D7000DFF8B48000F004004FF400550490002226
:100D800029464046FFF767FB0122DFF8A0A01603C3
:100D900031465046FFF75FFB0122DFF89490D703FE
:100DA00039464846FFF757FB00950125CDE9015428
:100DB0000224694640460394FFF75AFACDE90065DC
:100DC000CDE9025469465046FFF752FA1948009699
:100DD000CDE9010569464846FFF74AFACDE90075B5
:100DE000CDE9025469464846FFF742FA10200090C8
:100DF0001148CDE9010469465046FFF739FA00224F
:100E000011460A20FFF798FB0A20FFF787FB002214
:100E100011462820FFF790FB2820FFF77FFB06B044
:100E2000BDE8F0870010024000100140000C0140B6
:100E30000008014000002110000011100C4810B5FE
:100E40000A4901604FF4E1314160002181600C22C8
:100E5000C160C0E904128161C161FFF731FE002861
:100E600003D0BDE81040FFF7C2B910BD0038014003
:100E700024000020FEE7000030B585B0002002907D
:100E80001648816941F004018161816901F0040122
:100E90000491816941F0080181618069104D00F081
:100EA00008000490012001900F2003240090039477
:100EB00069462846FFF7DCF969460A480094FFF7BF
:100EC000D7F9002204212846FFF7C5FA002208219D
:100ED0002846FFF7C0FA05B030BD00000010024000
:100EE00000080140000C0140FEE770B5002500211C
:100EF00005F1B00000F0FDF80021084600F0F9F817
:100F00000021102000F0F5F800240121002000F05D
:100F1000F0F8641CE4B2802CF7D36D1CEDB2082D00
:100F2000E5D370BD10B54FF44870FFF775F9002197
:100F3000AE2000F0DEF80021084600F0DAF80021CB
:100F4000102000F0D6F80021402000F0D2F8002157
:100F5000B02000F0CEF80021812000F0CAF8002176
:100F6000FF2000F0C6F80021A12000F0C2F8002107
:100F7000A62000F0BEF80021A82000F0BAF8002159
:100F80003F2000F0B6F80021C82000F0B2F80021A0
:100F9000D32000F0AEF80021084600F0AAF80021A6
:100FA000D52000F0A6F80021802000F0A2F8002152
:100FB000D82000F09EF80021052000F09AF80021CA
:100FC000D92000F096F80021F12000F092F80021DD
:100FD000DA2000F08EF80021122000F08AF80021BB
:100FE000DB2000F086F80021302000F082F800219C
:100FF0008D2000F07EF80021142000F07AF8002106
:10100000BDE81040AF2000F074B810B50A460446A1
:10101000002102F1B00000F06CF8102040EA14103A
:10102000002100F066F804F00F00BDE81040002138
:1010300000F05FB82DE9F041203A00240F468046C9
:10104000D5B27F2803D900208F1C8046FFB2102B19
:10105000394610D0FFF7D9FF164905EB450001EBE3
:1010600040050121285D00F044F8641CE4B2062C20
:10107000F7D3BDE8F081FFF7C8FF0F4E04EB051072
:101080000121305C00F035F8641CE4B2082CF5D383
:101090007F1CF9B24046FFF7B8FF002404EB0510AF
:1010A00030440121007A00F024F8641CE4B2082CDA
:1010B000F4D3DEE7D4170008FC1900082DE9F0414D
:1010C000984617460E46044600250DE04346314635
:1010D0002046FFF7AFFF0834E4B2782C02D9002491
:1010E000B61CF6B26D1CEDB27A5D002AEED1BDE8F9
:1010F000F081C0B209B100F0DCB800F0C3B87047AD
:101100007047FFF7B3B930B58FB028216846FFF7B5
:1011100012F814210AA8FFF70EF801200104002498
:101120008DE8130004904FF4E010CDE9081002257B
:1011300007956846FFF724FB08B172B6FEE70F205B
:10114000CDE90A054FF48060CDE90C4002210AA8E0
:101150000E94FFF723FA002801D072B6FEE70FB015
:1011600030BD704770B5044600680169E26821F43B
:10117000405111430161A168206901436069014345
:101180002068C26841F20C639A430A43C260206837
:101190004169A26921F44071114341611E492068EF
:1011A000884202D1FFF7A6FA01E0FFF793FA00EBBD
:1011B000C00101EB0011606864228000B1FBF0F314
:1011C000B3FBF2F36FF018067343B1FBF0F5B1FB1C
:1011D000F0F605EB8305322303EB0515B5FBF2F5BD
:1011E000B6FBF2F605F0F00505EB0615B1FBF0F6DF
:1011F000B1FBF0F0B0FBF2F06FF01801484306EBE2
:10120000800003EB0010B0FBF2F0216800F00F004B
:101210002844886070BD000000380140FEE70000EF
:101220002DE9F047154F04464FF4004600223146A1
:101230003846FFF710F9DFF8489000254FF4805842
:1012400004F08000802816D0002241464846FFF76F
:1012500002F96006040E012231463846FFF7FBF81A
:10126000002231463846FFF7F6F86D1CEDB2082D26
:10127000E6D3BDE8F0870122E7E70000000801405F
:10128000000C014010B50446FFF786FC7820FFF7FC
:10129000C7FFFFF7BBFC0020FFF7C2FFFFF7B6FC5C
:1012A0002046FFF7BDFFFFF7B1FCBDE81040FFF798
:1012B00093BC10B50446FFF76FFC7820FFF7B0FF32
:1012C000FFF7A4FC4020FFF7ABFFFFF79FFC204691
:1012D000FFF7A6FFFFF79AFCBDE81040FFF77CBCC4
:1012E0000FB4084B10B504A902AA039800F02CF81B
:1012F000044602A9002000F0C8F9204610BC5DF8A1
:1013000014FB00008B1600080907090E002804DBF7
:1013100000F1E02080F80014704700F00F0000F1A9
:10132000E02080F8141D704702E008C8121F08C1B1
:10133000002AFAD170477047002001E001C1121F56
:10134000002AFBD1704700002DE9FF4F8BB0884683
:101350000546002606E025280BD0DDE90D12904752
:101360006D1C761C28780028F5D10FB03046BDE8FA
:10137000F08F0024A146A2460122AE4900E00443BA
:1013800015F8013F203B02FA03F00842F7D1287814
:101390002A2810D06FF02F022878A0F130010929F7
:1013A00015D809EB890102EB410144F0020400EB7E
:1013B00001096D1CF0E758F8041B5FEA010903D529
:1013C00044F40054C9F1000944F002046D1C28786B
:1013D0002E2817D115F8010F44F004042A280ED046
:1013E0006FF02F022878A0F1300109290AD80AEB02
:1013F0008A0102EB410100EB010A6D1CF2E758F88B
:1014000004AB6D1C28786C280FD006DC4C2817D054
:1014100068280DD06A2814D104E0742810D07A28E6
:101420000FD10DE044F400140AE044F4801401E00C
:1014300044F440146978814202D104F580146D1C93
:101440006D1C2878692865D006DC00288DD06328BB
:1014500027D0642806D15DE06E2808D073282AD0F2
:10146000752877D0DDE90D129047761CE0E0C4F3D3
:101470000250022809D003280DD0D8F80010042803
:101480000DD00E6008F10408D2E0D8F80010F21771
:10149000C1E90062F6E7D8F800100E80F2E70E709E
:1014A000F0E718F8041B8DF8001000208DF80100FB
:1014B000EB46012003E058F804BB4FF0FF30610712
:1014C0004FF0000701D40AE07F1C57450DDA874230
:1014D000FADB1BF807100029F6D106E07F1C8742D3
:1014E000FCDB1BF807100029F8D1DDE90D23A9EB7F
:1014F00007008146214600F0B1F83044C61904E0E7
:10150000DDE90D121BF8010B90477F1EF8D2214632
:10151000484688E058F8040BC4F302514FF00A0B18
:10152000032900D100B2042900D140B2002802DA18
:1015300040422D2102E0210505D52B218DF82410F4
:10154000012104E006E0E10710D02021F6E708AF12
:10155000089113E058F8040BC4F302514FF00A0B42
:10156000032900D180B2042900D1C0B20021EEE7E6
:101570005946FEF7EBFD303107F8011D0028F7D181
:10158000ADEB070000F1200B600702D524F4803496
:1015900001E04FF0010ADA4502DDAAEB0B0000E0A2
:1015A0000020824600EB0B0108980144A9EB0100E2
:1015B0000A90E00306D4DDE90D2321460A9800F0E5
:1015C0004DF806444FF0000908E009A911F8090098
:1015D000DDE90D12904709F10109761C089989454A
:1015E000F3DBE0030CD5DDE90D2321460A9800F07A
:1015F00035F8064404E0DDE90D1230209047761CF2
:10160000BAF10001AAF1010AF5DC05E0DDE90D12ED
:1016100017F8010B9047761CBBF10001ABF1010BF1
:10162000F4DC0A982146DDE90D2300F005F80644B4
:101630006D1C97E6092801002DE9F04104460025BC
:101640001E461746880404D405E039462020B047DA
:101650006D1C641EF9D52846BDE8F0812DE9F041E6
:10166000044600251E469046C80301D5302700E0F9
:101670002027880404D505E041463846B0476D1C54
:10168000641EF9D52846BDE8F0810A68531C0B603A
:101690001070704788B0FEF7F1FEFFF734FDFFF7DA
:1016A00041FBFFF7CBFBFFF73DFCFFF71EFCFFF70D
:1016B000E3FBFFF7EDFA0024264607A906A8FFF78B
:1016C000BDFAFFF7B5FA050010D1FEF7C9FE801B81
:1016D000C8280BD9FFF7ACFA0028FBD0204601241C
:1016E0008443FFF702FCFEF7BBFE06464FF01003F3
:1016F0006CB1002117A20846FFF7E0FC102319A2E5
:1017000002210020FFF7DAFC102319A219E00021C2
:101710001BA20846FFF7D2FC0DB11DA000E01DA0E2
:101720000090BDF81C30BDF818201BA101A8FFF7E0
:10173000D7FD102301AA02210020FFF7BFFC1023D0
:101740001AA204210020FFF7B9FC3220FEF764FD45
:10175000B3E700004D505536303530205061676595
:101760000000000052657365727665640000000039
:10177000507265737320746F206261636B000000A8
:101780004A6F79737469636B205465737400000049
:101790004F4646004F4E0000583A25326420593AD1
:1017A000253264204B3A25730000000050726573A7
:1017B0007320746F20737769746368000000000001
:1017C00000000000010203040607080900000000F1
:1017D000010203040000000000000000002F0000D0
:1017E00000000700070000147F147F1400242A7FE4
:1017F0002A12006264081323003649552250000063
:101800000503000000001C224100000041221C00D2
:101810000014083E08140008083E0808000000A054
:101820006000000808080808000060600000002050
:1018300010080402003E5149453E0000427F40002E
:10184000004261514946002141454B3100181412B4
:101850007F10002745454539003C4A494930000181
:101860007109050300364949493600064949291ED0
:101870000000363600000000563600000008142232
:101880004100001414141414000041221408000232
:101890000151090600324959513E007C1211127C57
:1018A000007F49494936003E41414122007F414184
:1018B000221C007F49494941007F09090901003E76
:1018C0004149497A007F0808087F0000417F4100B4
:1018D000002040413F01007F08142241007F40402A
:1018E0004040007F020C027F007F0408107F003E12
:1018F0004141413E007F09090906003E4151215EF8
:10190000007F091929460046494949310001017FF4
:101910000101003F4040403F001F2040201F003F8A
:101920004038403F0063140814630007087008073C
:1019300000615149454300007F41410000552A554F
:101940002A55000041417F000004020102040040CA
:1019500040404040000001020400002054545478EC
:10196000007F48444438003844444420003844440C
:10197000487F00385454541800087E0901020018AA
:10198000A4A4A47C007F080404780000447D4000E7
:10199000004080847D00007F102844000000417FCB
:1019A0004000007C04180478007C080404780038A7
:1019B0004444443800FC242424180018242418FC2F
:1019C000007C0804040800485454542000043F4498
:1019D0004020003C4040207C001C2040201C003C5B
:1019E0004030403C004428102844001CA0A0A07CAB
:1019F000004464544C4414141414141400000000E3
:101A0000000000000000000000000000000000F8DE
:101A100000000000000000333000000000100C0641
:101A2000100C0600000000000000000040C07840DC
:101A3000C0784000043F04043F040400007088FCA8
:101A400008300000001820FF211E0000F008F00000
:101A5000E018000000211C031E211E0000F0088871
:101A6000700000001E2123241927211010160E00DB
:101A7000000000000000000000000000000000E086
:101A8000180402000000000718204000000204189B
:101A9000E00000000040201807000000404080F0F7
:101AA000804040000202010F01020200000000F02D
:101AB000000000000101011F010101000000000001
:101AC0000000000080B07000000000000000000076
:101AD00000000000000101010101010100000000FF
:101AE0000000000000303000000000000000000096
:101AF00080601804006018060100000000E0100873
:101B00000810E000000F102020100F00001010F847
:101B1000000000000020203F202000000070080886
:101B20000888700000302824222130000030088806
:101B3000884830000018202020110E000000C0202E
:101B400010F8000000070424243F240000F808884F
:101B5000880808000019212020110E0000E01088DC
:101B600088180000000F112020110E00003808080E
:101B7000C83808000000003F00000000007088081E
:101B800008887000001C222121221C0000E010089F
:101B90000810E0000000312222110F00000000C0F8
:101BA000C000000000000030300000000000008095
:101BB0000000000000008060000000000000804085
:101BC000201008000001020408102000404040409E
:101BD00040404000040404040404040000081020F1
:101BE0004080000000201008040201000070480836
:101BF0000808F0000000003036010000C030C8289E
:101C0000E810E0000718272423140B000000C03858
:101C1000E0000000203C23020227382008F88888D2
:101C200088700000203F202020110E00C0300808DE
:101C300008083800071820202010080008F80808B5
:101C40000810E000203F202020100F0008F88888AE
:101C5000E8081000203F20202320180008F888887A
:101C6000E8081000203F200003000000C0300808F2
:101C70000838000007182020221E020008F808007B
:101C80000008F808203F210101213F20000808F842
:101C9000080800000020203F202000000000080865
:101CA000F8080800C08080807F00000008F888C025
:101CB00028180800203F20012638200008F80800D6
:101CC00000000000203F20202020300008F8F8000D
:101CD000F8F80800203F003F003F200008F830C01F
:101CE0000008F808203F200007183F00E01008080F
:101CF0000810E0000F10202020100F0008F808083E
:101D00000808F000203F210101010000E010080850
:101D10000810E0000F18242438504F0008F8888875
:101D200088887000203F2000030C30200070880855
:101D3000080838000038202121221C00180808F863
:101D4000080818000000203F2000000008F80800E4
:101D50000008F808001F202020201F0008788800B5
:101D600000C83808000007380E010000F80800F825
:101D70000008F800033C0700073C030008186880CF
:101D80008068180820302C03032C30200838C80045
:101D9000C83808000000203F200000001008080894
:101DA000C83808002038262120201800000000FE36
:101DB000020202000000007F40404000000C30C0E2
:101DC00000000000000000010638C000000202020E
:101DD000FE000000004040407F00000000000402C0
:101DE00002020400000000000000000000000000EB
:101DF00000000000808080808080808000020204DB
:101E000000000000000000000000000000008080D2
:101E1000808000000019242222223F2008F8008040
:101E200080000000003F112020110E000000008003
:101E300080800000000E1120202011000000008092
:101E40008088F800000E112020103F2000008080C4
:101E500080800000001F222222221300008080F0D8
:101E6000888888180020203F202000000000808003
:101E700080808000006B94949493600008F8008048
:101E800080800000203F210000203F2000809898A3
:101E9000000000000020203F202000000000008003
:101EA0009898000000C08080807F000008F8000043
:101EB00080808000203F24022D302000000808F898
:101EC000000000000020203F202000008080808053
:101ED00080808000203F20003F20003F80800080E5
:101EE00080800000203F210000203F2000008080F3
:101EF00080800000001F202020201F0080800080A4
:101F00008000000080FFA12020110E000000008052
:101F100080808000000E112020A0FF808080800043
:101F20008080800020203F21200001000000808070
:101F3000808080000033242424241900008080E065
:101F4000808000000000001F202000008080000032
:101F500000808000001F202020103F208080800013
:101F60000080808000010E30080601008080008023
:101F7000008080800F300C030C300F000080800048
:101F8000808080000020312E0E3120008080800073
:101F90000080808080818E70180601000080808023
:101FA000808080000021302C2221300000000000C1
:101FB000807C020200000000003F40400000000062
:101FC000FF00000000000000FF0000000002027C93
:101FD000800000000040403F0000000000060101BA
:101FE0000202040400000000000000000C200008B1
:101FF0000000002024000000281300083020000802
:1020000024000020440400003813000801000000F0
:1020100010000000000000000024F4000000320066
:102020003200320032003200320032003200000052
:04000005080000ED02
:00000001FF
