:020000040800F2
:100000005804002005010008C10F0008A90C0008D1
:10001000950E00081D030008F512000800000000FE
:10002000000000000000000000000000D9110008DE
:100030001F03000800000000D7110008DB110008B2
:100040001F0100081F0100081F0100081F01000810
:100050001F0100081F0100081F0100081F01000800
:100060001F0100081F010008290300081F010008E4
:100070001F0100081F0100081F0100081F010008E0
:100080001F0100081F0100081F0100081F010008D0
:100090001F0100081F0100081F0100081F010008C0
:1000A0001F0100081F0100081F0100081F010008B0
:1000B0001F0100081F0100081F0100081F010008A0
:1000C0001F0100081F0100081F0100081F01000890
:1000D0001F0100081F0100081F0100081F01000880
:1000E000210300081F0100081F010008DFF810D0DD
:1000F00000F002F900480047F9130008AFF3008050
:10010000580400200648804706480047FEE7FEE7FF
:10011000FEE7FEE7FEE7FEE7FEE7FEE7FEE7FEE7B7
:100120003B120008ED000008D2B201E000F8012BFC
:10013000491EFBD270470022F6E710B513460A4667
:1001400004461946FFF7F0FF204610BDF0B480EAE0
:100150000102D40F4200B2EB410F02D20246084620
:1001600011464A0042D0C30DDDB2C1F3C752AD1AE9
:10017000202D35DAC1F3160141F4000204B15242D8
:10018000C5F1200602FA06F12A411044B3EBD05F14
:1001900023D0C4B1012DA0EBC35009DCF0BC4FF05B
:1001A000004202EAC352DBB200F5000000F075B86D
:1001B000400000F1807000EBC350A0F1807040EA75
:1001C000D170490009E0490841EAC071A0EBC35071
:1001D00000F50000400800EBC350F0BC00F054B83C
:1001E0006142012202EB4101001BF6E7F0BC7047BF
:1001F00081F00041AAE780F00040A7E780EA010211
:1002000010B502F00043400022D04A001FD0010E7A
:1002100001EB1261C0F35600C2F3560240F4000035
:1002200042F40002A0FB022000047F39140400D035
:10023000401C50EA124001D44000491EC2B20C06D4
:1002400004EBD010401C4008802A02D003E00020BC
:1002500010BD20F00100002900DA0020184310BD75
:1002600020F00040C10DC0F3160040F400007F29CB
:1002700001DA00207047962903DCC1F19601C840DD
:1002800070479639884070470029A8BF7047401CC6
:10029000490008BF20F00100704710B4B0FA80FC9C
:1002A00000FA0CF050EA010404BF10BC704749B1D9
:1002B000CCF1200421FA04F411FA0CF118BF012149
:1002C00021430843A3EB0C01CB1D4FEA00614FEA29
:1002D000102042BF002010BC704700EBC3501044F8
:1002E0000029A4BF10BC7047401C490008BF20F083
:1002F000010010BC70470000064C074D06E0E068A6
:1003000040F0010394E8070098471034AC42F6D35C
:10031000FFF7F0FE581D0008781D0008FEE7704743
:100320004FF4805000F026B8102000F023B872B6C9
:10033000FEE7000070B5044600F01CF90546601C9D
:1003400002D004480078044400F014F9401BA04295
:10035000FAD370BD00000020054A4FF40051102868
:1003600002D0B0F5805F02D1104600F0F5B87047BA
:1003700000100140044910B50A68024202D008602A
:10038000FFF7EAFF10BD0000140401402DE9F84F0B
:10039000DFF8A491002409F1040A0AF1040B2346B2
:1003A0004FF00F080BF1040EBEE00127A7403A40C2
:1003B000BA4272D1DFF884C14D68A5EB0C066545E1
:1003C0002BD00DDC032D34D005DC35B3012D19D035
:1003D000022D2FD11BE0112D16D0122D2AD119E09C
:1003E000B6F5881F19D006DCB6F5803F15D0B6F5F6
:1003F000801F1FD111E0B6F5001F0ED0B6F5041F07
:1004000018D10AE0CB6815E0CB681B1D12E0CB6861
:1004100008330FE0CB680C330CE08B682BB1012B59
:100420004FF0080303D0476104E0042302E00761B2
:1004300000E00023FF2A01D8064601E000F104068F
:100440004FEA840501D9A5F12005376808FA05FCB3
:1004500027EA0C0703FA05F547EA050737604D68F8
:10046000ED0060D5364DAE6946F00106AE61AD696E
:1004700024F0030605F001050095324D7719BE689A
:10048000A5072D0F08FA05FC26EA0C06DFF8B8C010
:10049000604503D14FF0000C17E044E0DFF8ACC03A
:1004A000604502D14FF0010C0FE0DFF8A4C06045B9
:1004B00002D14FF0020C08E0DFF898C0604502D18D
:1004C0004FF0030C01E04FF0040C0CFA05FC4CEA71
:1004D000060CC7F808C04D68D9F80060ED034D461A
:1004E00001D5164300E096432E604D68DAF80060AF
:1004F000AD03554601D5164300E096432E604D6886
:10050000DBF80060ED025D4601D5164300E096433E
:100510002E604D68DEF80060AD02754601D51643C9
:1005200000E096432E60641C0A6832FA04F57FF4FA
:100530003CAFBDE8F88F000000040140000011103E
:10054000001002400000014000080140000C014082
:100550000010014000140140C26821EA02030A4071
:1005600043EA0241016170470AB101617047090421
:10057000FBE7000001488068704700000000002091
:1005800002488168027811448160704700000020B1
:10059000074810B5016841F010010160032000F028
:1005A00075F80F2000F006F800F024F8002010BDC8
:1005B0000020024070B50D4D04464FF47A71287842
:1005C000B1FBF0F00A490968B1FBF0F000F0EEFA77
:1005D00048B9102C07D200222146501E00F036F8F0
:1005E00000206C6070BD012070BD00000000002084
:1005F0000C0000200C4808B5816941F001018161BF
:10060000816901F001010091C16941F08051C1612E
:10061000C069064900F080500090486820F0E06012
:1006200040F00070486008BD00100240000001402A
:10063000002809DB00F01F020121914040098000E1
:1006400000F1E020C0F8001170470000F0B40E4B3C
:100650001B68C3F30223C3F10704042C00D904244C
:100660001D1D072D01D2002300E0DB1E012606FA26
:1006700004F56D1E0D409D409E40761E164045EAD5
:100680000601F0BC00F098BE0CED00E0064A00F058
:10069000070110684FF6FF03184040EA01200349A4
:1006A00008431060704700000CED00E00000FA0500
:1006B0002DE9F0470D46040067D0DFF81881D8F81F
:1006C000000000F00700A8420CD2D8F8001021F07A
:1006D00007012943C8F80010D8F8000000F007000F
:1006E000A84252D120683C4E810712D5400703D55D
:1006F000706840F4E06070602078000703D570688F
:1007000040F4605070607068A16820F0F000084309
:1007100070602078C00727D06068012810D0316849
:10072000022810D0890700292FDA716821F003010F
:1007300001437160FFF71EFF074641F288390CE064
:1007400031688903EFE78901EDE7FFF713FFC11B6C
:10075000494502D90320BDE8F0877068616800F060
:100760000C00B0EB810FF0D1D8F80010404601F03A
:100770000701A9420BD9016821F007012943016053
:10078000006800F00700A84201D00120E3E72078CC
:10079000400705D57068E16820F4E06008437060A8
:1007A0002078000706D57068216920F4605040EA7F
:1007B000C100706000F038F87168084AC1F3031195
:1007C000515CC8400649086006480068FFF7F2FE21
:1007D0000020C0E700200240001002402815000859
:1007E0000C00002004000020044805490068496806
:1007F000044AC1F30221515CC84070470C0000203C
:10080000001002403815000804480549006849688E
:10081000044AC1F3C221515CC84070470C0000205B
:10082000001002403815000812A085B00FC88DE8EE
:100830000F0014A0144B006804905968134801F08D
:100840000C02042A10D0082A0ED1C1F38342C90336
:100850001DF802000AD5596804AAC1F34041515C51
:100860000A4A5043B0FBF1F005B0704708494843CD
:10087000FAE7000002030405060708090A0B0C0D3D
:100880000E0F1010010200000010024000127A004A
:1008900000093D002DE9F84F04006FD02078BE4DCF
:1008A000C00747D06868C0F38100012807D0686896
:1008B000C0F38100022809D16868C00306D5286802
:1008C000800337D560680028E7D033E06068B0F572
:1008D000803F0BD010B1B0F5A02F11D0286820F4C4
:1008E00080302860286820F4802002E0286840F4E6
:1008F00080302860606888B1FFF73CFE064609E05A
:10090000286840F480202860F0E7FFF733FE801B62
:10091000642873D828688003F7D50BE0FFF72AFE18
:10092000064604E0FFF726FE801B6428F1D82868FD
:100930008003F7D42078DFF8648280074FF0010A43
:100940004FF0000939D5686810F00C0F07D06868BF
:10095000C0F38100022809D16868C00306D4286862
:10096000800714D52069012808D110E02069B0B1B2
:10097000C8F800A0FFF7FEFD064605E007E1FFF717
:10098000F9FD801B0228C4D828688007F7D528689D
:10099000616920F0F80040EAC10028600DE0C8F865
:1009A0000090FFF7E7FD064604E0FFF7E3FD801B3C
:1009B000022823D828688007F7D4207800072CD590
:1009C0007748A169D9B1C0F800A0FFF7D3FD06466A
:1009D00004E0FFF7CFFD801B02280FD8686A80076C
:1009E000F7D570484FF4FA510068B0FBF1F0009071
:1009F00000BF0098411E0091FAD20EE07CE0C0F8E2
:100A00000090FFF7B7FD064604E0FFF7B3FD801B3B
:100A1000022871D8686A8007F7D4207840075BD530
:100A2000E8690027C00008D4E86940F08050E86118
:100A3000E869012700F0805000905B480168C90513
:100A400011D40168834641F480710160FFF792FD83
:100A5000064604E0FFF78EFD801B64284CD8DBF8C7
:100A60000000C005F6D5E06801280AD008B10528C5
:100A700013D0286A20F001002862286A20F00400C0
:100A800002E0286A40F001002862E06841F2883BF9
:100A900088B1FFF76FFD064609E0286A40F00400C0
:100AA0002862EEE7FFF766FD811B59455BD8286A8F
:100AB0008007F7D50BE0FFF75DFD064604E0FFF782
:100AC00059FD811B59454ED8286A8007F7D41FB1BC
:100AD000E86920F08050E861E069A8B36968C1F373
:100AE0008101022946D00228484606D0C8F8600095
:100AF000FFF740FD044639E035E04746C8F860009E
:100B0000FFF738FD064604E0FFF734FD801B02289E
:100B100029D828688001F7D4206AB0F5803F05D134
:100B20006868A16820F4003008436860D4E90801CF
:100B30000843696821F4741108436860C7F860A02D
:100B4000FFF718FD044605E023E0FFF713FD001B47
:100B5000022808D828688001F7D51AE0FFF70AFDB7
:100B6000001B022802D90320BDE8F88F2868800105
:100B7000F4D40EE00128F7D06868226A00F48031CE
:100B8000914204D1616A00F47010884201D00120C2
:100B9000EAE70020E8E700000010024000004242BF
:100BA000800442420C0000200070004010B5401E3E
:100BB000B0F1807F01D3012010BD4FF0E0246061CF
:100BC0000F21601700F0F8FB0020A06107202061D2
:100BD000002010BD70B5040004D094F83D0000253D
:100BE00010B106E0012070BD84F83C50204600F0B2
:100BF00023F8242084F83D002068C16821F40051C6
:100C0000C160204600F01AFB2068016921F4904180
:100C100001612068416921F02A0141612068C168B1
:100C200041F40051C1602564202084F83D0084F81F
:100C30003E00002070BD000030B585B00024009457
:100C400001940294039400681449884224D1144802
:100C5000816941F480418161816901F4804104919D
:100C6000816941F00401816180690E4D00F004004A
:100C700004904FF400700090022001900320039034
:100C800069462846FFF782FB2815CDE9000469462E
:100C900028460294FFF77AFB05B030BD00380140CA
:100CA0000010024000080140FEE700002DE9F0417D
:100CB00001220C4DD40321462846FFF755FC0122A2
:100CC000094F160331463846FFF74EFC00223146E5
:100CD0003846FFF749FC21462846BDE8F04100228E
:100CE000FFF742BC00080140000C014070B5012232
:100CF000D1030948FFF738FC084D4FF48054002217
:100D000021462846FFF730FC21462846BDE87040C2
:100D10000122FFF729BC000000080140000C01403F
:100D200070B50122064DD40321462846FFF71CFC6E
:100D300021462846BDE870400022FFF715BC0000A0
:100D4000000801402DE9F04786B000243D4800949A
:100D5000019402940394816941F0100181618169D9
:100D600001F010010491816941F0200181618169E4
:100D700001F020010491816941F0080181618169DC
:100D800001F008010491816941F0040181618069E9
:100D9000DFF8B48000F004004FF400550490002206
:100DA00029464046FFF7E0FB0122DFF8A0A016032A
:100DB00031465046FFF7D8FB0122DFF89490D70365
:100DC00039464846FFF7D0FB00950125CDE901548F
:100DD0000224694640460394FFF7D8FACDE900653E
:100DE000CDE9025469465046FFF7D0FA19480096FB
:100DF000CDE9010569464846FFF7C8FACDE9007517
:100E0000CDE9025469464846FFF7C0FA1020009029
:100E10001148CDE9010469465046FFF7B7FA0022B0
:100E200011460A20FFF712FC0A20FFF701FC0022FE
:100E300011462820FFF70AFC2820FFF7F9FB06B02F
:100E4000BDE8F0870010024000100140000C014096
:100E50000008014000002110000011100C4810B5DE
:100E60000A4901604FF4E1314160002181600C22A8
:100E7000C160C0E904128161C161FFF7ABFE0028C7
:100E800003D0BDE81040FFF752BA10BD0038014052
:100E900010000020FEE7000030B585B00020029071
:100EA0001648816941F004018161816901F0040102
:100EB0000491816941F0080181618069104D00F061
:100EC00008000490012001900F2003240090039457
:100ED00069462846FFF75AFA69460A480094FFF720
:100EE00055FA002204212846FFF73EFB0022082184
:100EF0002846FFF739FB05B030BD00000010024066
:100F000000080140000C01402DE9F84F14460A4644
:100F10000546984627491046FFF770F94FF07C5177
:100F2000FFF714F9FFF79CF9060041D0DFF888902D
:100F3000DFF888A0012D22464FF002010CD0504668
:100F4000FFF712FB0027009700BF0098401C00909D
:100F50000A28F9DB002429E04846F1E74FF00102B6
:100F6000012D114618D05046FFF7FEFA009700BF3A
:100F70000098401C00900A28F9DB012D4FF0000278
:100F80004FF001010AD05046FFF7EEFA08EB480097
:100F900080003946009706E04846E5E74846F3E713
:100FA00000BF491C00918142FAD3641CB442D5D3DE
:100FB000BDE8F88F00409C4600080140000C01404D
:100FC000FEE770B50025002105F1B00000F0FDF846
:100FD0000021084600F0F9F80021102000F0F5F893
:100FE00000240121002000F0F0F8641CE4B2802C01
:100FF000F7D36D1CEDB2082DE5D370BD10B54FF4DD
:101000004870FFF797F90021AE2000F0DEF80021CC
:10101000084600F0DAF80021102000F0D6F8002190
:10102000402000F0D2F80021B02000F0CEF80021DE
:10103000812000F0CAF80021FF2000F0C6F800214E
:10104000A12000F0C2F80021A62000F0BEF8002187
:10105000A82000F0BAF800213F2000F0B6F80021E7
:10106000C82000F0B2F80021D32000F0AEF8002133
:10107000084600F0AAF80021D52000F0A6F80021CB
:10108000802000F0A2F80021D82000F09EF8002176
:10109000052000F09AF80021D92000F096F80021F0
:1010A000F12000F092F80021DA2000F08EF8002103
:1010B000122000F08AF80021DB2000F086F80021E1
:1010C000302000F082F800218D2000F07EF8002111
:1010D000142000F07AF80021BDE81040AF2000F0A5
:1010E00074B810B50A460446002102F1B00000F0C1
:1010F0006CF8102040EA1410002100F066F804F0AB
:101100000F00BDE81040002100F05FB82DE9F0416C
:10111000203A00240F468046D5B27F2803D900200C
:101120008F1C8046FFB2102B394610D0FFF7D9FF35
:10113000164905EB450001EB40050121285D00F053
:1011400044F8641CE4B2062CF7D3BDE8F081FFF745
:10115000C8FF0F4E04EB05100121305C00F035F89C
:10116000641CE4B2082CF5D37F1CF9B24046FFF7AB
:10117000B8FF002404EB051030440121007A00F090
:1011800024F8641CE4B2082CF4D3DEE74015000810
:10119000681700082DE9F041984617460E460446A8
:1011A00000250DE0434631462046FFF7AFFF0834E7
:1011B000E4B2782C02D90024B61CF6B26D1CEDB254
:1011C0007A5D002AEED1BDE8F081C0B209B100F02D
:1011D000DCB800F0C3B870477047FFF7D1B930B53D
:1011E0008FB028216846FEF7A6FF14210AA8FEF753
:1011F000A2FF0120010400248DE8130004904FF4A5
:10120000E010CDE90810022507956846FFF742FB7C
:1012100008B172B6FEE70F20CDE90A054FF48060F1
:10122000CDE90C4002210AA80E94FFF741FA0028EC
:1012300001D072B6FEE70FB030BD704770B50446FE
:1012400000680169E26821F4405111430161A1681D
:1012500020690143606901432068C26841F20C6360
:101260009A430A43C26020684169A26921F440712F
:10127000114341611E492068884202D1FFF7C4FA38
:1012800001E0FFF7B1FA00EBC00101EB001160686B
:1012900064228000B1FBF0F3B3FBF2F36FF01806A9
:1012A0007343B1FBF0F5B1FBF0F605EB8305322398
:1012B00003EB0515B5FBF2F5B6FBF2F605F0F0050C
:1012C00005EB0615B1FBF0F6B1FBF0F0B0FBF2F068
:1012D0006FF01801484306EB800003EB0010B0FBF1
:1012E000F2F0216800F00F002844886070BD000013
:1012F00000380140FEE700002DE9F047154F044695
:101300004FF40046002231463846FFF72DF9DFF84A
:10131000489000254FF4805804F08000802816D0B3
:10132000002241464846FFF71FF96006040E0122DD
:1013300031463846FFF718F9002231463846FFF7A4
:1013400013F96D1CEDB2082DE6D3BDE8F08701223C
:10135000E7E7000000080140000C014010B504461A
:10136000FFF7A4FC7820FFF7C7FFFFF7D9FC0020A8
:10137000FFF7C2FFFFF7D4FC2046FFF7BDFFFFF7E2
:10138000CFFCBDE81040FFF7B1BC10B50446FFF735
:101390008DFC7820FFF7B0FFFFF7C2FC4020FFF77D
:1013A000ABFFFFF7BDFC2046FFF7A6FFFFF7B8FC39
:1013B000BDE81040FFF79ABC0907090E002804DBBE
:1013C00000F1E02080F80014704700F00F0000F1F9
:1013D000E02080F8141D704702E008C8121F08C101
:1013E000002AFAD170477047002001E001C1121FA6
:1013F000002AFBD170470000FFF7CAF8FFF7EFFEA5
:10140000FFF7A0FCFFF72AFDFFF7F8FDFFF7D9FD76
:10141000FFF742FD002110232AA20846FFF7BAFE7B
:1014200010232CA202210020FFF7B4FE4FF4FA741F
:10143000DFF8AC904FF07E554FF07C5667004FF4CC
:101440000058102327A204210020FFF7A3FE234603
:10145000002229460120FFF757FD2046FEF76AFFCC
:10146000102324A204210020FFF794FE012223462A
:1014700029461046FFF748FD2046FEF75BFF102384
:1014800020A204210020FFF785FE234600223146DA
:101490000220FFF739FD2046FEF74CFF10231DA266
:1014A00004210020FFF776FE234601223146022068
:1014B000FFF72AFD3846FEF73DFF41464846FFF755
:1014C0004BF8BEE74B464A204D6F746F722054654F
:1014D0007374000052756E6E696E672E2E2E0000BA
:1014E000001001404D3120466F72776172642031E7
:1014F000522000004D31204261636B77617264209D
:10150000315200004D3220466F7277617264203094
:101510002E3552004D32204261636B776172642038
:10152000302E3552000000000000000000000000D6
:101530000102030406070809000000000102030479
:101540000000000000000000002F00000000070065
:10155000070000147F147F1400242A7F2A120062DF
:10156000640813230036495522500000050300008B
:1015700000001C224100000041221C000014083E13
:1015800008140008083E0808000000A060000008D9
:10159000080808080000606000000020100804022D
:1015A000003E5149453E0000427F400000426151EB
:1015B0004946002141454B31001814127F10002785
:1015C00045454539003C4A49493000017109050348
:1015D00000364949493600064949291E0000363679
:1015E00000000000563600000008142241000014DC
:1015F00014141414000041221408000201510906B9
:1016000000324959513E007C1211127C007F494939
:101610004936003E41414122007F4141221C007F6A
:1016200049494941007F09090901003E4149497A78
:10163000007F0808087F0000417F410000204041F2
:101640003F01007F08142241007F40404040007F5E
:10165000020C027F007F0408107F003E4141413EA2
:10166000007F09090906003E4151215E007F0919EA
:1016700029460046494949310001017F0101003FE7
:101680004040403F001F2040201F003F4038403F67
:1016900000631408146300070870080700615149CB
:1016A000454300007F41410000552A552A5500005E
:1016B00041417F00000402010204004040404040DC
:1016C000000001020400002054545478007F484474
:1016D000443800384444442000384444487F0038AB
:1016E0005454541800087E0901020018A4A4A47CD4
:1016F000007F080404780000447D4000004080849E
:101700007D00007F102844000000417F4000007CE5
:1017100004180478007C08040478003844444438F1
:1017200000FC242424180018242418FC007C08043D
:10173000040800485454542000043F444020003C16
:101740004040207C001C2040201C003C4030403C9D
:10175000004428102844001CA0A0A07C004464542D
:101760004C44141414141414000000000000000071
:101770000000000000000000000000F80000000071
:10178000000000333000000000100C06100C0600B2
:10179000000000000000000040C07840C078400019
:1017A000043F04043F040400007088FC083000007B
:1017B000001820FF211E0000F008F000E0180000D3
:1017C00000211C031E211E0000F00888700000008C
:1017D0001E2123241927211010160E0000000000DE
:1017E0000000000000000000000000E018040200FB
:1017F000000000071820400000020418E00000006C
:101800000040201807000000404080F08040400069
:101810000202010F01020200000000F000000000BF
:101820000101011F01010100000000000000000093
:1018300080B0700000000000000000000000000008
:101840000001010101010101000000000000000091
:10185000003030000000000000000000806018042C
:10186000006018060100000000E010080810E00009
:10187000000F102020100F00001010F800000000D2
:101880000020203F20200000007008080888700019
:101890000030282422213000003008888848300099
:1018A0000018202020110E000000C02010F80000B9
:1018B00000070424243F240000F808888808080052
:1018C0000019212020110E0000E010888818000067
:1018D000000F112020110E0000380808C838080039
:1018E0000000003F000000000070880808887000B9
:1018F000001C222121221C0000E010080810E0003A
:101900000000312222110F00000000C0C0000000C2
:1019100000000030300000000000008000000000E7
:1019200000008060000000000000804020100800DF
:1019300000010204081020004040404040404000A8
:101940000404040404040400000810204080000083
:101950000020100804020100007048080808F00088
:101960000000003036010000C030C828E810E00058
:101970000718272423140B000000C038E0000000E3
:10198000203C23020227382008F88888887000004D
:10199000203F202020110E00C03008080808380021
:1019A000071820202010080008F808080810E00098
:1019B000203F202020100F0008F88888E808100039
:1019C000203F20202320180008F88888E80810000D
:1019D000203F200003000000C03008080838000045
:1019E00007182020221E020008F808000008F80846
:1019F000203F210101213F20000808F808080000CD
:101A00000020203F2020000000000808F8080800FF
:101A1000C08080807F00000008F888C02818080077
:101A2000203F20012638200008F8080000000000B0
:101A3000203F20202020300008F8F800F8F80800A7
:101A4000203F003F003F200008F830C00008F808A1
:101A5000203F200007183F00E01008080810E000B1
:101A60000F10202020100F0008F808080808F000C8
:101A7000203F210101010000E01008080810E000EB
:101A80000F18242438504F0008F888888888700080
:101A9000203F2000030C3020007088080808380020
:101AA0000038202121221C00180808F80808180016
:101AB0000000203F2000000008F808000008F80897
:101AC000001F202020201F000878880000C8380848
:101AD000000007380E010000F80800F80008F800C0
:101AE000033C0700073C030008186880806818085A
:101AF00020302C03032C30200838C800C8380800D8
:101B00000000203F2000000010080808C838080026
:101B10002038262120201800000000FE02020200CA
:101B20000000007F40404000000C30C0000000007A
:101B3000000000010638C00000020202FE000000A2
:101B4000004040407F000000000004020202040048
:101B50000000000000000000000000000000000085
:101B6000808080808080808000020204000000006D
:101B70000000000000000000000080808080000065
:101B80000019242222223F2008F800808000000053
:101B9000003F112020110E00000000808080000016
:101BA000000E112020201100000000808088F80025
:101BB000000E112020103F20000080808080000057
:101BC000001F222222221300008080F088888818BB
:101BD0000020203F202000000000808080808000C6
:101BE000006B94949493600008F80080808000005B
:101BF000203F210000203F20008098980000000036
:101C00000020203F20200000000000809898000065
:101C100000C08080807F000008F800008080800085
:101C2000203F24022D302000000808F800000000AA
:101C30000020203F20200000808080808080800065
:101C4000203F20003F20003F8080008080800000F7
:101C5000203F210000203F20000080808080000085
:101C6000001F202020201F008080008080000000B6
:101C700080FFA12020110E000000008080808000E5
:101C8000000E112020A0FF808080800080808000D6
:101C900020203F2120000100000080808080800003
:101CA0000033242424241900008080E08080000078
:101CB0000000001F202000008080000000808000C5
:101CC000001F202020103F20808080000080808026
:101CD00000010E30080601008080008000808080B6
:101CE0000F300C030C300F000080800080808000DB
:101CF0000020312E0E312000808080000080808006
:101D000080818E70180601000080808080808000B5
:101D10000021302C2221300000000000807C0202D3
:101D200000000000003F404000000000FF000000F5
:101D300000000000FF0000000002027C80000000A4
:101D40000040403F000000000006010102020404C0
:101D50000000000000000000781D000800000020C6
:101D600010000000D8130008881D00081000002093
:101D700048040000E8130008010000001000000003
:081D8000000000000024F40043
:04000005080000ED02
:00000001FF
